:020000040800F2
:1000000000000320292000083517000837170008D2
:10001000391700083B1700083D17000800000000D2
:100020000000000000000000000000003F17000872
:10003000411700080000000043170008451700089A
:100040006D2000086D2000086D2000086D2000085C
:100050006D2000086D2000086D2000086D2000084C
:100060006D2000086D2000086D2000086D2000083C
:100070006D2000086D2000086D2000086D2000082C
:100080006D2000086D2000086D2000086D2000081C
:100090006D2000086D2000086D2000086D2000080C
:1000A0006D2000086D2000086D2000086D200008FC
:1000B0006D2000086D2000086D2000086D200008EC
:1000C0006D2000086D2000086D2000086D200008DC
:1000D0006D200008000000006D2000086D20000861
:1000E0006D2000086D2000086D2000086D200008BC
:1000F0006D2000086D2000086D2000086D200008AC
:100100006D2000086D2000086D2000086D2000089B
:100110006D2000086D2000086D2000086D2000088B
:100120006D2000086D2000086D2000086D2000087B
:100130006D2000086D2000086D2000086D2000086B
:100140006D2000086D2000086D2000086D2000085B
:100150006D2000086D2000086D2000086D2000084B
:100160006D2000086D2000086D2000086D2000083B
:100170006D2000086D2000086D20000800000000C0
:100180006D2000086D2000086D2000086D2000081B
:100190006D2000086D2000086D20000800000000A0
:0C01A0006D2000086D2000086D20000894
:1001B00010B5054C237833B9044B13B10448AFF3A1
:1001C00000800123237010BD3404002000000000D3
:1001D0005431000808B5034B1BB103490348AFF382
:1001E000008008BD000000003804002054310008E1
:1001F00081F0004102E000BF83F0004330B54FEAD8
:1002000041044FEA430594EA050F08BF90EA020F44
:100210001FBF54EA000C55EA020C7FEA645C7FEAD7
:10022000655C00F0E2804FEA5454D4EB5555B8BFFA
:100230006D420CDD2C4480EA020281EA030382EA6B
:10024000000083EA010180EA020281EA0303362DFD
:1002500088BF30BD11F0004F4FEA01314FF4801CD0
:100260004CEA113102D0404261EB410113F0004FE2
:100270004FEA03334CEA133302D0524263EB430399
:1002800094EA050F00F0A780A4F10104D5F1200E37
:100290000DDB02FA0EFC22FA05F2801841F1000192
:1002A00003FA0EF2801843FA05F359410EE0A5F166
:1002B00020050EF1200E012A03FA0EFC28BF4CF097
:1002C000020C43FA05F3C01851EBE37101F000454D
:1002D00007D54FF0000EDCF1000C7EEB00006EEB5A
:1002E0000101B1F5801F1BD3B1F5001F0CD34908E4
:1002F0005FEA30004FEA3C0C04F101044FEA44523B
:1003000012F5800F80F09A80BCF1004F08BF5FEAC1
:10031000500C50F1000041EB045141EA050130BDA1
:100320005FEA4C0C404141EB0101013C28BFB1F5B3
:10033000801FE9D291F0000F04BF01460020B1FAFE
:1003400081F308BF2033A3F10B03B3F120020CDAD1
:100350000C3208DD02F1140CC2F10C0201FA0CF0AF
:1003600021FA02F10CE002F11402D8BFC2F1200C14
:1003700001FA02F120FA0CFCDCBF41EA0C019040CA
:10038000E41AA2BF01EB0451294330BD6FEA040413
:100390001F3C1CDA0C340EDC04F11404C4F12002FE
:1003A00020FA04F001FA02F340EA030021FA04F310
:1003B00045EA030130BDC4F10C04C4F1200220FA67
:1003C00002F001FA04F340EA0300294630BD21FAA5
:1003D00004F0294630BD94F0000F83F4801306BF6B
:1003E00081F480110134013D4EE77FEA645C18BF5F
:1003F0007FEA655C29D094EA050F08BF90EA020FF6
:1004000005D054EA000C04BF1946104630BD91EAED
:10041000030F1EBF0021002030BD5FEA545C05D1F0
:100420004000494128BF41F0004130BD14F580042F
:100430003CBF01F5801130BD01F0004545F0FE41A3
:1004400041F470014FF0000030BD7FEA645C1ABFD8
:10045000194610467FEA655C1CBF0B46024650EA0F
:10046000013406BF52EA033591EA030F41F400213B
:1004700030BD00BF90F0000F04BF0021704730B5C1
:100480004FF4806404F132044FF000054FF0000196
:1004900050E700BF90F0000F04BF0021704730B557
:1004A0004FF4806404F1320410F0004548BF40422C
:1004B0004FF000013EE700BF42004FEAE2014FEA81
:1004C00031014FEA02701FBF12F07F4393F07F4F5C
:1004D00081F06051704732F07F4208BF704793F05F
:1004E0007F4F04BF41F40021704730B54FF4607472
:1004F00001F0004521F000411CE700BF50EA010275
:1005000008BF704730B54FF000050AE050EA01021D
:1005100008BF704730B511F0004502D5404261EB8D
:1005200041014FF4806404F132045FEA915C3FF4CE
:10053000D8AE4FF003025FEADC0C18BF03325FEA6B
:10054000DC0C18BF033202EBDC02C2F1200300FA1C
:1005500003FC20FA02F001FA03FE40EA0E0021FA41
:1005600002F11444BDE600BF70B54FF0FF0C4CF42F
:10057000E06C1CEA11541DBF1CEA135594EA0C0FE1
:1005800095EA0C0F00F0DEF82C4481EA030621EA1C
:100590004C5123EA4C5350EA013518BF52EA033557
:1005A00041F4801143F4801338D0A0FB02CE4FF009
:1005B0000005E1FB02E506F00042E0FB03E54FF039
:1005C0000006E1FB03569CF0000F18BF4EF0010E31
:1005D000A4F1FF04B6F5007F64F5407404D25FEA2D
:1005E0004E0E6D4146EB060642EAC62141EA5551E0
:1005F0004FEAC52040EA5E504FEACE2EB4F1FD0C22
:1006000088BFBCF5E06F1ED8BEF1004F08BF5FEA9F
:10061000500E50F1000041EB045170BD06F0004651
:1006200046EA010140EA020081EA0301B4EB5C04FE
:10063000C2BFD4EB0C0541EA045170BD41F48011F6
:100640004FF0000E013C00F3AB8014F1360FDEBF1B
:10065000002001F0004170BDC4F10004203C35DAF7
:100660000C341BDC04F11404C4F1200500FA05F37A
:1006700020FA04F001FA05F240EA020001F000421B
:1006800021F0004110EBD37021FA04F642EB060191
:100690005EEA430E08BF20EAD37070BDC4F10C04BB
:1006A000C4F1200500FA04F320FA05F001FA04F27F
:1006B00040EA020001F0004110EBD37041F100016B
:1006C0005EEA430E08BF20EAD37070BDC4F1200576
:1006D00000FA05F24EEA020E20FA04F301FA05F2DE
:1006E00043EA020321FA04F001F0004121FA04F286
:1006F00020EA020000EBD3705EEA430E08BF20EA56
:10070000D37070BD94F0000F0FD101F0004640008F
:1007100041EB010111F4801F08BF013CF7D041EA11
:10072000060195F0000F18BF704703F00046520015
:1007300043EB030313F4801F08BF013DF7D043EAE6
:100740000603704794EA0C0F0CEA135518BF95EA9C
:100750000C0F0CD050EA410618BF52EA4306D1D123
:1007600081EA030101F000414FF0000070BD50EA42
:10077000410606BF1046194652EA430619D094EACC
:100780000C0F02D150EA013613D195EA0C0F05D1B6
:1007900052EA03361CBF104619460AD181EA03010A
:1007A00001F0004141F0FE4141F470014FF00000C2
:1007B00070BD41F0FE4141F4780170BD70B54FF05D
:1007C000FF0C4CF4E06C1CEA11541DBF1CEA1355DD
:1007D00094EA0C0F95EA0C0F00F0A7F8A4EB0504BF
:1007E00081EA030E52EA03354FEA013100F08880B6
:1007F0004FEA03334FF0805545EA131343EA12637F
:100800004FEA022245EA111545EA10654FEA002633
:100810000EF000419D4208BF964244F1FD0404F5EC
:10082000407402D25B084FEA3202B61A65EB030548
:100830005B084FEA32024FF480104FF4002CB6EB05
:10084000020E75EB030E22BFB61A754640EA0C0085
:100850005B084FEA3202B6EB020E75EB030E22BFC5
:10086000B61A754640EA5C005B084FEA3202B6EB06
:10087000020E75EB030E22BFB61A754640EA9C00C5
:100880005B084FEA3202B6EB020E75EB030E22BF95
:10089000B61A754640EADC0055EA060E18D04FEA53
:1008A000051545EA16754FEA06164FEAC30343EAF3
:1008B00052734FEAC2025FEA1C1CC0D111F4801FC0
:1008C0000BD141EA00014FF000004FF0004CB6E7B9
:1008D00011F4801F04BF01430020B4F1FD0C88BF58
:1008E000BCF5E06F3FF6AFAEB5EB030C04BFB6EB63
:1008F000020C5FEA500C50F1000041EB045170BD56
:100900000EF0004E4EEA113114EB5C04C2BFD4EB82
:100910000C0541EA045170BD41F480114FF0000E06
:10092000013C90E645EA060E8DE60CEA135594EA82
:100930000C0F08BF95EA0C0F3FF43BAF94EA0C0F85
:100940000AD150EA01347FF434AF95EA0C0F7FF4FA
:1009500025AF104619462CE795EA0C0F06D152EA4E
:1009600003353FF4FDAE1046194622E750EA410632
:1009700018BF52EA43067FF4C5AE50EA41047FF443
:100980000DAF52EA43057FF4EBAE12E74FF0FF3CA8
:1009900006E000BF4FF0010C02E000BF4FF0010C79
:1009A0004DF804CD4FEA410C7FEA6C5C4FEA430CF2
:1009B00018BF7FEA6C5C1BD001B050EA410C0CBF41
:1009C00052EA430C91EA030F02BF90EA020F0020A3
:1009D000704710F1000F91EA030F58BF994208BF0A
:1009E00090422CBFD8176FEAE37040F001007047C7
:1009F0004FEA410C7FEA6C5C02D150EA013C07D11E
:100A00004FEA430C7FEA6C5CD6D152EA033CD3D068
:100A10005DF8040B704700BF8446104662468C4662
:100A20001946634600E000BF01B5FFF7B7FF002895
:100A300048BF10F1000F01BD4DF808EDFFF7F4FFBE
:100A40000CBF012000205DF808FB00BF4DF808ED49
:100A5000FFF7EAFF34BF012000205DF808FB00BF6C
:100A60004DF808EDFFF7E0FF94BF012000205DF88E
:100A700008FB00BF4DF808EDFFF7CEFF94BF012043
:100A800000205DF808FB00BF4DF808EDFFF7C4FF3C
:100A900034BF012000205DF808FB00BF4FEA41028F
:100AA00012F5001215D211D56FF47873B3EB6252C0
:100AB00012D94FEAC12343F0004343EA505311F0E7
:100AC000004F23FA02F018BF404270474FF0000079
:100AD000704750EA013005D111F0004008BF6FF0B7
:100AE000004070474FF00000704700BF4FEA410CD4
:100AF0007FEA6C5C02D150EA013C0AD14FEA430C18
:100B00007FEA6C5C02D152EA033C02D14FF0000054
:100B100070474FF001007047F0B50568C6684FF0A8
:100B2000000C03E00CF1010C1FFA8CFCBCF10F0F60
:100B300018D84FF0010E0EFA0CFE1EEA030FF1D08A
:100B40004FEA4C044FF0030E0EFA04FE25EA0E05A0
:100B500001FA04F73D4326EA0E0E02FA04F444EAD1
:100B60000E06DFE70560C660F0BD10B5012906D0AE
:100B7000416821EA030141608468002105E0416881
:100B800019434160F8E7013189B20F2913D84FF0BA
:100B9000010C0CFA01FC1CEA030FF4D04FEA410CE3
:100BA0004FF0030E0EFA0CFE24EA0E0402FA0CFCBF
:100BB0004CEA0404E7E7846010BD30B5046A456A76
:100BC000002301E001339BB2072B13D84FF0010C37
:100BD0000CFA03FC1CEA020FF4D04FEA830E4FF02C
:100BE0000F0C0CFA0EFC24EA0C0401FA0EFE4EEA7D
:100BF0000404E7E7082301E001339BB20F2B15D86B
:100C00004FF0010C0CFA03FC1CEA020FF4D0A3F124
:100C1000080C4FEA8C0C4FF00F0E0EFA0CFE25EA72
:100C20000E0501FA0CFC4CEA0505E5E70462456295
:100C300030BD000070B505460C461646022000F097
:100C4000CBF82C4BA3FB00239B0C2B4A904219D2D0
:100C50001A46696821F03F011143696027498C42B7
:100C600019D801333B2B0FD93C232B626400B0FB16
:100C7000F4F0032800D80420EC69C0F30B002043F3
:100C8000E86170BD3C22E4E7022B02D802232B620C
:100C9000ECE72B62EAE71A4B9C42F2D84FF49673CA
:100CA00002FB03F3174AA2FB03239B0901332B62C8
:100CB000A6B904EB4404B0FBF4F0EB6923F48043E1
:100CC000EB61C0F30B030BB940F00100EB6943F497
:100CD0000043EB61EC692043E861D2E704EB840454
:100CE00004EB8404B0FBF4F0EB6943F48043EB6164
:100CF000E7E700BF83DE1B4300879303A086010064
:100D0000801A0600D34D621010B4046824F0020C5F
:100D10004CEA01010160C3F309031343836010BC73
:100D20007047036823F480630B43036070470368D4
:100D300023F400630B430360704712F1020F03D0EA
:100D400041F001010161704721F00101FAE70368F8
:100D500043F0010303607047036843F4807303604A
:100D60007047036843F40073036070470161704784
:100D70000069C0B270478B091B5801F01F0123FAAC
:100D800001F111F0010F01D00120704700207047E0
:100D900040F2015399420DD04FEA911C5CF80030AB
:100DA00001F01F01012202FA01F123EA01014CF8CE
:100DB00000107047436983697047830903F18043DA
:100DC00003F50E331A6800F01F00012101FA00F04C
:100DD000104318607047000010B588B08446344C4A
:100DE00094E80F000DF1200E0EE90F0002AB103455
:100DF00094E8030083E803006B4683E803002D4B6F
:100E0000D3F80838C3F38103012B1FD0022B1FD165
:100E1000284AD2F8044804F03F04D2F80418C1F379
:100E20008811D2F80408C0F3014001304300D2F821
:100E3000042812F4800F07D01F48B0FBF4F001FB28
:100E400000F0B0FBF3F004E01C48F6E71A4800E0BD
:100E50001A481849D1F80838C3F3031320336B44F8
:100E600013F8102C20FA02F2D1F80838C3F38223C9
:100E700020336B4413F8183C22FA03F4D1F80838F5
:100E8000C3F3423320336B4413F8203C22FA03F3BC
:100E9000BCF1030F03D8DFE80CF0050407090020BC
:100EA00000E0104608B010BD2046FBE71846F9E701
:100EB0006C3100080030024040787D010024F400CD
:100EC000364AD2F8003843F48033C2F800380023A1
:100ED0000133324AD2F8002812F4003F03D14FF612
:100EE000FF729342F4D12D4BD3F8003813F4003F36
:100EF00000D1FEE7294BD3F8402842F08052C3F8D6
:100F0000402827490A6842F440420A60D3F808287A
:100F1000C3F80828D3F8082842F40042C3F8082888
:100F2000D3F8082842F4A052C3F808281D4AC3F891
:100F30000428D3F8002842F08072C3F80028174B29
:100F4000D3F8003813F0007FF9D0154A136843F442
:100F500080331360124B5B6813F4803FFAD0104A61
:100F6000136843F4003313600D4B5B6813F4003FC8
:100F7000FAD00A4BD3F8082822F00302C3F8082855
:100F8000D3F8082842F00202C3F80828034BD3F82C
:100F9000083813F0080FF9D0704700BF0030024046
:100FA000007000401964400908B5FFF789FF08BDCB
:100FB00000B583B0264BD3F8002842F00102C3F8F5
:100FC0000028D3F8082842F08002C3F8082800233C
:100FD000019302E0019B01330193019A4CF24F33DC
:100FE0009A42F7D91A4AD2F8083843F09003C2F867
:100FF00008380023019302E0019B01330193019A19
:101000004CF24F339A42F7D9114BD3F8082822F00B
:101010000302C3F80828D3F8002822F0847222F4CF
:101020008032C3F80028D3F8002822F48022C3F8C5
:1010300000280022C3F80828D3F808180549C3F887
:101040000418C3F80C28FFF7AFFF03B05DF804FBEA
:10105000003002401030002438B50025032D10DC8C
:1010600005F170046400E4B22146174800F00AFC60
:1010700008B90135F2E7154B134A5A601C72012278
:101080001A70124B1B78012B13D00025032D10DC96
:1010900005F170046400E4B221460D4800F0F2FB53
:1010A00008B90135F2E7094B094A5A601C7201225E
:1010B0001A70064B1B7803B938BD044B2122197AEC
:1010C000586800F015FCF7E7005400405C0400206D
:1010D0000058004008B5034B8122197A586800F087
:1010E00007FC08BD5C0400202DE9F041013803280D
:1010F00003D8DFE800F00A040608002406E0042410
:1011000004E0062402E0082400E00224651C093102
:1011100013292DD8DFE811F0F601DD01C401AB0180
:1011200092015A01410128010F0114002E004700CD
:10113000600079009200AB00C400DD00F6000F02F1
:10114000AF4E776896F80880AE4800F049FFC3B20A
:1011500022464146384600F016FC7468367AAA48A2
:1011600000F03EFFC3B22A463146204600F00BFC99
:10117000BDE8F081A24E776896F80880A34800F099
:101180002FFFC3B222464146384600F0FCFB74688C
:10119000367A9F4800F024FFC3B22A4631462046E3
:1011A00000F0F1FBE4E7964E776896F808809948DE
:1011B00000F016FFC3B222464146384600F0E3FB7A
:1011C0007468367A944800F00BFFC3B22A46314661
:1011D000204600F0D8FBCBE7894E776896F8088068
:1011E0008E4800F0FDFEC3B222464146384600F06C
:1011F000CAFB7468367A884800F0F2FEC3B22A4609
:101200003146204600F0BFFBB2E77D4E776896F886
:1012100008807E4800F0E4FEC3B2224641463846CC
:1012200000F0B1FB7468367A7D4800F0D9FEC3B295
:101230002A463146204600F0A6FB99E7704E7768B3
:1012400096F80880774800F0CBFEC3B222464146AC
:10125000384600F098FB7468367A714800F0C0FE9A
:10126000C3B22A463146204600F08DFB80E7644E2B
:10127000776896F808806C4800F0B2FEC3B2224648
:101280004146384600F07FFB7468367A644800F0C7
:10129000A7FEC3B22A463146204600F074FB67E73A
:1012A000574E776896F80880604800F099FEC3B200
:1012B00022464146384600F066FB7468367A544848
:1012C00000F08EFEC3B22A463146204600F05BFB9A
:1012D0004EE74B4E776896F808804A4800F080FE4B
:1012E000C3B222464146384600F04DFB7468367A58
:1012F0004B4800F075FEC3B22A463146204600F046
:1013000042FB35E73E4E776896F80880434800F088
:1013100067FEC3B222464146384600F034FB74688B
:10132000367A3F4800F05CFEC3B22A46314620467A
:1013300000F029FB1CE7324E776896F808803348A6
:1013400000F04EFEC3B222464146384600F01BFB79
:101350007468367A364800F043FEC3B22A463146F6
:10136000204600F010FB03E7254E776896F80880CA
:10137000284800F035FEC3B222464146384600F008
:1013800002FB7468367A2B4800F02AFEC3B22A4664
:101390003146204600F0F7FAEAE6194E776896F8EB
:1013A00008801E4800F01CFEC3B222464146384663
:1013B00000F0E9FA7468367A1E4800F011FEC3B2F4
:1013C0002A463146204600F0DEFAD1E60C4E776818
:1013D00096F808800D4800F003FEC3B2224641464D
:1013E000384600F0D0FA7468367A134800F0F8FDF9
:1013F000C3B22A463146204600F0C5FAB8E600BF1F
:101400005C04002084310008903100089C31000801
:10141000A8310008B4310008C0310008CC31000800
:10142000D8310008E4310008F0310008FC31000830
:101430000832000814320008203200084A4E77684B
:1014400096F80880494800F0CBFDC3B222464146D9
:10145000384600F098FA7468367A454800F0C0FDC6
:10146000C3B22A463146204600F08DFA80E63E4E51
:10147000776896F808803F4800F0B2FDC3B2224674
:101480004146384600F07FFA7468367A384800F0F2
:10149000A7FDC3B22A463146204600F074FA67E63B
:1014A000314E776896F80880334800F099FDC3B252
:1014B00022464146384600F066FA7468367A2F486C
:1014C00000F08EFDC3B22A463146204600F05BFA9A
:1014D0004EE6254E776896F80880294800F080FD92
:1014E000C3B222464146384600F04DFA7468367A57
:1014F0001F4800F075FDC3B22A463146204600F071
:1015000042FA35E6184E776896F808801D4800F0D4
:1015100067FDC3B222464146384600F034FA74688B
:10152000367A134800F05CFDC3B22A4631462046A5
:1015300000F029FA1CE60C4E776896F808801048EF
:1015400000F04EFDC3B222464146384600F01BFA79
:101550007468367A0C4800F043FDC3B22A4631461F
:10156000204600F010FA03E65C040020E431000895
:1015700020320008F0310008FC3100080832000871
:1015800084310008CC310008D83100080000000088
:1015900038B504460D4662A3D3E90023FFF76AFA83
:1015A000002841D10022002320462946FFF74EFAA9
:1015B000002839D15AA3D3E9002320462946FFF752
:1015C00045FA30B10022584B20462946FFF752FA1F
:1015D00050BB0022544B20462946FFF737FA30B162
:1015E0000022524B20462946FFF744FAE8B9002270
:1015F0004E4B20462946FFF729FA30B100224C4BCA
:1016000020462946FFF736FAC0BB0022484B204649
:101610002946FFF71BFA38B100220023204629464D
:10162000FFF728FA002852D138BD0022404B20464F
:101630002946FEF799FFFFF731FA0446032100F02F
:10164000D5FC01460120FFF74FFD0221204600F0A6
:10165000CDFC01460220FFF747FD0121204600F0A6
:10166000C5FC41420320FFF73FFD0021204600F06A
:10167000BDFC01460420FFF737FDD5E700222B4BC8
:1016800020462946FEF770FFFFF708FA04460321BB
:1016900000F0ACFC01460120FFF726FD02212046A8
:1016A00000F0A4FC41420220FFF71EFD012120466C
:1016B00000F09CFC01460320FFF716FD00212046A8
:1016C00000F094FC01460420FFF70EFDACE7002279
:1016D000154B20462946FEF747FFFFF7DFF9044682
:1016E000032100F083FC41420120FFF7FDFC0221B1
:1016F000204600F07BFC01460220FFF7F5FC0121AB
:10170000204600F073FC01460320FFF7EDFC0021AA
:10171000204600F06BFC01460420FFF7E5FC83E760
:10172000000000000088C34000408F400000594086
:10173000000024407047FEE7FEE7FEE7FEE7704743
:101740007047704708B500F09BFB08BD10B540F628
:101750000140FFF732FB154C4FF480720421204604
:10176000FFF72BFA4FF4007204212046FFF725FA09
:101770004FF48073012202212046FFF7CDF94FF488
:101780008073022201212046FFF7EFF94FF4007326
:10179000012202212046FFF7BFF94FF40073022215
:1017A00001212046FFF7E1F910BD00BF000402400F
:1017B00010B541F21500FFF700FB0A4C00220A4960
:1017C0002046FFF737FAA023002211462046FFF7F4
:1017D0009BFA2046FFF7BBFA4FF480612046FFF7E3
:1017E000A0FA10BD00540040A086010010B540F6DC
:1017F0000540FFF7E2FA124C022204212046FFF7CF
:10180000DCF9012204212046FFF7D7F901231A460B
:1018100002212046FFF780F90123022219460948D8
:10182000FFF7A3F90223012219462046FFF774F9B6
:1018300002231A4601212046FFF797F910BD00BF89
:1018400000140240000C024010B541F21600FFF7F0
:10185000B4FA0A4C00220A492046FFF7EBF9A0230C
:10186000002211462046FFF74FFA2046FFF76FFA95
:101870004FF480612046FFF754FA10BD0058004035
:10188000A086010070B505460C4640F2016128466D
:10189000FFF771FA06460028F7D12846FFF75CFAF1
:1018A0004FF4A0612846FFF766FA0028F8D06FF0E1
:1018B000010221462846FFF740FA002440F2015178
:1018C0002846FFF758FA28B90134A4B24EF660232F
:1018D0009C42F3D94EF660239C4200D8012628464C
:1018E000FFF73FFA2B6813F4007FFBD1304670BD41
:1018F00070B505460C46164640F201612846FFF7D2
:101900003AFA0028F8D12846FFF726FA4FF4A061EA
:101910002846FFF730FA0028F8D06FF00102214680
:101920002846FFF70AFA002440F201512846FFF743
:1019300022FA48B90134A4B24EF660239C42F3D98E
:101940002846FFF70EFA1DE040F201512846FFF746
:101950001FFA40F207512846FFF70DFA0128F8D187
:1019600031462846FFF702FA40F202512846FFF7B7
:1019700002FA0028F8D02846FFF7F3F92B6813F491
:10198000007FFBD170BDF8B505460C4617461E46D4
:1019900040F201612846FFF7EEF90028F8D1284609
:1019A000FFF7DAF94FF4A0612846FFF7E4F90028C1
:1019B000F8D06FF0010221462846FFF7BEF9002457
:1019C00040F201512846FFF7D6F948B90134A4B2D4
:1019D0004EF660208442F3D92846FFF7C2F928E08A
:1019E00040F201512846FFF7D3F940F2075128464B
:1019F000FFF7C1F90128F8D139462846FFF7B6F9B3
:101A000040F202512846FFF7B6F90028F8D03146D7
:101A10002846FFF7ABF940F202512846FFF7ABF931
:101A20000028F8D02846FFF79CF92B6813F4007FB4
:101A3000FBD1F8BD2DE9F84F0446884692469946F9
:101A4000DDF828B0BDF82C6040F201612046FFF7B8
:101A500092F90028F8D1022E21D02046FFF77CF918
:101A60004FF4A0612046FFF786F90028F8D06FF008
:101A7000010241462046FFF760F9002540F201517E
:101A80002046FFF778F9074678B90135ADB24EF632
:101A900060239D42F2D92046FFF763F98EE04FF4B0
:101AA00000612046FFF743F9D7E740F20151204695
:101AB000FFF76EF940F207512046FFF75CF9074641
:101AC0000128F7D151462046FFF750F940F2025164
:101AD0002046FFF750F90028F8D049462046FFF786
:101AE00045F940F202512046FFF745F90028F8D0A9
:101AF0002046FFF736F9BDF8300000F0B7F9204670
:101B0000FFF72AF94FF4A0612046FFF734F90028C7
:101B1000F8D0012241462046FFF70FF9022E11D9D5
:101B200040F201512046FFF726F90028F8D040F294
:101B300001512046FFF72CF9012E1AD12046FFF75C
:101B400010F916E000212046FFF7EBF8E8E740F235
:101B500002512046FFF70FF90028F8D00021204657
:101B6000FFF7DFF808E040F206512046FFF703F9DF
:101B700078B9B6B1032EEAD0022EF4D140F2025168
:101B80002046FFF7F8F80028F8D02046FFF7E9F8DC
:101B9000E9E72046FFF7ECF80BF8010B013EB6B27F
:101BA000E7E7236813F4007FFBD14FF48061204600
:101BB000FFF7B7F800212046FFF7B9F83846BDE82F
:101BC000F88F2DE9F84306460F4614469946BDF8AE
:101BD00020809500EDB2AA1DDBB202F0FE02FFF7F5
:101BE000D2FEEA1D4FEA1923D2B239463046FFF73A
:101BF000CAFEA21C92005FFA88F302F0FC0239468A
:101C00003046FFF7C0FE05F109024FEA1823D2B2B1
:101C100039463046FFF7B7FEBDE8F88338B50446CD
:101C20000D460023FA22FFF7AEFE0023FB222946D1
:101C30002046FFF7A8FE0023FC2229462046FFF796
:101C4000A2FE0023FD2229462046FFF79CFE38BD58
:101C500038B50025032D10DC05F160046400E4B202
:101C600021461A48FFF70EFE08B90135F2E7184B76
:101C7000164A5A601C7201221A70154B1B78012BF0
:101C800013D00025032D10DC05F160046400E4B2DC
:101C900021461048FFF7F6FD08B90135F2E70C4B75
:101CA0000C4A5A601C7201221A70094B1B7803B946
:101CB00038BD074C00231A46217A6068FFF763FE9F
:101CC000217A6068FFF7AAFFF2E700BF00540040E6
:101CD000500400200058004030B583B003285CD881
:101CE000DFE800F0020924402F4B197A5868FFF70B
:101CF00095FF03B030BD2C4C1025009500231A46EB
:101D0000217A6068FFF75DFF4FF44063009340F273
:101D100099130122217A6068FFF753FF0095002391
:101D20000222217A6068FFF74CFFE2E71E4C4FF475
:101D30000065009540F299130022217A6068FFF750
:101D400040FF009540F299130122217A6068FFF765
:101D500038FF1023009300230222217A6068FFF7E6
:101D600030FFC6E7104C1025009500231A46217A53
:101D70006068FFF726FF009500230122217A606842
:101D8000FFF71FFF4FF44063009340F299130222C4
:101D9000217A6068FFF715FFABE7034B197A5868A3
:101DA000FFF73CFFA5E700BF50040020F8B5FFF7A0
:101DB000CDFCFFF7FDFCFFF719FDFFF745FD00F037
:101DC00035F800F067F8FFF747F9FFF741FFFFF735
:101DD00081F911E00120FFF77FFF4FF47A6000F0F6
:101DE00045F830463946FFF7D3FB0220FFF774FF72
:101DF0004FF47A6000F03AF800F082F804460D469D
:101E000000F0BAF806460F4620462946FFF7C0FB09
:101E10000022054B20462946FEF736FE0028D9D180
:101E20000320FFF759FFD8E7000038400C4B1B6830
:101E30000C4AA2FB03239B09013BB3F1807F0DD227
:101E40004FF0E0225361084BF02183F8231000216A
:101E500091610720106183F823107047FEE700BFEF
:101E600000000020D34D621000ED00E0034B18602D
:101E7000024B1B68002BFBD1704700BF740400208D
:101E8000034B1B681BB1024A1368013B1360704788
:101E90007404002038B50024032C11D804F1440543
:101EA0006D00EDB229461348FFF7ECFC10B9013480
:101EB000E4B2F1E7104B0F4A5A601D7201221A700A
:101EC0000D4B1B78012B14D00024032C11D804F1E6
:101ED00044056D00EDB229460848FFF7D3FC10B960
:101EE0000134E4B2F1E7044B044A5A601D72012246
:101EF0001A7038BD005400406804002000580040AB
:101F000000B58BB00D23059300220692079208922C
:101F100009921748962202920622019205AA00927F
:101F20002C22017A4068FFF785FD9DF814009DF88A
:101F3000153003EB0020FEF79DFA09A3D3E9002337
:101F4000FEF712FB08A3D3E90023FEF737FC0022BB
:101F5000084BFEF751F90BB05DF804FBAFF30080BE
:101F60000000000000E0654000000000E0FFEF40DE
:101F7000680400200080464000B58BB00D23059317
:101F80000022069207920892099213489622029222
:101F90000622019205AA00922C22017A4068FFF7DE
:101FA00049FD9DF817009DF8183003EB0020FEF75F
:101FB00061FA0022094BFEF7D7FA05A3D3E9002303
:101FC000FEF7FCFB0BB05DF804FB00BFAFF3008035
:101FD00000000000E0FFEF406804002000005940CE
:101FE00008B50222002100F0D3F808BD10B5044660
:101FF0000846FEF74FFA02460B460020084900F05B
:1020000053F9FEF74BFD94FBF0F0064A82FB0032D9
:10201000C317C3EBA20303EB8303A0EB430010BD84
:102020000000244067666666002103E00A4B5B58A7
:102030004350043109480A4B42189A42F6D3094AE0
:1020400002E0002342F8043B074B9A42F9D3FEF723
:10205000AFFFFFF7ABFE70474033000800000020E1
:1020600034040020340400207C040020FEE700003B
:102070002DE9F04F814645488E4675461EF801CB46
:1020800010F80C4014F00804F7D1BCF12D0FE34612
:1020900054D0BCF12B0F08BF9EF800B06FF0004881
:1020A00008BF05F1020E1BB1102B4FD01F4604E0F4
:1020B000BBF1300F55D00A231F460025B8FBF7F6B9
:1020C000284607FB168A07E0864215D329D007FB6E
:1020D00000C001251EF801BBABF1300CBCF1090FAB
:1020E00006D9ABF1410CBCF1190F08D8ABF1370C94
:1020F00063450DDD002DE7DA4FF0FF35EAE7ABF180
:10210000610CBCF1190F03D8ABF1570C6345F1DC3E
:10211000002D0BDB04B140420AB195BB1160BDE854
:10212000F08FE245D3DA4FF0FF35D3E72223C9F829
:1021300000301AB30EF1FF314046EFE79EF800B0D1
:102140004FF0004805F1020E0124ACE7BBF1300F5F
:10215000ACD19EF8000000F0DF00582807D01F46E1
:10216000ABE79EF8003003F0DF03582B0BD11027AC
:102170009EF801B03B460EF1020E9EE74046BDE8D8
:10218000F08F8046D6E708231F4696E731320008D5
:10219000012A09D0242A134606D8074A8446106823
:1021A0000A466146FFF764BF10B500F017F8162322
:1021B0000360002010BD00BF04000020024B13B1DB
:1021C000024800F005B8704700000000E92100084F
:1021D000002301461A46184600F020B8014B186843
:1021E000704700BF0400002038B5084B084D5B1B4A
:1021F0009C1007D0043B1D44013C55F80439984716
:10220000002CF9D1BDE8384000F0AABF40330008E7
:102210003C330008704700BF704700BF2DE9F0470E
:10222000DFF87CA00646DAF8000098460F46914693
:10223000FFF7F0FF1B4B1B68D3F8484124B36568D8
:102240001F2D26DC5EB96B1C0235DAF800006360D6
:1022500044F82570FFF7E0FF0020BDE8F08704EBAD
:1022600085010123C1F88890D4F88821AB401A4336
:10227000022EC4F88821C1F80881E4D1D4F88C2159
:102280001343C4F88C31DEE703F5A674C3F8484164
:10229000D5E7DAF80000FFF7BFFF4FF0FF30DCE7CB
:1022A000300400202C3200082DE9F84314461D4666
:1022B0008046894600F068F8224606460F462B46BF
:1022C00020462946FEF712FC78B90022002340463A
:1022D0004946FEF7B1FBD8B100220023204629462B
:1022E000FEF7AAFB28B1264F002630463946BDE846
:1022F000F8832046294600F0ADFE0028F5D02046A0
:10230000294600220023FEF7A1FB0028EDD02CE097
:102310003046394600F09EFEA0B100220023304630
:102320003946FEF789FB0028DFD04046494600F0D9
:1023300091FE0028D9D02046294600F08BFE0028C7
:10234000D3D012E04046494600F084FE0028E4D095
:102350002046294600F07EFE0028DED032463B466D
:1023600030463946FEF7C2FB20B9FFF737FF22237C
:102370000360BAE7FFF732FF21230360B5E700BF30
:102380000000F03F000000002DE9F04F23F0004B6B
:1023900088465BEA020193B014461D46074611D1F8
:1023A000031888F4002275485241994270EB0203E9
:1023B00020D23846414622462B46FDF71FFF13B078
:1023C000BDE8F08F10466E4A28F0004991459A46C4
:1023D00046463B4615DD06F1404606F580161E438F
:1023E000E7D12319654985F4002252419E4271EBE1
:1023F0000203DED3634C00231846214613B0BDE828
:10240000F08F3ED05E4A9345E5DC00F08880002ED8
:1024100069DB0022009278B9594A934500F0838025
:10242000584A934500F09780BAF1804F00F09584A8
:10243000554A924500F0B58338464146029300F074
:1024400005FE029B4BB3009AF30F013B0A93134323
:1024500000F088804D4B9B4540F39E8003F1047350
:102460009B454B4B40F30C84994540F38684BAF16D
:10247000000F40F38684002013B0BDE8F04F00F059
:10248000DFBD002F95D1BDE738464146009300F0EF
:10249000DDFD009B002B65D10093B9F1000F04D046
:1024A000384B26F040429A42CDD1BAF1000F05DAFE
:1024B00002460B4600203349FEF780F9002EBFF696
:1024C0007EAF009B09F1404909F5801959EA0303E1
:1024D00040F0678402460B46FDF78EFE02460B462F
:1024E000FEF76CF96BE72B4A93452EDCA2F1547290
:1024F00093450FDD4FEA2B52A2F2FF32142A40F32C
:102500004284C2F1340220FA02F101FA02F282425C
:1025100000F0708400220092002881D08CE700280F
:102520003FF475AF57E709F1404202F580121343BB
:102530003FF460AF164B994540F36783BAF1000F43
:10254000C0F25D832046294639E702220092002826
:102550003FF462AF70E7BAF1000FC0F2F68338467D
:1025600041462CE73A46434638464146FDF744FE8D
:1025700002460B46FEF722F921E700BF0000F0FFFC
:102580000000F07F0000F03F0000E03F0000E0416D
:10259000FFFFEF3FFFFF3F43D54B334000222BB9F6
:1025A000D44BFDF7E1FF6FF0340289464FEA29531F
:1025B000A3F2FF339A18D04B0B92C9F3130949F0D9
:1025C0007F56994546F4401607DDCC4B994540F3BC
:1025D000F18301320B92A6F5801600220023CDE98B
:1025E0000823CDE91023C64B0022CDE9062300279E
:1025F000DDE9062331468246FDF7FEFDB346DDE9FF
:1026000006238046894650463146CDE90CABFDF79E
:10261000F5FD02460B460020B949FEF7CFF80A4601
:102620000146CDE90E121346494602464046FDF7E3
:102630009BFF0A4683469446CDE902BC4FF0000C4E
:10264000CDF808C07610DDE902AB46F00056014631
:1026500006F50023CDE904120020D91906460F46DD
:1026600002460B4650465946FDF77EFF02460B4692
:1026700040464946FDF7C0FDDDE906238046894610
:1026800030463946FDF7B8FD02460B46DDE90C0140
:10269000FDF7B2FD52465B46FDF766FF02460B466C
:1026A00040464946FDF7A8FDDDE90E23FDF75CFF36
:1026B000DDE90467CDE9060132463B46304639463E
:1026C000FDF752FF78A3D3E9002306460F46FDF736
:1026D0004BFF77A3D3E90023FDF790FD32463B463D
:1026E000FDF742FF74A3D3E90023FDF787FD3246CF
:1026F0003B46FDF739FF72A3D3E90023FDF77EFDCA
:1027000032463B46FDF730FF6FA3D3E90023FDF7C8
:1027100075FD32463B46FDF727FF6DA3D3E9002345
:10272000FDF76CFD3246804689463B4630463946C9
:10273000FDF71AFF02460B4640464946FDF714FFD7
:10274000524606460F465B46DDE90401FDF756FD9D
:10275000DDE90623FDF708FF32463B46FDF74EFD57
:102760005246804689465B4650465946FDF7FCFE78
:1027700002460B46CDE90C23624B0022FDF73EFDDD
:1027800042464B46FDF73AFD00260F4632463B4691
:1027900050465946FDF7E8FE5A4B82468B460022CA
:1027A00030463946FDF728FDDDE90C23FDF724FD11
:1027B00002460B4640464946FDF71EFDDDE904236F
:1027C000FDF7D2FE3246804689463B46DDE90601EA
:1027D000FDF7CAFE02460B4640464946FDF70EFD90
:1027E0008046894602460B4650465946FDF706FD8F
:1027F000002639A3D3E9002330460F46FDF7B4FE87
:1028000052465B4682468B4630463946FDF7F4FC1D
:1028100002460B4640464946FDF7EEFC30A3D3E99D
:102820000023FDF7A1FE30A3D3E9002380468946AB
:1028300030463946FDF798FE02460B46404649466B
:10284000FDF7DCFCDDE91023FDF7D8FC80460B9892
:102850008946FDF71FFE424606460F464B46504648
:102860005946CDE904ABFDF7C9FCDDE90823FDF7C6
:10287000C5FC32463B46FDF7C1FC4FF0000A32462C
:102880003B4650468B46FDF7B7FCDDE90823FDF7D4
:10289000B3FCDDE90423FDF7AFFC02460B464046DE
:1028A0004946FDF7A9FC2FE0EF4E454A287ECA3F76
:1028B00065DBC9934A86CD3F01411DA96074D13FB4
:1028C0004D268F515555D53FFFAB6FDBB66DDB3FC6
:1028D000033333333333E33F000000E009C7EE3FF7
:1028E000FD033ADC09C7EE3FF5015B14E02F3EBE65
:1028F0000000F07F000040438E98030079B60B0083
:102900000000F03F00000840CDE90201009B0A9A58
:10291000013B13430CBFD44BD44B0022CDE904231D
:102920000023CDE900450093DDE9008920464246B9
:102930004B462946FDF760FC52465B46FDF714FE08
:10294000224606460F462B46DDE90201FDF70CFE46
:1029500002460B4630463946FDF750FC42464B4690
:1029600006460F4650465946FDF7FEFD0B46024609
:1029700004460D4630463946FDF740FCBC4B9942B3
:10298000804689468A4640F3168101F13F4303F5AC
:10299000E003034340F02382A1A3D3E900233046A0
:1029A0003946FDF72BFC2246CDE900012B46404677
:1029B0004946FDF721FC02460B46DDE90001FEF722
:1029C00063F8002840F00B82CAF30A534FF48012D8
:1029D000A3F2FE3342FA03F35344A649C3F30A5267
:1029E000A2F2FF3241FA02FCC3F31301C2F1140256
:1029F00041F4801141FA02FE002023EA0C01BAF1F1
:102A0000000FCDF808E002460B4602DA7146494253
:102A1000029120462946FDF7EFFB029B1B05009320
:102A200002460B4604460D4630463946FDF7E6FBA6
:102A300089464FF000087CA3D3E90023404649466D
:102A4000FDF792FD224682468B462B46404649467C
:102A5000FDF7D2FB02460B4630463946FDF7CCFB6C
:102A600073A3D3E90023FDF77FFD73A3D3E900230C
:102A700004460D4640464946FDF776FD02460B46A4
:102A800020462946FDF7BAFB06460F4602460B468E
:102A900050465946FDF7B2FB52465B4604460D468A
:102AA000FDF7AAFB02460B4630463946FDF7A4FB6C
:102AB000224682468B462B4620462946FDF754FD8A
:102AC0005FA3D3E9002306460F46FDF74DFD5EA345
:102AD000D3E90023FDF790FB32463B46FDF744FD6A
:102AE0005BA3D3E90023FDF789FB32463B46FDF7A4
:102AF0003BFD59A3D3E90023FDF77EFB32463B465D
:102B0000FDF732FD56A3D3E90023FDF777FB3246EC
:102B10003B46FDF729FD02460B4620462946FDF7B8
:102B20006BFB06460F4602460B4620462946FDF73C
:102B30001BFD002280468946304639464FF08043CF
:102B4000FDF75AFB02460B4640464946FDF736FE66
:102B5000524606460F465B4620462946FDF704FDD1
:102B600052465B46FDF74AFB02460B463046394665
:102B7000FDF742FB22462B46FDF73EFB02460B4685
:102B800000203A49FDF738FB009D0C462C44B4F573
:102B9000801FC0F220812146DDE90423FDF7E4FC1B
:102BA0000DE4002EFFF648AC3846414613B0BDE8B0
:102BB000F04F00F055B9DFF8C0C021F00043634585
:102BC00040F3D3802D4B0B4403430AD122462B46BE
:102BD000FDF712FB32463B46FDF74CFF00283FF461
:102BE000F3AEDDE9040100220023FDF72FFF0038DA
:102BF00018BF012013B0BDE8F04F00F01BBA00234E
:102C0000002418462146FFF7DABBBAF1000FF6DAC6
:102C100005F1004320461946FFF7D1BBAFF3008012
:102C2000FE822B654715973C00000000432EE63FCF
:102C3000EF39FAFE422EE63F396CA80C615C20BEEB
:102C4000D0A4BE726937663EF16BD2C541BDBB3EB2
:102C50002CDE25AF6A56113F93BDBE166CC1663F90
:102C60003E5555555555C53F0000F0BF0000F03F9B
:102C7000FFFF8F40FFFF0F00FFCB904000346F3FFE
:102C800099457ADB724B99453FF7F1AB704B0022C7
:102C9000FDF7B2FA62A3D3E9002306460F46FDF71B
:102CA00063FC61A3D3E90023804689463046394658
:102CB000FDF75AFC674B82468B4600223046394668
:102CC000FDF752FC02460B4659A1D1E90001FDF780
:102CD00093FA32463B46FDF747FC02460B4600207E
:102CE0005D49FDF789FA3246CDE902013B4630469F
:102CF0003946FDF739FC02460B46DDE90201FDF7D6
:102D000033FC4DA3D3E90023FDF72EFC02460B460E
:102D100050465946FDF770FA02460B4606460F46E6
:102D200040464946FDF76AFA4FF0000A42464B46D4
:102D300050468B46FDF760FA02460B463046394650
:102D4000FDF75AFACDE90201E0E53A46434640492B
:102D50000020FDF733FDFFF732BB3A4638464346C5
:102D60004146FDF701FCFFF72ABB3B4A934252DC88
:102D7000DDE90023009202925BE6BAF1000FFFF654
:102D80007AAB002036E700287FF47EABC2F1140254
:102D90004BFA02F101FA02F25A4535D00090FFF7E2
:102DA0003FBB009B012B7FF40AAB01F100431946A6
:102DB000FFF705BB22A3D3E90023CDE9082322A313
:102DC000D3E90023CDE91023244B0022CDE90623CB
:102DD0004FF480270CE4029A00F042F9DCE6DDE9CA
:102DE000040100220023FDF731FE003818BF012046
:102DF000FFF742BB01F00101C1F10202009200287D
:102E00003FF40EABFFF718BB01F00101C1F1020264
:102E10000092FFF705BB1B15D8E500BFAFF300809C
:102E2000000000604715F73F44DF5DF80BAE543EED
:102E3000555555555555D53FFE822B654715F73FDE
:102E40000000004003B8E23F06D0CF43EBFD4C3E0C
:102E50000000F03F0000D03F0000E03F0000F83FDE
:102E6000614A8A432DE9F84305460C4600F09E80EE
:102E700000290B46844654DD091562D0C3F31303C1
:102E8000C807A1F2FF3743F4801304D45B0003EBBF
:102E9000DC734FEA4C0C4FEADC72002602EB430372
:102EA0007F104FEA4C0C4FF0160E34464FF40012D0
:102EB000A118994202DC5B1A8C1816445B00BEF123
:102EC000010E03EBDC734FEA52024FEA4C0CEFD1D8
:102ED000754620204FF000420AE043D04FEADC71F3
:102EE000013801EB43034FEA4C0C4FEA520242D047
:102EF000A34202EB0E01F0DD002901EB020E0ADB1A
:102F0000A0461B1B614588BF03F1FF33ACEB010CEE
:102F100015444446E2E7BEF1000FF1DB04F101087D
:102F2000EFE721F00042024336D000294CD14FEAAE
:102F3000DC22153913464FEA4C5C002AF7D0D60242
:102F40004CD400205B00DD02044600F10100F9D5FD
:102F50001A4663460CFA00FCC0F12000C340091B6E
:102F600013438BE76145B9D8002901EB020ED2DB90
:102F700098460023CAE753EA0C0311D1680873107E
:102F800003F17F5303F50013F20748BF40F0004000
:102F900003EB075905464C4628462146BDE8F88311
:102FA000691C16BF681C01364008E8E702460B465C
:102FB000FDF7DAFA2A462346FDF720F905460C46C6
:102FC00028462146BDE8F8830246FDF715F902467A
:102FD0000B46FDF7F3FB05460C46DDE76346202074
:102FE0004FF0FF34BAE700BF0000F07FD0B50646CF
:102FF0000F461446FFF7F2F80346394630461C6088
:10300000D0BD00BF30B583B080B1144603F1004598
:10301000CDE9004510461946DDE90023FDF7A4FA85
:10302000222203B0BDE83040FFF7E0BF14461D4642
:10303000EEE700BF00224FF08053FFF7E3BF00BF71
:1030400000224FF0E043FFF7DDBF00BF21F0004159
:10305000704700BF41F0004000F58010C00F70477E
:10306000C1F30A5370B58C4604460D4616467BBB29
:1030700021F0004C03465CEA030328D0304B0022C9
:10308000FDF772FA2F4B9E4204460D461ADBC1F340
:103090000A538C46363B334440F2FE72934220DCA6
:1030A000002B3CDC13F1350F2CDA4CF250339E42EE
:1030B00017DC05F0004343F0D27141F4B7312248E8
:1030C00041F01F011AA3D3E90023FDF74DFA70BDAB
:1030D00040F2FF729342DED102460B46FDF78EF8B6
:1030E00070BD05F0004343F0FC4141F45F1141F431
:1030F000105111A3D3E90023144841F03C01FDF71E
:1031000033FA70BD2CF0FF4C36332CF4E00C4CEA53
:10311000035120460E4B0022FDF726FA70BD2CF01D
:10312000FF4C2CF4E00C20464CEA035170BD00BF6C
:1031300059F3F8C21F6EA5019C7500883CE4377EE8
:1031400000005043B03CFFFF59F3F8C29C75008863
:103150000000903CF8B500BFF8BC08BC9E46704724
:0C316000F8B500BFF8BC08BC9E467047E4
:10316C00000000000000000001020304060708092B
:10317C0000000000010203043131313131303030B4
:10318C0000000000303030303030303100000000B2
:10319C0030303131303030300000000030303030E1
:1031AC0030303030000000003131303131303030CF
:1031BC000000000030303030303031300000000082
:1031CC0030313131313030300000000030303030AF
:1031DC00303031310000000030313130313030309E
:1031EC00000000003131313031303030000000004F
:1031FC003030313131303030000000003030303080
:10320C00303130300000000030303030303131306F
:10321C00000000003030303030313131000000001F
:10322C0008000020002020202020202020202828FA
:10323C00282828202020202020202020202020206A
:10324C0020202020208810101010101010101010AA
:10325C0010101010100404040404040404040410DA
:10326C001010101010104141414141410101010168
:10327C000101010101010101010101010101010132
:10328C00101010101010424242424242020202023E
:10329C000202020202020202020202020202020202
:1032AC0010101010200000000000000000000000B2
:1032BC000000000000000000000000000000000002
:1032CC0000000000000000000000000000000000F2
:1032DC0000000000000000000000000000000000E2
:1032EC0000000000000000000000000000000000D2
:1032FC0000000000000000000000000000000000C2
:10330C0000000000000000000000000000000000B1
:10331C0000000000000000000000000000000000A1
:08332C00000000000000000099
:08333400BD210008D5010008CD
:04333C00B1010008D3
:1033400000C2EB0B0800002000000000F402002087
:103350005C030020C4030020000000000000000007
:10336000000000000000000000000000000000005D
:10337000000000000000000000000000000000004D
:10338000000000000000000000000000000000003D
:10339000000000000000000000000000000000002D
:1033A000000000000000000000000000000000001D
:1033B000000000000000000000000000000000000D
:1033C00000000000000000000000000000000000FD
:1033D00000000000000000000000000000000000ED
:1033E00000000000000000000000000000000000DD
:1033F00001000000000000000E33CDAB34126DE67A
:10340000ECDE05000B0000000000000000000000E2
:1034100000000000000000000000000000000000AC
:10342000000000000000000000000000000000009C
:10343000000000000000000000000000000000008C
:10344000000000000000000000000000000000007C
:0437700078040020B9
:0400000508002029A6
:00000001FF
