:020000040800F2
:100000000000032069150008610D0008630D000859
:10001000650D0008670D0008690D0008000000006C
:100020000000000000000000000000006B0D000850
:100030006D0D0008000000006F0D0008710D000834
:10004000AD150008AD150008AD150008AD15000888
:10005000AD150008AD150008AD150008AD15000878
:10006000AD150008AD150008AD150008AD15000868
:10007000AD150008AD150008AD150008AD15000858
:10008000AD150008AD150008AD150008AD15000848
:10009000AD150008AD150008AD150008AD15000838
:1000A000AD150008AD150008AD150008AD15000828
:1000B000AD150008AD150008AD150008AD15000818
:1000C000AD150008AD150008AD150008AD15000808
:1000D000AD15000800000000AD150008AD150008C2
:1000E000AD150008AD150008AD150008AD150008E8
:1000F000AD150008AD150008AD150008AD150008D8
:10010000AD150008AD150008AD150008AD150008C7
:10011000AD150008AD150008AD150008AD150008B7
:10012000AD150008AD150008AD150008AD150008A7
:10013000AD150008AD150008AD150008AD15000897
:10014000AD150008AD150008AD150008AD15000887
:10015000AD150008AD150008AD150008AD15000877
:10016000AD150008AD150008AD150008AD15000867
:10017000AD150008AD150008AD1500080000000021
:10018000AD150008AD150008AD150008AD15000847
:10019000AD150008AD150008AD1500080000000001
:0C01A000AD150008AD150008AD150008F5
:1001AC0010B5054C237833B9044B13B10448AFF3A5
:1001BC0000800123237010BD3404002000000000D7
:1001CC00E817000808B5034B1BB103490348AFF30C
:1001DC00008008BD0000000038040020E81700086B
:1001EC00F0B50568C6684FF0000C03E00CF1010C8B
:1001FC001FFA8CFCBCF10F0F18D84FF0010E0EFA41
:10020C000CFE1EEA030FF1D04FEA4C044FF0030E24
:10021C000EFA04FE25EA0E0501FA04F73D4326EA20
:10022C000E0E02FA04F444EA0E06DFE70560C6601F
:10023C00F0BD10B5012906D0416821EA03014160E7
:10024C008468002105E0416819434160F8E70131F9
:10025C0089B20F2913D84FF0010C0CFA01FC1CEADF
:10026C00030FF4D04FEA410C4FF0030E0EFA0CFEC4
:10027C0024EA0E0402FA0CFC4CEA0404E7E784605E
:10028C0010BD30B5046A456A002301E001339BB20E
:10029C00072B13D84FF0010C0CFA03FC1CEA020FCD
:1002AC00F4D04FEA830E4FF00F0C0CFA0EFC24EA3C
:1002BC000C0401FA0EFE4EEA0404E7E7082301E001
:1002CC0001339BB20F2B15D84FF0010C0CFA03FC29
:1002DC001CEA020FF4D0A3F1080C4FEA8C0C4FF07F
:1002EC000F0E0EFA0CFE25EA0E0501FA0CFC4CEA78
:1002FC000505E5E70462456230BD000070B50546B2
:10030C000C461646022000F0CBF82C4BA3FB002326
:10031C009B0C2B4A904219D21A46696821F03F0176
:10032C001143696027498C4219D801333B2B0FD9F3
:10033C003C232B626400B0FBF4F0032800D80420AB
:10034C00EC69C0F30B002043E86170BD3C22E4E78C
:10035C00022B02D802232B62ECE72B62EAE71A4B42
:10036C009C42F2D84FF4967302FB03F3174AA2FB9C
:10037C0003239B0901332B62A6B904EB4404B0FBA5
:10038C00F4F0EB6923F48043EB61C0F30B030BB97E
:10039C0040F00100EB6943F40043EB61EC6920434E
:1003AC00E861D2E704EB840404EB8404B0FBF4F0C2
:1003BC00EB6943F48043EB61E7E700BF83DE1B434B
:1003CC0000879303A0860100801A0600D34D6210AB
:1003DC0010B4046824F0020C4CEA01010160C3F370
:1003EC0009031343836010BC7047036823F48063D4
:1003FC000B4303607047036823F400630B430360F3
:10040C00704712F1020F03D041F0010101617047F6
:10041C0021F00101FAE7036843F001030360704720
:10042C00036843F4807303607047036843F40073FC
:10043C0003607047016170470069C0B270478B0957
:10044C001B5801F01F0123FA01F111F0010F01D02B
:10045C00012070470020704740F2015399420DD0A3
:10046C004FEA911C5CF8003001F01F01012202FAE6
:10047C0001F123EA01014CF80010704743698369CC
:10048C007047830903F1804303F50E331A6800F0BB
:10049C001F00012101FA00F01043186070470000A2
:1004AC0010B588B08446344C94E80F000DF1200E42
:1004BC000EE90F0002AB103494E8030083E803004C
:1004CC006B4683E803002D4BD3F80838C3F3810344
:1004DC00012B1FD0022B1FD1284AD2F8044804F05C
:1004EC003F04D2F80418C1F38811D2F80408C0F301
:1004FC00014001304300D2F8042812F4800F07D0D9
:10050C001F48B0FBF4F001FB00F0B0FBF3F004E08B
:10051C001C48F6E71A4800E01A481849D1F8083880
:10052C00C3F3031320336B4413F8102C20FA02F29C
:10053C00D1F80838C3F3822320336B4413F8183CEA
:10054C0022FA03F4D1F80838C3F3423320336B4456
:10055C0013F8203C22FA03F3BCF1030F03D8DFE8B5
:10056C000CF005040709002000E0104608B010BD8F
:10057C002046FBE71846F9E7001800080030024057
:10058C0040787D010024F400364AD2F8003843F458
:10059C008033C2F8003800230133324AD2F80028E5
:1005AC0012F4003F03D14FF6FF729342F4D12D4B5E
:1005BC00D3F8003813F4003F00D1FEE7294BD3F8F1
:1005CC00402842F08052C3F8402827490A6842F478
:1005DC0040420A60D3F80828C3F80828D3F8082842
:1005EC0042F40042C3F80828D3F8082842F4A05279
:1005FC00C3F808281D4AC3F80428D3F8002842F091
:10060C008072C3F80028174BD3F8003813F0007F22
:10061C00F9D0154A136843F480331360124B5B68AE
:10062C0013F4803FFAD0104A136843F4003313607C
:10063C000D4B5B6813F4003FFAD00A4BD3F8082833
:10064C0022F00302C3F80828D3F8082842F002026B
:10065C00C3F80828034BD3F8083813F0080FF9D067
:10066C00704700BF00300240007000401964400920
:10067C0008B5FFF789FF08BD00B583B0264BD3F84A
:10068C00002842F00102C3F80028D3F8082842F0F1
:10069C008002C3F808280023019302E0019B013378
:1006AC000193019A4CF24F339A42F7D91A4AD2F875
:1006BC00083843F09003C2F808380023019302E095
:1006CC00019B01330193019A4CF24F339A42F7D9B3
:1006DC00114BD3F8082822F00302C3F80828D3F8EA
:1006EC00002822F0847222F48032C3F80028D3F858
:1006FC00002822F48022C3F800280022C3F808281E
:10070C00D3F808180549C3F80418C3F80C28FFF7E8
:10071C00AFFF03B05DF804FB003002401030002442
:10072C0038B50024032C11D804F11C056D00EDB272
:10073C002946134800F0B6FB10B90134E4B2F1E7D6
:10074C00104B0F4A5A601D7201221A700D4B1B7808
:10075C00012B14D00024032C11D804F11C056D00BE
:10076C00EDB22946084800F09DFB10B90134E4B203
:10077C00F1E7044B044A5A601D7201221A7038BD0D
:10078C00005400405C0400200058004008B50548A7
:10079C0000230322017A406800F005FCC82000F019
:1007AC00C3FE08BD5C04002008B5054800230322E5
:1007BC00017A406800F0F7FBC82000F0B5FE08BDD8
:1007CC005C04002038B50025032D10DC05F1700405
:1007DC006400E4B22146174800F064FB08B9013507
:1007EC00F2E7154B134A5A601C7201221A70124B15
:1007FC001B78012B13D00025032D10DC05F17004A0
:10080C006400E4B221460D4800F04CFB08B90135F8
:10081C00F2E7094B094A5A601C7201221A70064B06
:10082C001B7803B938BD044B2122197A586800F0A3
:10083C006FFBF7E7005400406804002000580040AC
:10084C002DE9F8430138032803D8DFE800F00A0447
:10085C000608002406E0042404E0062402E0082430
:10086C0000E00224651C093114292ED8DFE811F0B0
:10087C00F601DD01C401AB0192015B0142012901CA
:10088C00100115002F00480061007A009300AC00A5
:10089C00C500DE00F7000F022802AF4E776896F80D
:1008AC000880AE4800F054FEC3B22246414638469A
:1008BC0000F079FB7468367AA94800F049FEC3B29F
:1008CC002A463146204600F06EFBBDE8F883A24E66
:1008DC00776896F80880A34800F03AFEC3B2224627
:1008EC004146384600F05FFB7468367A9E4800F04B
:1008FC002FFEC3B22A463146204600F054FBE4E7F3
:10090C00954E776896F80880984800F021FEC3B29F
:10091C0022464146384600F046FB7468367A9448C5
:10092C0000F016FEC3B22A463146204600F03BFBCF
:10093C00CBE7894E776896F808808E4800F008FE61
:10094C00C3B222464146384600F02DFB7468367A15
:10095C00874800F0FDFDC3B22A463146204600F020
:10096C0022FBB2E77C4E776896F808807D4800F051
:10097C00EFFDC3B222464146384600F014FB7468C2
:10098C00367A7D4800F0E4FDC3B22A463146204653
:10099C0000F009FB99E7704E776896F80880774865
:1009AC0000F0D6FDC3B222464146384600F0FBFAB1
:1009BC007468367A704800F0CBFDC3B22A463146D3
:1009CC00204600F0F0FA80E7634E776896F80880CE
:1009DC006B4800F0BDFDC3B222464146384600F0DC
:1009EC00E2FA7468367A644800F0B2FDC3B22A4663
:1009FC003146204600F0D7FA67E7574E776896F8ED
:100A0C000880604800F0A4FDC3B222464146384637
:100A1C0000F0C9FA7468367A534800F099FDC3B2F5
:100A2C002A463146204600F0BEFA4EE74A4E776819
:100A3C0096F80880494800F08BFDC3B22246414627
:100A4C00384600F0B0FA7468367A4B4800F080FDF6
:100A5C00C3B22A463146204600F0A5FA35E73E4E91
:100A6C00776896F80880434800F072FDC3B22246BE
:100A7C004146384600F097FA7468367A3E4800F0E2
:100A8C0067FDC3B22A463146204600F08CFA1CE7BB
:100A9C00314E776896F80880324800F059FDC3B2A1
:100AAC0022464146384600F07EFA7468367A36485B
:100ABC0000F04EFDC3B22A463146204600F073FAD0
:100ACC0003E7254E776896F80880284800F040FD2B
:100ADC00C3B222464146384600F065FA7468367A4D
:100AEC002A4800F035FDC3B22A463146204600F0B4
:100AFC005AFAEAE6184E776896F808801D4800F016
:100B0C0027FDC3B222464146384600F04CFA7468C1
:100B1C00367A1E4800F01CFDC3B22A4631462046E8
:100B2C0000F041FAD1E60C4E776896F808800D4833
:100B3C0000F00EFDC3B222464146384600F033FAAF
:100B4C007468367A124800F003FDC3B22A46314667
:100B5C00204600F028FAB8E66804002018180008AF
:100B6C0024180008301800083C1800084818000821
:100B7C0054180008601800086C1800087818000851
:100B8C0084180008901800089C180008A818000881
:100B9C00B4180008584E776896F80880574800F04B
:100BAC00D7FCC3B222464146384600F0FCF97468C3
:100BBC00367A534800F0CCFCC3B22A463146204664
:100BCC0000F0F1F981E64C4E776896F808804D48B4
:100BDC0000F0BEFCC3B222464146384600F0E3F9B1
:100BEC007468367A464800F0B3FCC3B22A463146E4
:100BFC00204600F0D8F968E63F4E776896F80880F2
:100C0C00414800F0A5FCC3B222464146384600F0EC
:100C1C00CAF97468367A3D4800F09AFCC3B22A4689
:100C2C003146204600F0BFF94FE6334E776896F810
:100C3C000880374800F08CFCC3B222464146384647
:100C4C0000F0B1F97468367A2D4800F081FCC3B21B
:100C5C002A463146204600F0A6F936E6264E77683D
:100C6C0096F808802B4800F073FCC3B2224641462C
:100C7C00384600F098F97468367A214800F068FC20
:100C8C00C3B22A463146204600F08DF91DE61A4EB5
:100C9C00776896F808801E4800F05AFCC3B22246CA
:100CAC004146384600F07FF97468367A1A4800F0ED
:100CBC004FFCC3B22A463146204600F074F904E6D4
:100CCC000D4ED6F8048096F80890144F384600F074
:100CDC003FFCC3B222464946404600F064F97468B2
:100CEC00367A384600F034FCC3B22A4631462046E8
:100CFC0000F059F9E9E500BF6804002078180008F5
:100D0C00B418000884180008901800089C180008F3
:100D1C0018180008601800086C1800083C18000827
:100D2C0008B50B210120FFF78BFD0B210220FFF7EB
:100D3C0087FD0B210320FFF783FD0B210420FFF718
:100D4C007FFD034B8022197A586800F0E1F808BD4A
:100D5C00680400207047FEE7FEE7FEE7FEE77047F9
:100D6C007047704708B500F0E9FB08BD10B540F6B8
:100D7C000140FFF786FB154C4FF48072042120468E
:100D8C00FFF77FFA4FF4007204212046FFF779FA3F
:100D9C004FF48073012202212046FFF721FA4FF411
:100DAC008073022201212046FFF743FA4FF40073AF
:100DBC00012202212046FFF713FA4FF4007302229E
:100DCC0001212046FFF735FA10BD00BF0004024098
:100DDC0010B541F21500FFF754FB0A4C00220A49EA
:100DEC002046FFF78BFAA023002211462046FFF77E
:100DFC00EFFA2046FFF70FFB4FF480612046FFF718
:100E0C00F4FA10BD00540040A086010010B540F665
:100E1C000540FFF736FB124C022204212046FFF757
:100E2C0030FA012204212046FFF72BFA01231A463F
:100E3C0002212046FFF7D4F9012302221946094862
:100E4C00FFF7F7F90223012219462046FFF7C8F9EC
:100E5C0002231A4601212046FFF7EBF910BD00BF13
:100E6C0000140240000C024010B541F21600FFF7CE
:100E7C0008FB0A4C00220A492046FFF73FFAA02340
:100E8C00002211462046FFF7A3FA2046FFF7C3FACB
:100E9C004FF480612046FFF7A8FA10BD00580040BF
:100EAC00A086010070B505460C4640F2016128464B
:100EBC00FFF7C5FA06460028F7D12846FFF7B0FA27
:100ECC004FF4A0612846FFF7BAFA0028F8D06FF06B
:100EDC00010221462846FFF794FA002440F2015102
:100EEC002846FFF7ACFA28B90134A4B24EF66023B9
:100EFC009C42F3D94EF660239C4200D8012628462A
:100F0C00FFF793FA2B6813F4007FFBD1304670BDCA
:100F1C0070B505460C46164640F201612846FFF7AF
:100F2C008EFA0028F8D12846FFF77AFA4FF4A06120
:100F3C002846FFF784FA0028F8D06FF0010221460A
:100F4C002846FFF75EFA002440F201512846FFF7CD
:100F5C0076FA48B90134A4B24EF660239C42F3D918
:100F6C002846FFF762FA1DE040F201512846FFF7D0
:100F7C0073FA40F207512846FFF761FA0128F8D1BD
:100F8C0031462846FFF756FA40F202512846FFF741
:100F9C0056FA0028F8D02846FFF747FA2B6813F4C6
:100FAC00007FFBD170BDF8B505460C4617461E46B2
:100FBC0040F201612846FFF742FA0028F8D1284692
:100FCC00FFF72EFA4FF4A0612846FFF738FA0028F5
:100FDC00F8D06FF0010221462846FFF712FA0024E0
:100FEC0040F201512846FFF72AFA48B90134A4B25D
:100FFC004EF660208442F3D92846FFF716FA28E013
:10100C0040F201512846FFF727FA40F207512846D3
:10101C00FFF715FA0128F8D139462846FFF70AFAE6
:10102C0040F202512846FFF70AFA0028F8D0314660
:10103C002846FFF7FFF940F202512846FFF7FFF967
:10104C000028F8D02846FFF7F0F92B6813F4007F3E
:10105C00FBD1F8BD2DE9F0470446894692469846E7
:10106C00BDF8206040F201612046FFF7E8F9002846
:10107C00F8D1022E21D02046FFF7D2F94FF4A0610F
:10108C002046FFF7DCF90028F8D06FF00102494642
:10109C002046FFF7B6F9002540F201512046FFF734
:1010AC00CEF9074678B90135ADB24EF660239D42B4
:1010BC00F2D92046FFF7B9F97FE04FF400612046E2
:1010CC00FFF799F9D7E740F201512046FFF7C4F931
:1010DC0040F207512046FFF7B2F907460128F7D135
:1010EC002046FFF798F951462046FFF7A3F940F246
:1010FC0002512046FFF7A3F90028F8D02046FFF74D
:10110C008FF94FF4A0612046FFF799F90028F8D029
:10111C00012249462046FFF774F9022E11D940F2FC
:10112C0001512046FFF78BF90028F8D040F201510D
:10113C002046FFF791F9012E1AD12046FFF775F9D9
:10114C0016E000212046FFF750F9E8E740F2025183
:10115C002046FFF774F90028F8D000212046FFF74D
:10116C0044F908E040F206512046FFF768F978B9D7
:10117C00B6B1032EEAD0022EF4D140F20251204631
:10118C00FFF75DF90028F8D02046FFF74EF9E9E7A4
:10119C002046FFF751F908F8010B013EB6B2E7E71C
:1011AC00236813F4007FFBD14FF480612046FFF7D6
:1011BC001CF900212046FFF71EF93846BDE8F087E0
:1011CC00006801280AD0022808D0042803D0082877
:1011DC0003D00020704703207047042070470000A4
:1011EC0038B50025032D10DC05F174046400E4B25D
:1011FC0021461748FFF756FE08B90135F2E7154BA3
:10120C00134A5A601C7201221A70124B1B78012B64
:10121C0013D00025032D10DC05F174046400E4B236
:10122C0021460D48FFF73EFE08B90135F2E7094BA0
:10123C00094A5A601C7201221A70064B1B7803B9BA
:10124C0038BD044B2122197A5868FFF761FEF7E785
:10125C0000540040740400200058004000B589B0D0
:10126C000023029303930493059306930793084872
:10127C000623009302AB4022017A4068FFF7EAFE96
:10128C0002A8FFF79DFFC0B209B05DF804FB00BFD8
:10129C00740400202DE9F84306460F46144699467F
:1012AC00BDF820809500EDB2AA1DDBB202F0FE0263
:1012BC00FFF779FEEA1D4FEA1923D2B239463046C0
:1012CC00FFF771FEA21C92005FFA88F302F0FC0299
:1012DC0039463046FFF767FE05F109024FEA18233D
:1012EC00D2B239463046FFF75EFEBDE8F88338B51A
:1012FC0004460D460023FA22FFF755FE0023FB227D
:10130C0029462046FFF74FFE0023FC2229462046A3
:10131C00FFF749FE0023FD2229462046FFF743FE36
:10132C0038BD000038B50025032D10DC05F1600434
:10133C006400E4B221461A48FFF7B4FD08B9013540
:10134C00F2E7184B164A5A601C7201221A70154BA0
:10135C001B78012B13D00025032D10DC05F1600444
:10136C006400E4B221461048FFF79CFD08B9013532
:10137C00F2E70C4B0C4A5A601C7201221A70094B92
:10138C001B7803B938BD074C00231A46217A6068D4
:10139C00FFF709FE217A6068FFF7A9FFF2E700BFAB
:1013AC0000540040500400200058004030B583B079
:1013BC0003285CD8DFE800F0020924402F4B197A8F
:1013CC005868FFF794FF03B030BD2C4C10250095E6
:1013DC0000231A46217A6068FFF75CFF4FF44063E4
:1013EC00009340F299130122217A6068FFF752FFB3
:1013FC00009500230222217A6068FFF74BFFE2E799
:10140C001E4C4FF40065009540F299130022217A8E
:10141C006068FFF73FFF009540F299130122217A93
:10142C006068FFF737FF1023009300230222217A14
:10143C006068FFF72FFFC6E7104C102500950023BE
:10144C001A46217A6068FFF725FF009500230122D8
:10145C00217A6068FFF71EFF4FF44063009340F25F
:10146C0099130222217A6068FFF714FFABE7034B54
:10147C00197A5868FFF73BFFA5E700BF500400201E
:10148C0010B5FFF773FCFFF7A3FCFFF7BFFCFFF7EA
:10149C00EBFC00F029F8FFF7A3FEFFF793F9FFF739
:1014AC003FF9FFF73FFF01240BE074B9FFF76EF92A
:1014BC0001240120FFF77AFF142000F035F8FFF724
:1014CC002FFCFFF7CBFE0128EFD0022805D0002C13
:1014DC00EFD10220FFF76AFFEEE7002CF7D0FFF701
:1014EC0063F90024F5E700000C4B1B680C4AA2FBC7
:1014FC0003239B09013BB3F1807F0DD24FF0E02217
:10150C005361084BF02183F82310002191610720CF
:10151C00106183F823107047FEE700BF0000002025
:10152C00D34D621000ED00E0034B1860024B1B68BA
:10153C00002BFBD1704700BF80040020034B1B68BD
:10154C001BB1024A1368013B1360704780040020F2
:10155C0008B50222002100F0B5F808BD002103E017
:10156C000A4B5B584350043109480A4B42189A42C3
:10157C00F6D3094A02E0002342F8043B074B9A4297
:10158C00F9D3FFF779F8FFF77BFF7047D419000800
:10159C0000000020340400203404002088040020C3
:1015AC00FEE700002DE9F04F814645488E46754612
:1015BC001EF801CB10F80C4014F00804F7D1BCF164
:1015CC002D0FE34654D0BCF12B0F08BF9EF800B092
:1015DC006FF0004808BF05F1020E1BB1102B4FD065
:1015EC001F4604E0BBF1300F55D00A231F460025DF
:1015FC00B8FBF7F6284607FB168A07E0864215D398
:10160C0029D007FB00C001251EF801BBABF1300C43
:10161C00BCF1090F06D9ABF1410CBCF1190F08D87C
:10162C00ABF1370C63450DDD002DE7DA4FF0FF35DC
:10163C00EAE7ABF1610CBCF1190F03D8ABF1570C15
:10164C006345F1DC002D0BDB04B140420AB195BBC4
:10165C001160BDE8F08FE245D3DA4FF0FF35D3E7E8
:10166C002223C9F800301AB30EF1FF314046EFE7E0
:10167C009EF800B04FF0004805F1020E0124ACE7D3
:10168C00BBF1300FACD19EF8000000F0DF00582801
:10169C0007D01F46ABE79EF8003003F0DF03582B52
:1016AC000BD110279EF801B03B460EF1020E9EE7BF
:1016BC004046BDE8F08F8046D6E708231F4696E7E4
:1016CC00C5180008012A09D0242A134606D8074A4F
:1016DC00844610680A466146FFF764BF10B500F0F7
:1016EC0017F816230360002010BD00BF0400002073
:1016FC00024B13B1024800F005B87047000000001F
:10170C0029170008002301461A46184600F020B895
:10171C00014B1868704700BF0400002038B5084B17
:10172C00084D5B1B9C1007D0043B1D44013C55F835
:10173C0004399847002CF9D1BDE8384000F054B872
:10174C00D4190008D0190008704700BF704700BFBB
:10175C002DE9F047DFF87CA00646DAF80000984641
:10176C000F469146FFF7F0FF1B4B1B68D3F848411F
:10177C0024B365681F2D26DC5EB96B1C0235DAF8C4
:10178C000000636044F82570FFF7E0FF0020BDE81F
:10179C00F08704EB85010123C1F88890D4F88821E7
:1017AC00AB401A43022EC4F88821C1F80881E4D159
:1017BC00D4F88C211343C4F88C31DEE703F5A674FE
:1017CC00C3F84841D5E7DAF80000FFF7BFFF4FF048
:1017DC00FF30DCE730040020C0180008F8B500BF6B
:1017EC00F8BC08BC9E467047F8B500BFF8BC08BCF6
:0417FC009E4670474E
:1018000000000000000000000102030406070809B0
:101810000000000001020304313131313130303039
:101820000000000030303030303030310000000037
:101830003030313130303030000000003030303066
:101840003030303000000000313130313130303054
:101850000000000030303030303031300000000007
:101860003031313131303030000000003030303034
:101870003030313100000000303131303130303023
:1018800000000000313131303130303000000000D4
:101890003030313131303030000000003030303005
:1018A00030313030000000003030303030313130F5
:1018B00000000000303030303031313100000000A5
:1018C0000800002000202020202020202020282880
:1018D00028282820202020202020202020202020F0
:1018E0002020202020881010101010101010101030
:1018F0001010101010040404040404040404041060
:1019000010101010101041414141414101010101ED
:1019100001010101010101010101010101010101B7
:1019200010101010101042424242424202020202C3
:101930000202020202020202020202020202020287
:101940001010101020000000000000000000000037
:101950000000000000000000000000000000000087
:101960000000000000000000000000000000000077
:101970000000000000000000000000000000000067
:101980000000000000000000000000000000000057
:101990000000000000000000000000000000000047
:1019A0000000000000000000000000000000000037
:1019B0000000000000000000000000000000000027
:0819C00000000000000000001F
:0819C800FD160008D101000822
:0419D000AD0100085D
:1019D40000C2EB0B0800002000000000F40200200D
:1019E4005C030020C403002000000000000000008D
:1019F40000000000000000000000000000000000E3
:101A040000000000000000000000000000000000D2
:101A140000000000000000000000000000000000C2
:101A240000000000000000000000000000000000B2
:101A340000000000000000000000000000000000A2
:101A44000000000000000000000000000000000092
:101A54000000000000000000000000000000000082
:101A64000000000000000000000000000000000072
:101A74000000000000000000000000000000000062
:101A840001000000000000000E33CDAB34126DE6FF
:101A9400ECDE05000B000000000000000000000068
:101AA4000000000000000000000000000000000032
:101AB4000000000000000000000000000000000022
:101AC4000000000000000000000000000000000012
:101AD4000000000000000000000000000000000002
:041E04008404002032
:040000050800156971
:00000001FF
