:020000040800F2
:1000000000000320850F000883070008850700080B
:1000100087070008890700088B0700080000000018
:100020000000000000000000000000008D07000834
:100030008F070008000000009107000893070008E0
:10004000C90F0008C90F0008C90F0008C90F000830
:10005000C90F0008C90F0008C90F0008C90F000820
:10006000C90F0008C90F0008C90F0008C90F000810
:10007000C90F0008C90F0008C90F0008C90F000800
:10008000C90F0008C90F0008C90F0008C90F0008F0
:10009000C90F0008C90F0008C90F0008C90F0008E0
:1000A000C90F0008C90F0008C90F0008C90F0008D0
:1000B000C90F0008C90F0008C90F0008C90F0008C0
:1000C000C90F0008C90F0008C90F0008C90F0008B0
:1000D000C90F000800000000C90F0008C90F000880
:1000E000C90F0008C90F0008C90F0008C90F000890
:1000F000C90F0008C90F0008C90F0008C90F000880
:10010000C90F0008C90F0008C90F0008C90F00086F
:10011000C90F0008C90F0008C90F0008C90F00085F
:10012000C90F0008C90F0008C90F0008C90F00084F
:10013000C90F0008C90F0008C90F0008C90F00083F
:10014000C90F0008C90F0008C90F0008C90F00082F
:10015000C90F0008C90F0008C90F0008C90F00081F
:10016000C90F0008C90F0008C90F0008C90F00080F
:10017000C90F0008C90F0008C90F000800000000DF
:10018000C90F0008C90F0008C90F0008C90F0008EF
:10019000C90F0008C90F0008C90F000800000000BF
:0C01A000C90F0008C90F0008C90F0008B3
:1001AC0010B5054C237833B9044B13B10448AFF3A5
:1001BC0000800123237010BD3404002000000000D7
:1001CC00AC10000808B5034B1BB103490348AFF34F
:1001DC00008008BD0000000038040020AC100008AE
:1001EC00F0B50568C6684FF0000C03E00CF1010C8B
:1001FC001FFA8CFCBCF10F0F18D84FF0010E0EFA41
:10020C000CFE1EEA030FF1D04FEA4C044FF0030E24
:10021C000EFA04FE25EA0E0501FA04F73D4326EA20
:10022C000E0E02FA04F444EA0E06DFE70560C6601F
:10023C00F0BD10B5012906D0416821EA03014160E7
:10024C008468002105E0416819434160F8E70131F9
:10025C0089B20F2913D84FF0010C0CFA01FC1CEADF
:10026C00030FF4D04FEA410C4FF0030E0EFA0CFEC4
:10027C0024EA0E0402FA0CFC4CEA0404E7E784605E
:10028C0010BD30B5046A456A002301E001339BB20E
:10029C00072B13D84FF0010C0CFA03FC1CEA020FCD
:1002AC00F4D04FEA830E4FF00F0C0CFA0EFC24EA3C
:1002BC000C0401FA0EFE4EEA0404E7E7082301E001
:1002CC0001339BB20F2B15D84FF0010C0CFA03FC29
:1002DC001CEA020FF4D0A3F1080C4FEA8C0C4FF07F
:1002EC000F0E0EFA0CFE25EA0E0501FA0CFC4CEA78
:1002FC000505E5E70462456230BD000070B50546B2
:10030C000C461646022000F0CBF82C4BA3FB002326
:10031C009B0C2B4A904219D21A46696821F03F0176
:10032C001143696027498C4219D801333B2B0FD9F3
:10033C003C232B626400B0FBF4F0032800D80420AB
:10034C00EC69C0F30B002043E86170BD3C22E4E78C
:10035C00022B02D802232B62ECE72B62EAE71A4B42
:10036C009C42F2D84FF4967302FB03F3174AA2FB9C
:10037C0003239B0901332B62A6B904EB4404B0FBA5
:10038C00F4F0EB6923F48043EB61C0F30B030BB97E
:10039C0040F00100EB6943F40043EB61EC6920434E
:1003AC00E861D2E704EB840404EB8404B0FBF4F0C2
:1003BC00EB6943F48043EB61E7E700BF83DE1B434B
:1003CC0000879303A0860100801A0600D34D6210AB
:1003DC0010B4046824F0020C4CEA01010160C3F370
:1003EC0009031343836010BC7047036823F48063D4
:1003FC000B4303607047036823F400630B430360F3
:10040C00704712F1020F03D041F0010101617047F6
:10041C0021F00101FAE7036843F001030360704720
:10042C00036843F4807303607047036843F40073FC
:10043C0003607047016170470069C0B270478B0957
:10044C001B5801F01F0123FA01F111F0010F01D02B
:10045C00012070470020704740F2015399420DD0A3
:10046C004FEA911C5CF8003001F01F01012202FAE6
:10047C0001F123EA01014CF80010704743698369CC
:10048C007047830903F1804303F50E331A6800F0BB
:10049C001F00012101FA00F01043186070470000A2
:1004AC0010B588B08446344C94E80F000DF1200E42
:1004BC000EE90F0002AB103494E8030083E803004C
:1004CC006B4683E803002D4BD3F80838C3F3810344
:1004DC00012B1FD0022B1FD1284AD2F8044804F05C
:1004EC003F04D2F80418C1F38811D2F80408C0F301
:1004FC00014001304300D2F8042812F4800F07D0D9
:10050C001F48B0FBF4F001FB00F0B0FBF3F004E08B
:10051C001C48F6E71A4800E01A481849D1F8083880
:10052C00C3F3031320336B4413F8102C20FA02F29C
:10053C00D1F80838C3F3822320336B4413F8183CEA
:10054C0022FA03F4D1F80838C3F3423320336B4456
:10055C0013F8203C22FA03F3BCF1030F03D8DFE8B5
:10056C000CF005040709002000E0104608B010BD8F
:10057C002046FBE71846F9E7C4100008003002409B
:10058C0040787D010024F400C1F3080141607047FC
:10059C008B091B5801F01F0123FA01F111F0010F17
:1005AC0001D001207047002070470000364AD2F875
:1005BC00003843F48033C2F8003800230133324A48
:1005CC00D2F8002812F4003F03D14FF6FF72934289
:1005DC00F4D12D4BD3F8003813F4003F00D1FEE7D3
:1005EC00294BD3F8402842F08052C3F840282749C1
:1005FC000A6842F440420A60D3F80828C3F8082875
:10060C00D3F8082842F40042C3F80828D3F8082885
:10061C0042F4A052C3F808281D4AC3F80428D3F8A2
:10062C00002842F08072C3F80028174BD3F800382A
:10063C0013F0007FF9D0154A136843F4803313602C
:10064C00124B5B6813F4803FFAD0104A136843F4E2
:10065C00003313600D4B5B6813F4003FFAD00A4B68
:10066C00D3F8082822F00302C3F80828D3F8082886
:10067C0042F00202C3F80828034BD3F8083813F0F1
:10068C00080FF9D0704700BF0030024000700040E6
:10069C001964400908B5FFF789FF08BD00B583B0A0
:1006AC00264BD3F8002842F00102C3F80028D3F8F7
:1006BC00082842F08002C3F808280023019302E0C6
:1006CC00019B01330193019A4CF24F339A42F7D9B3
:1006DC001A4AD2F8083843F09003C2F808380023BD
:1006EC00019302E0019B01330193019A4CF24F33C9
:1006FC009A42F7D9114BD3F8082822F00302C3F819
:10070C000828D3F8002822F0847222F48032C3F82F
:10071C000028D3F8002822F48022C3F800280022F5
:10072C00C3F80828D3F808180549C3F80418C3F807
:10073C000C28FFF7AFFF03B05DF804FB003002405C
:10074C001030002408B501460448FFF71DFF0721AF
:10075C000248FFF71DFF0028F9D008BD001001402A
:10076C0010B5044602E00134FFF7ECFF14B1207819
:10077C000028F8D110BD7047FEE7FEE7FEE7FEE764
:10078C0070477047704708B500F0ECFB08BD0000DF
:10079C0010B540F60140FFF774FE154C4FF4807213
:1007AC0004212046FFF76DFD4FF400720421204612
:1007BC00FFF767FD4FF48073012202212046FFF7FB
:1007CC000FFD4FF48073022201212046FFF731FD0B
:1007DC004FF40073012202212046FFF701FD4FF474
:1007EC000073022201212046FFF723FD10BD00BF3C
:1007FC000004024010B541F21500FFF742FE0A4C0E
:10080C0000220A492046FFF779FDA0230022114659
:10081C002046FFF7DDFD2046FFF7FDFD4FF480611C
:10082C002046FFF7E2FD10BD00540040A0860100F9
:10083C0010B540F60540FFF724FE124C02220421AD
:10084C002046FFF71EFD012204212046FFF719FD6B
:10085C0001231A4602212046FFF7C2FC0123022283
:10086C0019460948FFF7E5FC0223012219462046E8
:10087C00FFF7B6FC02231A4601212046FFF7D9FCEC
:10088C0010BD00BF00140240000C024010B541F234
:10089C001600FFF7F6FD0A4C00220A492046FFF726
:1008AC002DFDA023002211462046FFF791FD204686
:1008BC00FFF7B1FD4FF480612046FFF796FD10BDA8
:1008CC0000580040A086010070B505460C4640F269
:1008DC0001612846FFF7B3FD06460028F7D12846EC
:1008EC00FFF79EFD4FF4A0612846FFF7A8FD0028F6
:1008FC00F8D06FF0010221462846FFF782FD002454
:10090C0040F201512846FFF79AFD28B90134A4B2F0
:10091C004EF660239C42F3D94EF660239C4200D8DD
:10092C0001262846FFF781FD2B6813F4007FFBD1CD
:10093C00304670BD70B505460C46164640F2016156
:10094C002846FFF77CFD0028F8D12846FFF768FD04
:10095C004FF4A0612846FFF772FD0028F8D06FF025
:10096C00010221462846FFF74CFD002440F20151BC
:10097C002846FFF764FD48B90134A4B24EF6602353
:10098C009C42F3D92846FFF750FD1DE040F201517F
:10099C002846FFF761FD40F207512846FFF74FFD4F
:1009AC000128F8D131462846FFF744FD40F20251A8
:1009BC002846FFF744FD0028F8D02846FFF735FD00
:1009CC002B6813F4007FFBD170BDF8B505460C46BF
:1009DC0017461E4640F201612846FFF730FD0028FD
:1009EC00F8D12846FFF71CFD4FF4A0612846FFF70D
:1009FC0026FD0028F8D06FF0010221462846FFF7AB
:100A0C0000FD002440F201512846FFF718FD48B9BB
:100A1C000134A4B24EF660208442F3D92846FFF785
:100A2C0004FD28E040F201512846FFF715FD40F285
:100A3C0007512846FFF703FD0128F8D1394628460F
:100A4C00FFF7F8FC40F202512846FFF7F8FC0028AB
:100A5C00F8D031462846FFF7EDFC40F2025128460B
:100A6C00FFF7EDFC0028F8D02846FFF7DEFC2B68DA
:100A7C0013F4007FFBD1F8BD2DE9F04704468946FD
:100A8C0092469846BDF8206040F201612046FFF77F
:100A9C00D6FC0028F8D1022E21D02046FFF7C0FC4E
:100AAC004FF4A0612046FFF7CAFC0028F8D06FF085
:100ABC00010249462046FFF7A4FC002540F20151F3
:100ACC002046FFF7BCFC074678B90135ADB24EF6AF
:100ADC0060239D42F2D92046FFF7A7FC7FE04FF43C
:100AEC0000612046FFF787FCD7E740F20151204612
:100AFC00FFF7B2FC40F207512046FFF7A0FC074677
:100B0C000128F7D12046FFF786FC51462046FFF717
:100B1C0091FC40F202512046FFF791FC0028F8D0DE
:100B2C002046FFF77DFC4FF4A0612046FFF787FCC1
:100B3C000028F8D0012249462046FFF762FC022E1D
:100B4C0011D940F201512046FFF779FC0028F8D06A
:100B5C0040F201512046FFF77FFC012E1AD12046AE
:100B6C00FFF763FC16E000212046FFF73EFCE8E7A8
:100B7C0040F202512046FFF762FC0028F8D0002119
:100B8C002046FFF732FC08E040F206512046FFF702
:100B9C0056FC78B9B6B1032EEAD0022EF4D140F24D
:100BAC0002512046FFF74BFC0028F8D02046FFF7F7
:100BBC003CFCE9E72046FFF73FFC08F8010B013E3F
:100BCC00B6B2E7E7236813F4007FFBD14FF48061E2
:100BDC002046FFF70AFC00212046FFF70CFC3846A4
:100BEC00BDE8F0872DE9F84306460F4614469946B2
:100BFC00BDF820809500EDB2AA1DDBB202F0FE021A
:100C0C00FFF7E3FEEA1D4FEA1923D2B2394630460C
:100C1C00FFF7DBFEA21C92005FFA88F302F0FC02E5
:100C2C0039463046FFF7D1FE05F109024FEA182389
:100C3C00D2B239463046FFF7C8FEBDE8F88338B566
:100C4C0004460D460023FA22FFF7BFFE0023FB22C9
:100C5C0029462046FFF7B9FE0023FC2229462046F0
:100C6C00FFF7B3FE0023FD2229462046FFF7ADFE19
:100C7C0038BD000038B50024032C11D804F16005F0
:100C8C006D00EDB229463748FFF71EFE10B901344E
:100C9C00E4B2F1E7344B334A5A601D7201221A70E8
:100CAC00314B1B78012B14D00024032C11D804F1E8
:100CBC0060056D00EDB229462C48FFF705FE10B912
:100CCC000134E4B2F1E7284B284A5A601D72012224
:100CDC001A70254B1B7873B90024032C1DD804F112
:100CEC0074056D00EDB229461E48FFF7EDFD70B995
:100CFC000134E4B2F1E71C4C00231A46217A6068F7
:100D0C00FFF763FE217A6068FFF799FFE4E7184B61
:100D1C00144A5A601D7201221A70154B1B78012B54
:100D2C0014D00024032C11D804F174056D00EDB21D
:100D3C0029460E48FFF7C8FD10B90134E4B2F1E7BB
:100D4C000B4B0A4A5A601D7201221A70084B1B7811
:100D5C0003B938BD064B2122197A5868FFF7EAFD12
:100D6C00F7E700BF0054004050040020005800403A
:100D7C005C04002030B583B003285CD8DFE800F0B9
:100D8C00020924402F4B197A5868FFF758FF03B01B
:100D9C0030BD2C4C1025009500231A46217A606832
:100DAC00FFF720FF4FF44063009340F299130122A8
:100DBC00217A6068FFF716FF009500230222217A42
:100DCC006068FFF70FFFE2E71E4C4FF400650095DB
:100DDC0040F299130022217A6068FFF703FF009517
:100DEC0040F299130122217A6068FFF7FBFE102371
:100DFC00009300230222217A6068FFF7F3FEC6E716
:100E0C00104C1025009500231A46217A6068FFF7D4
:100E1C00E9FE009500230122217A6068FFF7E2FECB
:100E2C004FF44063009340F299130222217A6068D8
:100E3C00FFF7D8FEABE7034B197A5868FFF7FFFEB4
:100E4C00A5E700BF5004002008B5022807D00328EE
:100E5C0009D0012800D008BDFFF78CFFFBE7032069
:100E6C00FFF788FFF7E70220FFF784FFF3E70000A6
:100E7C000B4B1B7813F0010F0BD1094B9B7813F024
:100E8C00010F08D1064B1B7913F0010F05D100207F
:100E9C00704701207047022070470320704700BF45
:100EAC006804002000B587B0FFF772FCFFF7A2FCC6
:100EBC00FFF7BEFCFFF7EAFCFFF7DCFE00F028F8BA
:100ECC000F4B1B68ADF814301B0C8DF816300D4A07
:100EDC0002AB07CA83E8070002A8FFF741FC0A48E7
:100EEC0006230093094B4022017A4068FFF7C4FDAA
:100EFC00FFF7BEFFFFF7A8FF642000F029F8EBE72F
:100F0C00E8100008DC1000085C04002068040020D5
:100F1C000C4B1B680C4AA2FB03239B09013BB3F14E
:100F2C00807F0DD24FF0E0225361084BF02183F803
:100F3C002310002191610720106183F82310704762
:100F4C00FEE700BF00000020D34D621000ED00E072
:100F5C00034B1860024B1B68002BFBD1704700BF82
:100F6C0070040020034B1B681BB1024A1368013B41
:100F7C001360704770040020002103E00A4B5B589B
:100F8C004350043109480A4B42189A42F6D3094A95
:100F9C0002E0002342F8043B074B9A42F9D3FFF7D7
:100FAC007DFBFFF77FFF7047FC100008000000205E
:100FBC00340400203404002078040020FEE70000F4
:100FCC00024B13B1024800F005B870470000000056
:100FDC00ED0F0008002301461A46184600F01AB817
:100FEC0038B5084B084D5B1B9C1007D0043B1D44C7
:100FFC00013C55F804399847002CF9D1BDE838402C
:10100C0000F054B8FC100008F8100008704700BF3E
:10101C00704700BF2DE9F047DFF87CA00646DAF8F0
:10102C00000098460F469146FFF7F0FF1B4B1B68DC
:10103C00D3F8484124B365681F2D26DC5EB96B1CC0
:10104C000235DAF80000636044F82570FFF7E0FF22
:10105C000020BDE8F08704EB85010123C1F88890DE
:10106C00D4F88821AB401A43022EC4F88821C1F869
:10107C000881E4D1D4F88C211343C4F88C31DEE719
:10108C0003F5A674C3F84841D5E7DAF80000FFF77A
:10109C00BFFF4FF0FF30DCE730040020EC100008FD
:1010AC00F8B500BFF8BC08BC9E467047F8B500BF49
:0810BC00F8BC08BC9E46704719
:1010C40000000000000000000102030406070809F4
:1010D40000000000010203040100000002000000FF
:0C10E40002000000303132000800002043
:0810F000CD0F0008D10100083A
:0410F800AD0100083E
:1010FC0000C2EB0B0000000000000000F402002016
:10110C005C030020C403002000000000000000006D
:10111C0000000000000000000000000000000000C3
:10112C0000000000000000000000000000000000B3
:10113C0000000000000000000000000000000000A3
:10114C000000000000000000000000000000000093
:10115C000000000000000000000000000000000083
:10116C000000000000000000000000000000000073
:10117C000000000000000000000000000000000063
:10118C000000000000000000000000000000000053
:10119C000000000000000000000000000000000043
:1011AC0001000000000000000E33CDAB34126DE6E0
:1011BC00ECDE05000B000000000000000000000049
:1011CC000000000000000000000000000000000013
:1011DC000000000000000000000000000000000003
:1011EC0000000000000000000000000000000000F3
:1011FC0000000000000000000000000000000000E3
:04152C007404002023
:0400000508000F855B
:00000001FF
