:020000040800F2
:10000000000003205D1F00080B1700080D170008F3
:100010000F17000811170008131700080000000050
:10002000000000000000000000000000151700089C
:100030001717000800000000191700081B17000818
:10004000A11F0008A11F0008A11F0008A11F000890
:10005000A11F0008A11F0008A11F0008A11F000880
:10006000A11F0008A11F0008A11F0008A11F000870
:10007000A11F0008A11F0008A11F0008A11F000860
:10008000A11F0008A11F0008A11F0008A11F000850
:10009000A11F0008A11F0008A11F0008A11F000840
:1000A000A11F0008A11F0008A11F0008A11F000830
:1000B000A11F0008A11F0008A11F0008A11F000820
:1000C000A11F0008A11F0008A11F0008A11F000810
:1000D000A11F000800000000A11F0008A11F0008C8
:1000E000A11F0008A11F0008A11F0008A11F0008F0
:1000F000A11F0008A11F0008A11F0008A11F0008E0
:10010000A11F0008A11F0008A11F0008A11F0008CF
:10011000A11F0008A11F0008A11F0008A11F0008BF
:10012000A11F0008A11F0008A11F0008A11F0008AF
:10013000A11F0008A11F0008A11F0008A11F00089F
:10014000A11F0008A11F0008A11F0008A11F00088F
:10015000A11F0008A11F0008A11F0008A11F00087F
:10016000A11F0008A11F0008A11F0008A11F00086F
:10017000A11F0008A11F0008A11F00080000000027
:10018000A11F0008A11F0008A11F0008A11F00084F
:10019000A11F0008A11F0008A11F00080000000007
:0C01A000A11F0008A11F0008A11F0008FB
:1001B00010B5054C237833B9044B13B10448AFF3A1
:1001C00000800123237010BD3404002000000000D3
:1001D0008430000808B5034B1BB103490348AFF353
:1001E000008008BD000000003804002084300008B2
:1001F00081F0004102E000BF83F0004330B54FEAD8
:1002000041044FEA430594EA050F08BF90EA020F44
:100210001FBF54EA000C55EA020C7FEA645C7FEAD7
:10022000655C00F0E2804FEA5454D4EB5555B8BFFA
:100230006D420CDD2C4480EA020281EA030382EA6B
:10024000000083EA010180EA020281EA0303362DFD
:1002500088BF30BD11F0004F4FEA01314FF4801CD0
:100260004CEA113102D0404261EB410113F0004FE2
:100270004FEA03334CEA133302D0524263EB430399
:1002800094EA050F00F0A780A4F10104D5F1200E37
:100290000DDB02FA0EFC22FA05F2801841F1000192
:1002A00003FA0EF2801843FA05F359410EE0A5F166
:1002B00020050EF1200E012A03FA0EFC28BF4CF097
:1002C000020C43FA05F3C01851EBE37101F000454D
:1002D00007D54FF0000EDCF1000C7EEB00006EEB5A
:1002E0000101B1F5801F1BD3B1F5001F0CD34908E4
:1002F0005FEA30004FEA3C0C04F101044FEA44523B
:1003000012F5800F80F09A80BCF1004F08BF5FEAC1
:10031000500C50F1000041EB045141EA050130BDA1
:100320005FEA4C0C404141EB0101013C28BFB1F5B3
:10033000801FE9D291F0000F04BF01460020B1FAFE
:1003400081F308BF2033A3F10B03B3F120020CDAD1
:100350000C3208DD02F1140CC2F10C0201FA0CF0AF
:1003600021FA02F10CE002F11402D8BFC2F1200C14
:1003700001FA02F120FA0CFCDCBF41EA0C019040CA
:10038000E41AA2BF01EB0451294330BD6FEA040413
:100390001F3C1CDA0C340EDC04F11404C4F12002FE
:1003A00020FA04F001FA02F340EA030021FA04F310
:1003B00045EA030130BDC4F10C04C4F1200220FA67
:1003C00002F001FA04F340EA0300294630BD21FAA5
:1003D00004F0294630BD94F0000F83F4801306BF6B
:1003E00081F480110134013D4EE77FEA645C18BF5F
:1003F0007FEA655C29D094EA050F08BF90EA020FF6
:1004000005D054EA000C04BF1946104630BD91EAED
:10041000030F1EBF0021002030BD5FEA545C05D1F0
:100420004000494128BF41F0004130BD14F580042F
:100430003CBF01F5801130BD01F0004545F0FE41A3
:1004400041F470014FF0000030BD7FEA645C1ABFD8
:10045000194610467FEA655C1CBF0B46024650EA0F
:10046000013406BF52EA033591EA030F41F400213B
:1004700030BD00BF90F0000F04BF0021704730B5C1
:100480004FF4806404F132044FF000054FF0000196
:1004900050E700BF90F0000F04BF0021704730B557
:1004A0004FF4806404F1320410F0004548BF40422C
:1004B0004FF000013EE700BF42004FEAE2014FEA81
:1004C00031014FEA02701FBF12F07F4393F07F4F5C
:1004D00081F06051704732F07F4208BF704793F05F
:1004E0007F4F04BF41F40021704730B54FF4607472
:1004F00001F0004521F000411CE700BF50EA010275
:1005000008BF704730B54FF000050AE050EA01021D
:1005100008BF704730B511F0004502D5404261EB8D
:1005200041014FF4806404F132045FEA915C3FF4CE
:10053000D8AE4FF003025FEADC0C18BF03325FEA6B
:10054000DC0C18BF033202EBDC02C2F1200300FA1C
:1005500003FC20FA02F001FA03FE40EA0E0021FA41
:1005600002F11444BDE600BF70B54FF0FF0C4CF42F
:10057000E06C1CEA11541DBF1CEA135594EA0C0FE1
:1005800095EA0C0F00F0DEF82C4481EA030621EA1C
:100590004C5123EA4C5350EA013518BF52EA033557
:1005A00041F4801143F4801338D0A0FB02CE4FF009
:1005B0000005E1FB02E506F00042E0FB03E54FF039
:1005C0000006E1FB03569CF0000F18BF4EF0010E31
:1005D000A4F1FF04B6F5007F64F5407404D25FEA2D
:1005E0004E0E6D4146EB060642EAC62141EA5551E0
:1005F0004FEAC52040EA5E504FEACE2EB4F1FD0C22
:1006000088BFBCF5E06F1ED8BEF1004F08BF5FEA9F
:10061000500E50F1000041EB045170BD06F0004651
:1006200046EA010140EA020081EA0301B4EB5C04FE
:10063000C2BFD4EB0C0541EA045170BD41F48011F6
:100640004FF0000E013C00F3AB8014F1360FDEBF1B
:10065000002001F0004170BDC4F10004203C35DAF7
:100660000C341BDC04F11404C4F1200500FA05F37A
:1006700020FA04F001FA05F240EA020001F000421B
:1006800021F0004110EBD37021FA04F642EB060191
:100690005EEA430E08BF20EAD37070BDC4F10C04BB
:1006A000C4F1200500FA04F320FA05F001FA04F27F
:1006B00040EA020001F0004110EBD37041F100016B
:1006C0005EEA430E08BF20EAD37070BDC4F1200576
:1006D00000FA05F24EEA020E20FA04F301FA05F2DE
:1006E00043EA020321FA04F001F0004121FA04F286
:1006F00020EA020000EBD3705EEA430E08BF20EA56
:10070000D37070BD94F0000F0FD101F0004640008F
:1007100041EB010111F4801F08BF013CF7D041EA11
:10072000060195F0000F18BF704703F00046520015
:1007300043EB030313F4801F08BF013DF7D043EAE6
:100740000603704794EA0C0F0CEA135518BF95EA9C
:100750000C0F0CD050EA410618BF52EA4306D1D123
:1007600081EA030101F000414FF0000070BD50EA42
:10077000410606BF1046194652EA430619D094EACC
:100780000C0F02D150EA013613D195EA0C0F05D1B6
:1007900052EA03361CBF104619460AD181EA03010A
:1007A00001F0004141F0FE4141F470014FF00000C2
:1007B00070BD41F0FE4141F4780170BD70B54FF05D
:1007C000FF0C4CF4E06C1CEA11541DBF1CEA1355DD
:1007D00094EA0C0F95EA0C0F00F0A7F8A4EB0504BF
:1007E00081EA030E52EA03354FEA013100F08880B6
:1007F0004FEA03334FF0805545EA131343EA12637F
:100800004FEA022245EA111545EA10654FEA002633
:100810000EF000419D4208BF964244F1FD0404F5EC
:10082000407402D25B084FEA3202B61A65EB030548
:100830005B084FEA32024FF480104FF4002CB6EB05
:10084000020E75EB030E22BFB61A754640EA0C0085
:100850005B084FEA3202B6EB020E75EB030E22BFC5
:10086000B61A754640EA5C005B084FEA3202B6EB06
:10087000020E75EB030E22BFB61A754640EA9C00C5
:100880005B084FEA3202B6EB020E75EB030E22BF95
:10089000B61A754640EADC0055EA060E18D04FEA53
:1008A000051545EA16754FEA06164FEAC30343EAF3
:1008B00052734FEAC2025FEA1C1CC0D111F4801FC0
:1008C0000BD141EA00014FF000004FF0004CB6E7B9
:1008D00011F4801F04BF01430020B4F1FD0C88BF58
:1008E000BCF5E06F3FF6AFAEB5EB030C04BFB6EB63
:1008F000020C5FEA500C50F1000041EB045170BD56
:100900000EF0004E4EEA113114EB5C04C2BFD4EB82
:100910000C0541EA045170BD41F480114FF0000E06
:10092000013C90E645EA060E8DE60CEA135594EA82
:100930000C0F08BF95EA0C0F3FF43BAF94EA0C0F85
:100940000AD150EA01347FF434AF95EA0C0F7FF4FA
:1009500025AF104619462CE795EA0C0F06D152EA4E
:1009600003353FF4FDAE1046194622E750EA410632
:1009700018BF52EA43067FF4C5AE50EA41047FF443
:100980000DAF52EA43057FF4EBAE12E74FF0FF3CA8
:1009900006E000BF4FF0010C02E000BF4FF0010C79
:1009A0004DF804CD4FEA410C7FEA6C5C4FEA430CF2
:1009B00018BF7FEA6C5C1BD001B050EA410C0CBF41
:1009C00052EA430C91EA030F02BF90EA020F0020A3
:1009D000704710F1000F91EA030F58BF994208BF0A
:1009E00090422CBFD8176FEAE37040F001007047C7
:1009F0004FEA410C7FEA6C5C02D150EA013C07D11E
:100A00004FEA430C7FEA6C5CD6D152EA033CD3D068
:100A10005DF8040B704700BF8446104662468C4662
:100A20001946634600E000BF01B5FFF7B7FF002895
:100A300048BF10F1000F01BD4DF808EDFFF7F4FFBE
:100A40000CBF012000205DF808FB00BF4DF808ED49
:100A5000FFF7EAFF34BF012000205DF808FB00BF6C
:100A60004DF808EDFFF7E0FF94BF012000205DF88E
:100A700008FB00BF4DF808EDFFF7CEFF94BF012043
:100A800000205DF808FB00BF4DF808EDFFF7C4FF3C
:100A900034BF012000205DF808FB00BF4FEA41028F
:100AA00012F5001215D211D56FF47873B3EB6252C0
:100AB00012D94FEAC12343F0004343EA505311F0E7
:100AC000004F23FA02F018BF404270474FF0000079
:100AD000704750EA013005D111F0004008BF6FF0B7
:100AE000004070474FF00000704700BF4FEA410CD4
:100AF0007FEA6C5C02D150EA013C0AD14FEA430C18
:100B00007FEA6C5C02D152EA033C02D14FF0000054
:100B100070474FF001007047F0B50568C6684FF0A8
:100B2000000C03E00CF1010C1FFA8CFCBCF10F0F60
:100B300018D84FF0010E0EFA0CFE1EEA030FF1D08A
:100B40004FEA4C044FF0030E0EFA04FE25EA0E05A0
:100B500001FA04F73D4326EA0E0E02FA04F444EAD1
:100B60000E06DFE70560C660F0BD10B5012906D0AE
:100B7000416821EA030141608468002105E0416881
:100B800019434160F8E7013189B20F2913D84FF0BA
:100B9000010C0CFA01FC1CEA030FF4D04FEA410CE3
:100BA0004FF0030E0EFA0CFE24EA0E0402FA0CFCBF
:100BB0004CEA0404E7E7846010BD30B5046A456A76
:100BC000002301E001339BB2072B13D84FF0010C37
:100BD0000CFA03FC1CEA020FF4D04FEA830E4FF02C
:100BE0000F0C0CFA0EFC24EA0C0401FA0EFE4EEA7D
:100BF0000404E7E7082301E001339BB20F2B15D86B
:100C00004FF0010C0CFA03FC1CEA020FF4D0A3F124
:100C1000080C4FEA8C0C4FF00F0E0EFA0CFE25EA72
:100C20000E0501FA0CFC4CEA0505E5E70462456295
:100C300030BD000070B505460C461646022000F097
:100C4000CBF82C4BA3FB00239B0C2B4A904219D2D0
:100C50001A46696821F03F011143696027498C42B7
:100C600019D801333B2B0FD93C232B626400B0FB16
:100C7000F4F0032800D80420EC69C0F30B002043F3
:100C8000E86170BD3C22E4E7022B02D802232B620C
:100C9000ECE72B62EAE71A4B9C42F2D84FF49673CA
:100CA00002FB03F3174AA2FB03239B0901332B62C8
:100CB000A6B904EB4404B0FBF4F0EB6923F48043E1
:100CC000EB61C0F30B030BB940F00100EB6943F497
:100CD0000043EB61EC692043E861D2E704EB840454
:100CE00004EB8404B0FBF4F0EB6943F48043EB6164
:100CF000E7E700BF83DE1B4300879303A086010064
:100D0000801A0600D34D621010B4046824F0020C5F
:100D10004CEA01010160C3F309031343836010BC73
:100D20007047036823F480630B43036070470368D4
:100D300023F400630B430360704712F1020F03D0EA
:100D400041F001010161704721F00101FAE70368F8
:100D500043F0010303607047036843F4807303604A
:100D60007047036843F40073036070470161704784
:100D70000069C0B270478B091B5801F01F0123FAAC
:100D800001F111F0010F01D00120704700207047E0
:100D900040F2015399420DD04FEA911C5CF80030AB
:100DA00001F01F01012202FA01F123EA01014CF8CE
:100DB00000107047436983697047830903F18043DA
:100DC00003F50E331A6800F01F00012101FA00F04C
:100DD000104318607047000010B588B08446344C4A
:100DE00094E80F000DF1200E0EE90F0002AB103455
:100DF00094E8030083E803006B4683E803002D4B6F
:100E0000D3F80838C3F38103012B1FD0022B1FD165
:100E1000284AD2F8044804F03F04D2F80418C1F379
:100E20008811D2F80408C0F3014001304300D2F821
:100E3000042812F4800F07D01F48B0FBF4F001FB28
:100E400000F0B0FBF3F004E01C48F6E71A4800E0BD
:100E50001A481849D1F80838C3F3031320336B44F8
:100E600013F8102C20FA02F2D1F80838C3F38223C9
:100E700020336B4413F8183C22FA03F4D1F80838F5
:100E8000C3F3423320336B4413F8203C22FA03F3BC
:100E9000BCF1030F03D8DFE80CF0050407090020BC
:100EA00000E0104608B010BD2046FBE71846F9E701
:100EB0009C3000080030024040787D010024F4009E
:100EC000364AD2F8003843F48033C2F800380023A1
:100ED0000133324AD2F8002812F4003F03D14FF612
:100EE000FF729342F4D12D4BD3F8003813F4003F36
:100EF00000D1FEE7294BD3F8402842F08052C3F8D6
:100F0000402827490A6842F440420A60D3F808287A
:100F1000C3F80828D3F8082842F40042C3F8082888
:100F2000D3F8082842F4A052C3F808281D4AC3F891
:100F30000428D3F8002842F08072C3F80028174B29
:100F4000D3F8003813F0007FF9D0154A136843F442
:100F500080331360124B5B6813F4803FFAD0104A61
:100F6000136843F4003313600D4B5B6813F4003FC8
:100F7000FAD00A4BD3F8082822F00302C3F8082855
:100F8000D3F8082842F00202C3F80828034BD3F82C
:100F9000083813F0080FF9D0704700BF0030024046
:100FA000007000401964400908B5FFF789FF08BDCB
:100FB00000B583B0264BD3F8002842F00102C3F8F5
:100FC0000028D3F8082842F08002C3F8082800233C
:100FD000019302E0019B01330193019A4CF24F33DC
:100FE0009A42F7D91A4AD2F8083843F09003C2F867
:100FF00008380023019302E0019B01330193019A19
:101000004CF24F339A42F7D9114BD3F8082822F00B
:101010000302C3F80828D3F8002822F0847222F4CF
:101020008032C3F80028D3F8002822F48022C3F8C5
:1010300000280022C3F80828D3F808180549C3F887
:101040000418C3F80C28FFF7AFFF03B05DF804FBEA
:10105000003002401030002438B50024032C11D891
:1010600004F11C056D00EDB22946134800F0F6FBB3
:1010700010B90134E4B2F1E7104B0F4A5A601D7207
:1010800001221A700D4B1B78012B14D00024032C65
:1010900011D804F11C056D00EDB22946084800F096
:1010A000DDFB10B90134E4B2F1E7044B044A5A60A5
:1010B0001D7201221A7038BD005400405C040020EB
:1010C0000058004008B5054800231A46017A4068D8
:1010D00000F045FCC82000F009FF08BD5C040020BA
:1010E00008B5054800231A46017A406800F037FC2D
:1010F000C82000F0FBFE08BD5C04002038B50025C8
:10110000032D10DC05F170046400E4B22146174899
:1011100000F0A4FB08B90135F2E7154B134A5A60F9
:101120001C7201221A70124B1B78012B13D0002560
:10113000032D10DC05F170046400E4B221460D4873
:1011400000F08CFB08B90135F2E7094B094A5A60F7
:101150001C7201221A70064B1B7803B938BD044B70
:101160002122197A586800F0AFFBF7E700540040DD
:10117000680400200058004008B5034B8122197A0A
:10118000586800F0A1FB08BD680400202DE9F0417B
:101190000138032803D8DFE800F00A040608002419
:1011A00006E0042404E0062402E0082400E002240F
:1011B000651C093113292DD8DFE811F0F601DD0196
:1011C000C401AB0192015A01410128010F01140031
:1011D0002E004700600079009200AB00C400DD00E3
:1011E000F6000F02AF4E776896F80880AE4800F020
:1011F00091FEC3B222464146384600F0B0FB746807
:10120000367AAA4800F086FEC3B22A463146204606
:1012100000F0A5FBBDE8F081A24E776896F8088043
:10122000A34800F077FEC3B222464146384600F09C
:1012300096FB7468367A9F4800F06CFEC3B22A466B
:101240003146204600F08BFBE4E7964E776896F82F
:101250000880994800F05EFEC3B2224641463846F7
:1012600000F07DFB7468367A944800F053FEC3B2F8
:101270002A463146204600F072FBCBE7894E77685C
:1012800096F808808E4800F045FEC3B222464146DB
:10129000384600F064FB7468367A884800F03AFEFD
:1012A000C3B22A463146204600F059FBB2E77D4ED4
:1012B000776896F808807E4800F02CFEC3B222467C
:1012C0004146384600F04BFB7468367A7D4800F0A2
:1012D00021FEC3B22A463146204600F040FB99E782
:1012E000704E776896F80880774800F013FEC3B216
:1012F00022464146384600F032FB7468367A71481F
:1013000000F008FEC3B22A463146204600F027FB13
:1013100080E7644E776896F808806C4800F0FAFD24
:10132000C3B222464146384600F019FB7468367A4B
:10133000644800F0EFFDC3B22A463146204600F073
:101340000EFB67E7574E776896F80880604800F014
:10135000E1FDC3B222464146384600F000FB746806
:10136000367A544800F0D6FDC3B22A4631462046AC
:1013700000F0F5FA4EE74B4E776896F808804A4839
:1013800000F0C8FDC3B222464146384600F0E7FAF5
:101390007468367A4B4800F0BDFDC3B22A46314628
:1013A000204600F0DCFA35E73E4E776896F8088074
:1013B000434800F0AFFDC3B222464146384600F034
:1013C000CEFA7468367A3F4800F0A4FDC3B22A46CC
:1013D0003146204600F0C3FA1CE7324E776896F893
:1013E0000880334800F096FDC3B222464146384695
:1013F00000F0B5FA7468367A364800F08BFDC3B257
:101400002A463146204600F0AAFA03E7254E7768BF
:1014100096F80880284800F07DFDC3B22246414678
:10142000384600F09CFA7468367A2B4800F072FD5A
:10143000C3B22A463146204600F091FAEAE6194E38
:10144000776896F808801E4800F064FDC3B2224613
:101450004146384600F083FA7468367A1E4800F038
:1014600059FDC3B22A463146204600F078FAD1E64B
:101470000C4E776896F808800D4800F04BFDC3B21B
:1014800022464146384600F06AFA7468367A1348B4
:1014900000F040FDC3B22A463146204600F05FFA14
:1014A000B8E600BF68040020B4300008C03000086F
:1014B000CC300008D8300008E4300008F0300008D4
:1014C000FC30000808310008143100082031000801
:1014D0002C31000838310008443100085031000830
:1014E0004A4E776896F80880494800F013FDC3B269
:1014F00022464146384600F032FA7468367A45484A
:1015000000F008FDC3B22A463146204600F027FA13
:1015100080E63E4E776896F808803F4800F0FAFC77
:10152000C3B222464146384600F019FA7468367A4A
:10153000384800F0EFFCC3B22A463146204600F09E
:101540000EFA67E6314E776896F80880334800F067
:10155000E1FCC3B222464146384600F000FA746806
:10156000367A2F4800F0D6FCC3B22A4631462046D0
:1015700000F0F5F94EE6254E776896F80880294880
:1015800000F0C8FCC3B222464146384600F0E7F9F5
:101590007468367A1F4800F0BDFCC3B22A46314653
:1015A000204600F0DCF935E6184E776896F808809A
:1015B0001D4800F0AFFCC3B222464146384600F059
:1015C000CEF97468367A134800F0A4FCC3B22A46F8
:1015D0003146204600F0C3F91CE60C4E776896F8B9
:1015E0000880104800F096FCC3B2224641463846B7
:1015F00000F0B5F97468367A0C4800F08BFCC3B281
:101600002A463146204600F0AAF903E66804002085
:101610001431000850310008203100082C31000836
:1016200038310008B4300008FC30000808310008E8
:101630002DE9F8430138032803D8DFE800F00A0455
:101640000608002606E0042604E0062602E0082636
:1016500000E00226771C0E4CD4F8048094F8089021
:101660000C4D284600F056FCC3B23246494640466F
:1016700000F075F96668247A284600F04BFCC3B286
:101680003A462146304600F06AF9BDE8F88300BFCB
:1016900068040020D8300008F0B583B00546FFF795
:1016A0006BFD42F20F739D422DD800244FF0FF36A0
:1016B000012701E000270134032C11DCC4F10301F0
:1016C000284600F02DFCC0B204F108030DEB030224
:1016D00002F8040C0028EDD1002FECD00136EAE727
:1016E000002408E004F108036B4413F8041C601C98
:1016F000FFF74CFD0134032C05DCA642F2DB601C35
:10170000FFF796FFF6E703B0F0BD7047FEE7FEE790
:10171000FEE7FEE770477047704708B500F0F0FB42
:1017200008BD000010B540F60140FFF746FB154C20
:101730004FF4807204212046FFF73FFA4FF4007205
:1017400004212046FFF739FA4FF480730122022169
:101750002046FFF7E1F94FF4807302220121204671
:10176000FFF703FA4FF40073012202212046FFF72E
:10177000D3F94FF40073022201212046FFF7F5F957
:1017800010BD00BF0004024010B541F21500FFF784
:1017900014FB0A4C00220A492046FFF74BFAA0230B
:1017A000002211462046FFF7AFFA2046FFF7CFFA96
:1017B0004FF480612046FFF7B4FA10BD005400409A
:1017C000A086010010B540F60540FFF7F6FA124C6E
:1017D000022204212046FFF7F0F9012204212046CD
:1017E000FFF7EBF901231A4602212046FFF794F98F
:1017F0000123022219460948FFF7B7F90223012203
:1018000019462046FFF788F902231A46012120468F
:10181000FFF7ABF910BD00BF00140240000C0240FE
:1018200010B541F21600FFF7C8FA0A4C00220A4927
:101830002046FFF7FFF9A023002211462046FFF7BC
:1018400063FA2046FFF783FA4FF480612046FFF7E2
:1018500068FA10BD00580040A086010070B505462A
:101860000C4640F201612846FFF785FA064600283B
:10187000F7D12846FFF770FA4FF4A0612846FFF72A
:101880007AFA0028F8D06FF0010221462846FFF7C7
:1018900054FA002440F201512846FFF76CFA28B9A7
:1018A0000134A4B24EF660239C42F3D94EF6602375
:1018B0009C4200D801262846FFF753FA2B6813F400
:1018C000007FFBD1304670BD70B505460C4616460C
:1018D00040F201612846FFF74EFA0028F8D1284669
:1018E000FFF73AFA4FF4A0612846FFF744FA0028C0
:1018F000F8D06FF0010221462846FFF71EFA0024B7
:1019000040F201512846FFF736FA48B90134A4B233
:101910004EF660239C42F3D92846FFF722FA1DE0D9
:1019200040F201512846FFF733FA40F207512846AA
:10193000FFF721FA0128F8D131462846FFF716FAB9
:1019400040F202512846FFF716FA0028F8D0284640
:10195000FFF707FA2B6813F4007FFBD170BDF8B5D1
:1019600005460C4617461E4640F201612846FFF721
:1019700002FA0028F8D12846FFF7EEF94FF4A061EB
:101980002846FFF7F8F90028F8D06FF00102214649
:101990002846FFF7D2F9002440F201512846FFF70C
:1019A000EAF948B90134A4B24EF660208442F3D972
:1019B0002846FFF7D6F928E040F201512846FFF704
:1019C000E7F940F207512846FFF7D5F90128F8D189
:1019D00039462846FFF7CAF940F202512846FFF778
:1019E000CAF90028F8D031462846FFF7BFF940F27F
:1019F00002512846FFF7BFF90028F8D02846FFF724
:101A0000B0F92B6813F4007FFBD1F8BD2DE9F04746
:101A10000446894692469846BDF8206040F201612E
:101A20002046FFF7A8F90028F8D1022E21D0204641
:101A3000FFF792F94FF4A0612046FFF79CF90028C8
:101A4000F8D06FF0010249462046FFF776F90025ED
:101A500040F201512046FFF78EF9074678B901356B
:101A6000ADB24EF660239D42F2D92046FFF779F9D8
:101A70007FE04FF400612046FFF759F9D7E740F2C5
:101A800001512046FFF784F940F207512046FFF745
:101A900072F907460128F7D12046FFF758F9514659
:101AA0002046FFF763F940F202512046FFF763F941
:101AB0000028F8D02046FFF74FF94FF4A0612046E8
:101AC000FFF759F90028F8D0012249462046FFF7D0
:101AD00034F9022E11D940F201512046FFF74BF99B
:101AE0000028F8D040F201512046FFF751F9012EAD
:101AF0001AD12046FFF735F916E000212046FFF7FE
:101B000010F9E8E740F202512046FFF734F90028C7
:101B1000F8D000212046FFF704F908E040F2065112
:101B20002046FFF728F978B9B6B1032EEAD0022E85
:101B3000F4D140F202512046FFF71DF90028F8D0F9
:101B40002046FFF70EF9E9E72046FFF711F908F8FC
:101B5000010B013EB6B2E7E7236813F4007FFBD127
:101B60004FF480612046FFF7DCF800212046FFF7A4
:101B7000DEF83846BDE8F0872DE9F84306460F4603
:101B800014469946BDF820809500EDB2AA1DDBB23F
:101B900002F0FE02FFF7E3FEEA1D4FEA1923D2B27C
:101BA00039463046FFF7DBFEA21C92005FFA88F34D
:101BB00002F0FC0239463046FFF7D1FE05F109027A
:101BC0004FEA1823D2B239463046FFF7C8FEBDE8C7
:101BD000F88338B504460D460023FA22FFF7BFFE0E
:101BE0000023FB2229462046FFF7B9FE0023FC22F2
:101BF00029462046FFF7B3FE0023FD222946204652
:101C0000FFF7ADFE38BD000038B50025032D10DC10
:101C100005F160046400E4B221461A48FFF71EFE95
:101C200008B90135F2E7184B164A5A601C720122B6
:101C30001A70154B1B78012B13D00025032D10DCD7
:101C400005F160046400E4B221461048FFF706FE87
:101C500008B90135F2E70C4B0C4A5A601C7201229C
:101C60001A70094B1B7803B938BD074C00231A467C
:101C7000217A6068FFF773FE217A6068FFF7A9FF99
:101C8000F2E700BF0054004050040020005800401C
:101C900030B583B003285CD8DFE800F002092440A7
:101CA0002F4B197A5868FFF794FF03B030BD2C4CC6
:101CB0001025009500231A46217A6068FFF75CFF23
:101CC0004FF44063009340F299130122217A606837
:101CD000FFF752FF009500230222217A6068FFF788
:101CE0004BFFE2E71E4C4FF40065009540F299135C
:101CF0000022217A6068FFF73FFF009540F29913B8
:101D00000122217A6068FFF737FF10230093002338
:101D10000222217A6068FFF72FFFC6E7104C1025DA
:101D2000009500231A46217A6068FFF725FF009589
:101D300000230122217A6068FFF71EFF4FF4406301
:101D4000009340F299130222217A6068FFF714FF92
:101D5000ABE7034B197A5868FFF73BFFA5E700BFD5
:101D60005004002038B50024032C11D804F12305B9
:101D70006D00EDB229461848FFF770FD10B9013427
:101D8000E4B2F1E7154B144A5A601D7201221A7031
:101D9000124B1B78012B14D00024032C11D804F112
:101DA00023056D00EDB229460D48FFF757FD10B928
:101DB0000134E4B2F1E7094B094A5A601D7201226D
:101DC0001A70064B1B7803B938BD044B0122197AEF
:101DD0005868FFF779FDF7E70054004074040020CD
:101DE0000058004010B584B00D4C1022217A606874
:101DF000FFF76AFD962000F079F80023ADF80C306B
:101E00000223009303AB0122217A6068FFF7FEFDF5
:101E10009DF80C009DF80D3003EB002004B010BDC0
:101E200074040020F8B5FFF77DFCFFF7ADFCFFF769
:101E3000C9FCFFF7F5FC00F039F8FFF793FFFFF757
:101E40005DF9FFF709F9FFF7DFFE012500273E46A0
:101E500012E0C72B02D80DB10137BFB20A2E17D836
:101E60000A2F1AD8A0B2FFF717FCDDB10120FFF747
:101E70000FFF642000F03AF8FFF7B4FF044683B286
:101E8000B3F5C87FE5D9002DE3D10136B6B2E5E759
:101E9000FFF718F901250026E4E7FFF721F90025EF
:101EA0002F46DFE70220FFF7F3FEE2E70C4B1B684B
:101EB0000C4AA2FB03239B09013BB3F1807F0DD2A7
:101EC0004FF0E0225361084BF02183F823100021EA
:101ED00091610720106183F823107047FEE700BF6F
:101EE00000000020D34D621000ED00E0034B1860AD
:101EF000024B1B68002BFBD1704700BF8004002001
:101F0000034B1B681BB1024A1368013B1360704707
:101F10008004002008B50222002100F0D3F808BD9B
:101F200010B504460846FEF7B5FA02460B460020F7
:101F3000084900F053F9FEF7B1FD94FBF0F0064AB2
:101F400082FB0032C317C3EBA20303EB8303A0EBB6
:101F5000430010BD0000244067666666002103E070
:101F60000A4B5B584350043109480A4B42189A42C5
:101F7000F6D3094A02E0002342F8043B074B9A4299
:101F8000F9D3FFF715F8FFF74DFF704770320008DF
:101F900000000020340400203404002088040020C5
:101FA000FEE700002DE9F04F814645488E46754614
:101FB0001EF801CB10F80C4014F00804F7D1BCF166
:101FC0002D0FE34654D0BCF12B0F08BF9EF800B094
:101FD0006FF0004808BF05F1020E1BB1102B4FD067
:101FE0001F4604E0BBF1300F55D00A231F460025E1
:101FF000B8FBF7F6284607FB168A07E0864215D39A
:1020000029D007FB00C001251EF801BBABF1300C45
:10201000BCF1090F06D9ABF1410CBCF1190F08D87E
:10202000ABF1370C63450DDD002DE7DA4FF0FF35DE
:10203000EAE7ABF1610CBCF1190F03D8ABF1570C17
:102040006345F1DC002D0BDB04B140420AB195BBC6
:102050001160BDE8F08FE245D3DA4FF0FF35D3E7EA
:102060002223C9F800301AB30EF1FF314046EFE7E2
:102070009EF800B04FF0004805F1020E0124ACE7D5
:10208000BBF1300FACD19EF8000000F0DF00582803
:1020900007D01F46ABE79EF8003003F0DF03582B54
:1020A0000BD110279EF801B03B460EF1020E9EE7C1
:1020B0004046BDE8F08F8046D6E708231F4696E7E6
:1020C00061310008012A09D0242A134606D8074A9C
:1020D000844610680A466146FFF764BF10B500F0F9
:1020E00017F816230360002010BD00BF0400002075
:1020F000024B13B1024800F005B870470000000021
:102100001D210008002301461A46184600F020B899
:10211000014B1868704700BF0400002038B5084B19
:10212000084D5B1B9C1007D0043B1D44013C55F837
:1021300004399847002CF9D1BDE8384000F0A8BF19
:10214000703200086C320008704700BF704700BF53
:102150002DE9F047DFF87CA00646DAF80000984643
:102160000F469146FFF7F0FF1B4B1B68D3F8484121
:1021700024B365681F2D26DC5EB96B1C0235DAF8C6
:102180000000636044F82570FFF7E0FF0020BDE821
:10219000F08704EB85010123C1F88890D4F88821E9
:1021A000AB401A43022EC4F88821C1F80881E4D15B
:1021B000D4F88C211343C4F88C31DEE703F5A67400
:1021C000C3F84841D5E7DAF80000FFF7BFFF4FF04A
:1021D000FF30DCE7300400205C3100082DE9F843D3
:1021E00014461D468046894600F066F8224606469B
:1021F0000F462B4620462946FEF778FC78B9002288
:10220000002340464946FEF717FCD8B100220023C0
:1022100020462946FEF710FC28B1264F00263046FE
:102220003946BDE8F8832046294600F0ABFE002879
:10223000F5D02046294600220023FEF707FC00289F
:10224000EDD02CE03046394600F09CFEA0B10022D3
:10225000002330463946FEF7EFFB0028DFD040462A
:10226000494600F08FFE0028D9D02046294600F0CC
:1022700089FE0028D3D012E04046494600F082FE95
:102280000028E4D02046294600F07CFE0028DED05D
:1022900032463B4630463946FEF728FC20B9FFF768
:1022A00037FF22230360BAE7FFF732FF21230360E1
:1022B000B5E700BF0000F03F2DE9F04F23F0004BE1
:1022C00088465BEA020193B014461D46074611D1C9
:1022D000031888F4002275485241994270EB0203BA
:1022E00020D23846414622462B46FDF787FF13B0E1
:1022F000BDE8F08F10466E4A28F0004991459A4695
:1023000046463B4615DD06F1404606F580161E435F
:10231000E7D12319654985F4002252419E4271EBB1
:102320000203DED3634C00231846214613B0BDE8F8
:10233000F08F3ED05E4A9345E5DC00F08880002EA9
:1023400069DB0022009278B9594A934500F08380F6
:10235000584A934500F09780BAF1804F00F0958479
:10236000554A924500F0B58338464146029300F045
:1023700005FE029B4BB3009AF30F013B0A931343F4
:1023800000F088804D4B9B4540F39E8003F1047321
:102390009B454B4B40F30C84994540F38684BAF13E
:1023A000000F40F38684002013B0BDE8F04F00F02A
:1023B000DFBD002F95D1BDE738464146009300F0C0
:1023C000DDFD009B002B65D10093B9F1000F04D017
:1023D000384B26F040429A42CDD1BAF1000F05DACF
:1023E00002460B4600203349FEF7E8F9002EBFF6FF
:1023F0007EAF009B09F1404909F5801959EA0303B2
:1024000040F0678402460B46FDF7F6FE02460B4697
:10241000FEF7D4F96BE72B4A93452EDCA2F15472F8
:1024200093450FDD4FEA2B52A2F2FF32142A40F3FC
:102430004284C2F1340220FA02F101FA02F282422D
:1024400000F0708400220092002881D08CE70028E0
:102450003FF475AF57E709F1404202F5801213438C
:102460003FF460AF164B994540F36783BAF1000F14
:10247000C0F25D832046294639E7022200920028F7
:102480003FF462AF70E7BAF1000FC0F2F68338464E
:1024900041462CE73A46434638464146FDF7ACFEF6
:1024A00002460B46FEF78AF921E700BF0000F0FF65
:1024B0000000F07F0000F03F0000E03F0000E0413E
:1024C000FFFFEF3FFFFF3F43D54B334000222BB9C7
:1024D000D44BFEF749F86FF0340289464FEA29538E
:1024E000A3F2FF339A18D04B0B92C9F3130949F0AA
:1024F0007F56994546F4401607DDCC4B994540F38D
:10250000F18301320B92A6F5801600220023CDE95B
:102510000823CDE91023C64B0022CDE9062300276E
:10252000DDE9062331468246FDF766FEB346DDE966
:1025300006238046894650463146CDE90CABFDF76F
:102540005DFE02460B460020B949FEF737F90A4600
:102550000146CDE90E121346494602464046FEF7B3
:1025600003F80A4683469446CDE902BC4FF0000CBE
:10257000CDF808C07610DDE902AB46F00056014602
:1025800006F50023CDE904120020D91906460F46AE
:1025900002460B4650465946FDF7E6FF02460B46FB
:1025A00040464946FDF728FEDDE906238046894678
:1025B00030463946FDF720FE02460B46DDE90C01A8
:1025C000FDF71AFE52465B46FDF7CEFF02460B466C
:1025D00040464946FDF710FEDDE90E23FDF7C4FF36
:1025E000DDE90467CDE9060132463B46304639460F
:1025F000FDF7BAFF78A3D3E9002306460F46FDF79F
:10260000B3FF77A3D3E90023FDF7F8FD32463B463D
:10261000FDF7AAFF74A3D3E90023FDF7EFFD3246CF
:102620003B46FDF7A1FF72A3D3E90023FDF7E6FDCA
:1026300032463B46FDF798FF6FA3D3E90023FDF731
:10264000DDFD32463B46FDF78FFF6DA3D3E9002346
:10265000FDF7D4FD3246804689463B463046394632
:10266000FDF782FF02460B4640464946FDF77CFFD8
:10267000524606460F465B46DDE90401FDF7BEFD06
:10268000DDE90623FDF770FF32463B46FDF7B6FD58
:102690005246804689465B4650465946FDF764FFE0
:1026A00002460B46CDE90C23624B0022FDF7A6FD46
:1026B00042464B46FDF7A2FD00260F4632463B46FA
:1026C00050465946FDF750FF5A4B82468B46002232
:1026D00030463946FDF790FDDDE90C23FDF78CFD12
:1026E00002460B4640464946FDF786FDDDE90423D8
:1026F000FDF73AFF3246804689463B46DDE9060152
:10270000FDF732FF02460B4640464946FDF776FD8F
:102710008046894602460B4650465946FDF76EFDF7
:10272000002639A3D3E9002330460F46FDF71CFFEE
:1027300052465B4682468B4630463946FDF75CFD85
:1027400002460B4640464946FDF756FD30A3D3E905
:102750000023FDF709FF30A3D3E900238046894613
:1027600030463946FDF700FF02460B4640464946D3
:10277000FDF744FDDDE91023FDF740FD80460B9891
:102780008946FDF787FE424606460F464B465046B1
:102790005946CDE904ABFDF731FDDDE90823FDF72E
:1027A0002DFD32463B46FDF729FD4FF0000A32462B
:1027B0003B4650468B46FDF71FFDDDE90823FDF73C
:1027C0001BFDDDE90423FDF717FD02460B464046DD
:1027D0004946FDF711FD2FE0EF4E454A287ECA3FDE
:1027E00065DBC9934A86CD3F01411DA96074D13F85
:1027F0004D268F515555D53FFFAB6FDBB66DDB3F97
:10280000033333333333E33F000000E009C7EE3FC7
:10281000FD033ADC09C7EE3FF5015B14E02F3EBE35
:102820000000F07F000040438E98030079B60B0053
:102830000000F03F00000840CDE90201009B0A9A29
:10284000013B13430CBFD44BD44B0022CDE90423EE
:102850000023CDE900450093DDE90089204642468A
:102860004B462946FDF7C8FC52465B46FDF77CFE09
:10287000224606460F462B46DDE90201FDF774FEAF
:1028800002460B4630463946FDF7B8FC42464B46F9
:1028900006460F4650465946FDF766FE0B46024671
:1028A00004460D4630463946FDF7A8FCBC4B99421C
:1028B000804689468A4640F3168101F13F4303F57D
:1028C000E003034340F02382A1A3D3E90023304671
:1028D0003946FDF793FC2246CDE900012B464046E0
:1028E0004946FDF789FC02460B46DDE90001FEF78B
:1028F000CBF8002840F00B82CAF30A534FF4801241
:10290000A3F2FE3342FA03F35344A649C3F30A5237
:10291000A2F2FF3241FA02FCC3F31301C2F1140226
:1029200041F4801141FA02FE002023EA0C01BAF1C1
:10293000000FCDF808E002460B4602DA7146494224
:10294000029120462946FDF757FC029B1B05009388
:1029500002460B4604460D4630463946FDF74EFC0E
:1029600089464FF000087CA3D3E90023404649463E
:10297000FDF7FAFD224682468B462B4640464946E5
:10298000FDF73AFC02460B4630463946FDF734FC6B
:1029900073A3D3E90023FDF7E7FD73A3D3E9002375
:1029A00004460D4640464946FDF7DEFD02460B460D
:1029B00020462946FDF722FC06460F4602460B46F6
:1029C00050465946FDF71AFC52465B4604460D46F2
:1029D000FDF712FC02460B4630463946FDF70CFC6B
:1029E000224682468B462B4620462946FDF7BCFDF3
:1029F0005FA3D3E9002306460F46FDF7B5FD5EA3AE
:102A0000D3E90023FDF7F8FB32463B46FDF7ACFD6A
:102A10005BA3D3E90023FDF7F1FB32463B46FDF70C
:102A2000A3FD59A3D3E90023FDF7E6FB32463B465D
:102A3000FDF79AFD56A3D3E90023FDF7DFFB3246ED
:102A40003B46FDF791FD02460B4620462946FDF721
:102A5000D3FB06460F4602460B4620462946FDF7A5
:102A600083FD002280468946304639464FF0804338
:102A7000FDF7C2FB02460B4640464946FDF79EFE67
:102A8000524606460F465B4620462946FDF76CFD3A
:102A900052465B46FDF7B2FB02460B4630463946CE
:102AA000FDF7AAFB22462B46FDF7A6FB02460B4686
:102AB00000203A49FDF7A0FB009D0C462C44B4F5DC
:102AC000801FC0F220812146DDE90423FDF74CFD83
:102AD0000DE4002EFFF648AC3846414613B0BDE881
:102AE000F04F00F055B9DFF8C0C021F00043634556
:102AF00040F3D3802D4B0B4403430AD122462B468F
:102B0000FDF77AFB32463B46FDF7B4FF00283FF461
:102B1000F3AEDDE9040100220023FDF797FF003842
:102B200018BF012013B0BDE8F04F00F01BBA00231E
:102B3000002418462146FFF7DABBBAF1000FF6DA97
:102B400005F1004320461946FFF7D1BBAFF30080E3
:102B5000FE822B654715973C00000000432EE63FA0
:102B6000EF39FAFE422EE63F396CA80C615C20BEBC
:102B7000D0A4BE726937663EF16BD2C541BDBB3E83
:102B80002CDE25AF6A56113F93BDBE166CC1663F61
:102B90003E5555555555C53F0000F0BF0000F03F6C
:102BA000FFFF8F40FFFF0F00FFCB904000346F3FCF
:102BB00099457ADB724B99453FF7F1AB704B002298
:102BC000FDF71AFB62A3D3E9002306460F46FDF783
:102BD000CBFC61A3D3E900238046894630463946C1
:102BE000FDF7C2FC674B82468B46002230463946D1
:102BF000FDF7BAFC02460B4659A1D1E90001FDF7E9
:102C0000FBFA32463B46FDF7AFFC02460B4600207E
:102C10005D49FDF7F1FA3246CDE902013B46304607
:102C20003946FDF7A1FC02460B46DDE90201FDF73E
:102C30009BFC4DA3D3E90023FDF796FC02460B460F
:102C400050465946FDF7D8FA02460B4606460F464F
:102C500040464946FDF7D2FA4FF0000A42464B463D
:102C600050468B46FDF7C8FA02460B4630463946B9
:102C7000FDF7C2FACDE90201E0E53A464346404994
:102C80000020FDF79BFDFFF732BB3A46384643462E
:102C90004146FDF769FCFFF72ABB3B4A934252DCF1
:102CA000DDE90023009202925BE6BAF1000FFFF625
:102CB0007AAB002036E700287FF47EABC2F1140225
:102CC0004BFA02F101FA02F25A4535D00090FFF7B3
:102CD0003FBB009B012B7FF40AAB01F10043194677
:102CE000FFF705BB22A3D3E90023CDE9082322A3E4
:102CF000D3E90023CDE91023244B0022CDE906239C
:102D00004FF480270CE4029A00F042F9DCE6DDE99A
:102D1000040100220023FDF799FE003818BF0120AE
:102D2000FFF742BB01F00101C1F10202009200284D
:102D30003FF40EABFFF718BB01F00101C1F1020235
:102D40000092FFF705BB1B15D8E500BFAFF300806D
:102D5000000000604715F73F44DF5DF80BAE543EBE
:102D6000555555555555D53FFE822B654715F73FAF
:102D70000000004003B8E23F06D0CF43EBFD4C3EDD
:102D80000000F03F0000D03F0000E03F0000F83FAF
:102D9000614A8A432DE9F84305460C4600F09E80BF
:102DA00000290B46844654DD091562D0C3F3130392
:102DB000C807A1F2FF3743F4801304D45B0003EB90
:102DC000DC734FEA4C0C4FEADC72002602EB430343
:102DD0007F104FEA4C0C4FF0160E34464FF40012A1
:102DE000A118994202DC5B1A8C1816445B00BEF1F4
:102DF000010E03EBDC734FEA52024FEA4C0CEFD1A9
:102E0000754620204FF000420AE043D04FEADC71C3
:102E1000013801EB43034FEA4C0C4FEA520242D017
:102E2000A34202EB0E01F0DD002901EB020E0ADBEA
:102E3000A0461B1B614588BF03F1FF33ACEB010CBF
:102E400015444446E2E7BEF1000FF1DB04F101084E
:102E5000EFE721F00042024336D000294CD14FEA7F
:102E6000DC22153913464FEA4C5C002AF7D0D60213
:102E70004CD400205B00DD02044600F10100F9D5CE
:102E80001A4663460CFA00FCC0F12000C340091B3F
:102E900013438BE76145B9D8002901EB020ED2DB61
:102EA00098460023CAE753EA0C0311D1680873104F
:102EB00003F17F5303F50013F20748BF40F00040D1
:102EC00003EB075905464C4628462146BDE8F883E2
:102ED000691C16BF681C01364008E8E702460B462D
:102EE000FDF742FB2A462346FDF788F905460C46C6
:102EF00028462146BDE8F8830246FDF77DF90246E3
:102F00000B46FDF75BFC05460C46DDE763462020DB
:102F10004FF0FF34BAE700BF0000F07FD0B506469F
:102F20000F461446FFF7F4F80346394630461C6056
:102F3000D0BD00BF30B583B080B1144603F1004569
:102F4000CDE9004510461946DDE90023FDF70CFBED
:102F5000222203B0BDE83040FFF7E0BF14461D4613
:102F6000EEE700BF00224FF08053FFF7E3BF00BF42
:102F700000224FF0E043FFF7DDBF00BF21F000412A
:102F8000704700BF41F0004000F58010C00F70474F
:102F9000C1F30A5370B58C4604460D4616467BBBFA
:102FA00021F0004C03465CEA030328D0304B00229A
:102FB000FDF7DAFA2F4B9E4204460D461ADBC1F3A9
:102FC0000A538C46363B334440F2FE72934220DC77
:102FD000002B3CDC13F1350F2CDA4CF250339E42BF
:102FE00017DC05F0004343F0D27141F4B7312248B9
:102FF00041F01F011AA3D3E90023FDF7B5FA70BD14
:1030000040F2FF729342DED102460B46FDF7F6F81E
:1030100070BD05F0004343F0FC4141F45F1141F401
:10302000105111A3D3E90023144841F03C01FDF7EE
:103030009BFA70BD2CF0FF4C36332CF4E00C4CEABC
:10304000035120460E4B0022FDF78EFA70BD2CF086
:10305000FF4C2CF4E00C20464CEA035170BD00BF3D
:1030600059F3F8C21F6EA5019C7500883CE4377EB9
:1030700000005043B03CFFFF59F3F8C29C75008834
:103080000000903CF8B500BFF8BC08BC9E467047F5
:0C309000F8B500BFF8BC08BC9E467047B5
:10309C0000000000000000000102030406070809FC
:1030AC000000000001020304313131313130303085
:1030BC000000000030303030303030310000000083
:1030CC0030303131303030300000000030303030B2
:1030DC0030303030000000003131303131303030A0
:1030EC000000000030303030303031300000000053
:1030FC003031313131303030000000003030303080
:10310C00303031310000000030313130313030306E
:10311C00000000003131313031303030000000001F
:10312C003030313131303030000000003030303050
:10313C003031303000000000303030303031313040
:10314C0000000000303030303031313100000000F0
:10315C0008000020002020202020202020202828CB
:10316C00282828202020202020202020202020203B
:10317C00202020202088101010101010101010107B
:10318C0010101010100404040404040404040410AB
:10319C001010101010104141414141410101010139
:1031AC000101010101010101010101010101010103
:1031BC00101010101010424242424242020202020F
:1031CC0002020202020202020202020202020202D3
:1031DC001010101020000000000000000000000083
:1031EC0000000000000000000000000000000000D3
:1031FC0000000000000000000000000000000000C3
:10320C0000000000000000000000000000000000B2
:10321C0000000000000000000000000000000000A2
:10322C000000000000000000000000000000000092
:10323C000000000000000000000000000000000082
:10324C000000000000000000000000000000000072
:08325C0000000000000000006A
:08326400F1200008D50100086B
:04326C00B1010008A4
:1032700000C2EB0B0800002000000000F402002058
:103280005C030020C40300200000000000000000D8
:10329000000000000000000000000000000000002E
:1032A000000000000000000000000000000000001E
:1032B000000000000000000000000000000000000E
:1032C00000000000000000000000000000000000FE
:1032D00000000000000000000000000000000000EE
:1032E00000000000000000000000000000000000DE
:1032F00000000000000000000000000000000000CE
:1033000000000000000000000000000000000000BD
:1033100000000000000000000000000000000000AD
:1033200001000000000000000E33CDAB34126DE64A
:10333000ECDE05000B0000000000000000000000B3
:10334000000000000000000000000000000000007D
:10335000000000000000000000000000000000006D
:10336000000000000000000000000000000000005D
:10337000000000000000000000000000000000004D
:0436A000840400207E
:0400000508001F5D73
:00000001FF
