:020000040800F2
:1000000000000320291C0008B9100008BB100008DC
:10001000BD100008BF100008C1100008000000005B
:10002000000000000000000000000000C3100008F5
:10003000C510000800000000C7100008C910000823
:100040006D1C00086D1C00086D1C00086D1C00086C
:100050006D1C00086D1C00086D1C00086D1C00085C
:100060006D1C00086D1C00086D1C00086D1C00084C
:100070006D1C00086D1C00086D1C00086D1C00083C
:100080006D1C00086D1C00086D1C00086D1C00082C
:100090006D1C00086D1C00086D1C00086D1C00081C
:1000A0006D1C00086D1C00086D1C00086D1C00080C
:1000B0006D1C00086D1C00086D1C00086D1C0008FC
:1000C0006D1C00086D1C00086D1C00086D1C0008EC
:1000D0006D1C0008000000006D1C00086D1C00086D
:1000E0006D1C00086D1C00086D1C00086D1C0008CC
:1000F0006D1C00086D1C00086D1C00086D1C0008BC
:100100006D1C00086D1C00086D1C00086D1C0008AB
:100110006D1C00086D1C00086D1C00086D1C00089B
:100120006D1C00086D1C00086D1C00086D1C00088B
:100130006D1C00086D1C00086D1C00086D1C00087B
:100140006D1C00086D1C00086D1C00086D1C00086B
:100150006D1C00086D1C00086D1C00086D1C00085B
:100160006D1C00086D1C00086D1C00086D1C00084B
:100170006D1C00086D1C00086D1C000800000000CC
:100180006D1C00086D1C00086D1C00086D1C00082B
:100190006D1C00086D1C00086D1C000800000000AC
:0C01A0006D1C00086D1C00086D1C0008A0
:1001B00010B5054C237833B9044B13B10448AFF3A1
:1001C00000800123237010BD4408002000000000BF
:1001D000DC3E000808B5034B1BB103490348AFF3ED
:1001E000008008BD0000000048080020DC3E000838
:1001F00081F0004102E000BF83F0004330B54FEAD8
:1002000041044FEA430594EA050F08BF90EA020F44
:100210001FBF54EA000C55EA020C7FEA645C7FEAD7
:10022000655C00F0E2804FEA5454D4EB5555B8BFFA
:100230006D420CDD2C4480EA020281EA030382EA6B
:10024000000083EA010180EA020281EA0303362DFD
:1002500088BF30BD11F0004F4FEA01314FF4801CD0
:100260004CEA113102D0404261EB410113F0004FE2
:100270004FEA03334CEA133302D0524263EB430399
:1002800094EA050F00F0A780A4F10104D5F1200E37
:100290000DDB02FA0EFC22FA05F2801841F1000192
:1002A00003FA0EF2801843FA05F359410EE0A5F166
:1002B00020050EF1200E012A03FA0EFC28BF4CF097
:1002C000020C43FA05F3C01851EBE37101F000454D
:1002D00007D54FF0000EDCF1000C7EEB00006EEB5A
:1002E0000101B1F5801F1BD3B1F5001F0CD34908E4
:1002F0005FEA30004FEA3C0C04F101044FEA44523B
:1003000012F5800F80F09A80BCF1004F08BF5FEAC1
:10031000500C50F1000041EB045141EA050130BDA1
:100320005FEA4C0C404141EB0101013C28BFB1F5B3
:10033000801FE9D291F0000F04BF01460020B1FAFE
:1003400081F308BF2033A3F10B03B3F120020CDAD1
:100350000C3208DD02F1140CC2F10C0201FA0CF0AF
:1003600021FA02F10CE002F11402D8BFC2F1200C14
:1003700001FA02F120FA0CFCDCBF41EA0C019040CA
:10038000E41AA2BF01EB0451294330BD6FEA040413
:100390001F3C1CDA0C340EDC04F11404C4F12002FE
:1003A00020FA04F001FA02F340EA030021FA04F310
:1003B00045EA030130BDC4F10C04C4F1200220FA67
:1003C00002F001FA04F340EA0300294630BD21FAA5
:1003D00004F0294630BD94F0000F83F4801306BF6B
:1003E00081F480110134013D4EE77FEA645C18BF5F
:1003F0007FEA655C29D094EA050F08BF90EA020FF6
:1004000005D054EA000C04BF1946104630BD91EAED
:10041000030F1EBF0021002030BD5FEA545C05D1F0
:100420004000494128BF41F0004130BD14F580042F
:100430003CBF01F5801130BD01F0004545F0FE41A3
:1004400041F470014FF0000030BD7FEA645C1ABFD8
:10045000194610467FEA655C1CBF0B46024650EA0F
:10046000013406BF52EA033591EA030F41F400213B
:1004700030BD00BF90F0000F04BF0021704730B5C1
:100480004FF4806404F132044FF000054FF0000196
:1004900050E700BF90F0000F04BF0021704730B557
:1004A0004FF4806404F1320410F0004548BF40422C
:1004B0004FF000013EE700BF42004FEAE2014FEA81
:1004C00031014FEA02701FBF12F07F4393F07F4F5C
:1004D00081F06051704732F07F4208BF704793F05F
:1004E0007F4F04BF41F40021704730B54FF4607472
:1004F00001F0004521F000411CE700BF50EA010275
:1005000008BF704730B54FF000050AE050EA01021D
:1005100008BF704730B511F0004502D5404261EB8D
:1005200041014FF4806404F132045FEA915C3FF4CE
:10053000D8AE4FF003025FEADC0C18BF03325FEA6B
:10054000DC0C18BF033202EBDC02C2F1200300FA1C
:1005500003FC20FA02F001FA03FE40EA0E0021FA41
:1005600002F11444BDE600BF4FEA410212F5001249
:1005700015D211D56FF47873B3EB625212D94FEAEA
:10058000C12343F0004343EA505311F0004F23FAD4
:1005900002F018BF404270474FF00000704750EA29
:1005A000013005D111F0004008BF6FF000407047E6
:1005B0004FF00000704700BF70B54FF0FF0C4CF4D7
:1005C000E06C1CEA11541DBF1CEA135594EA0C0F91
:1005D00095EA0C0F00F0DEF82C4481EA030621EACC
:1005E0004C5123EA4C5350EA013518BF52EA033507
:1005F00041F4801143F4801338D0A0FB02CE4FF0B9
:100600000005E1FB02E506F00042E0FB03E54FF0E8
:100610000006E1FB03569CF0000F18BF4EF0010EE0
:10062000A4F1FF04B6F5007F64F5407404D25FEADC
:100630004E0E6D4146EB060642EAC62141EA55518F
:100640004FEAC52040EA5E504FEACE2EB4F1FD0CD1
:1006500088BFBCF5E06F1ED8BEF1004F08BF5FEA4F
:10066000500E50F1000041EB045170BD06F0004601
:1006700046EA010140EA020081EA0301B4EB5C04AE
:10068000C2BFD4EB0C0541EA045170BD41F48011A6
:100690004FF0000E013C00F3AB8014F1360FDEBFCB
:1006A000002001F0004170BDC4F10004203C35DAA7
:1006B0000C341BDC04F11404C4F1200500FA05F32A
:1006C00020FA04F001FA05F240EA020001F00042CB
:1006D00021F0004110EBD37021FA04F642EB060141
:1006E0005EEA430E08BF20EAD37070BDC4F10C046B
:1006F000C4F1200500FA04F320FA05F001FA04F22F
:1007000040EA020001F0004110EBD37041F100011A
:100710005EEA430E08BF20EAD37070BDC4F1200525
:1007200000FA05F24EEA020E20FA04F301FA05F28D
:1007300043EA020321FA04F001F0004121FA04F235
:1007400020EA020000EBD3705EEA430E08BF20EA05
:10075000D37070BD94F0000F0FD101F0004640003F
:1007600041EB010111F4801F08BF013CF7D041EAC1
:10077000060195F0000F18BF704703F000465200C5
:1007800043EB030313F4801F08BF013DF7D043EA96
:100790000603704794EA0C0F0CEA135518BF95EA4C
:1007A0000C0F0CD050EA410618BF52EA4306D1D1D3
:1007B00081EA030101F000414FF0000070BD50EAF2
:1007C000410606BF1046194652EA430619D094EA7C
:1007D0000C0F02D150EA013613D195EA0C0F05D166
:1007E00052EA03361CBF104619460AD181EA0301BA
:1007F00001F0004141F0FE4141F470014FF0000072
:1008000070BD41F0FE4141F4780170BD70B54FF00C
:10081000FF0C4CF4E06C1CEA11541DBF1CEA13558C
:1008200094EA0C0F95EA0C0F00F0A7F8A4EB05046E
:1008300081EA030E52EA03354FEA013100F0888065
:100840004FEA03334FF0805545EA131343EA12632E
:100850004FEA022245EA111545EA10654FEA0026E3
:100860000EF000419D4208BF964244F1FD0404F59C
:10087000407402D25B084FEA3202B61A65EB0305F8
:100880005B084FEA32024FF480104FF4002CB6EBB5
:10089000020E75EB030E22BFB61A754640EA0C0035
:1008A0005B084FEA3202B6EB020E75EB030E22BF75
:1008B000B61A754640EA5C005B084FEA3202B6EBB6
:1008C000020E75EB030E22BFB61A754640EA9C0075
:1008D0005B084FEA3202B6EB020E75EB030E22BF45
:1008E000B61A754640EADC0055EA060E18D04FEA03
:1008F000051545EA16754FEA06164FEAC30343EAA3
:1009000052734FEAC2025FEA1C1CC0D111F4801F6F
:100910000BD141EA00014FF000004FF0004CB6E768
:1009200011F4801F04BF01430020B4F1FD0C88BF07
:10093000BCF5E06F3FF6AFAEB5EB030C04BFB6EB12
:10094000020C5FEA500C50F1000041EB045170BD05
:100950000EF0004E4EEA113114EB5C04C2BFD4EB32
:100960000C0541EA045170BD41F480114FF0000EB6
:10097000013C90E645EA060E8DE60CEA135594EA32
:100980000C0F08BF95EA0C0F3FF43BAF94EA0C0F35
:100990000AD150EA01347FF434AF95EA0C0F7FF4AA
:1009A00025AF104619462CE795EA0C0F06D152EAFE
:1009B00003353FF4FDAE1046194622E750EA4106E2
:1009C00018BF52EA43067FF4C5AE50EA41047FF4F3
:1009D0000DAF52EA43057FF4EBAE12E74FF0FF3C58
:1009E00006E000BF4FF0010C02E000BF4FF0010C29
:1009F0004DF804CD4FEA410C7FEA6C5C4FEA430CA2
:100A000018BF7FEA6C5C1BD001B050EA410C0CBFF0
:100A100052EA430C91EA030F02BF90EA020F002052
:100A2000704710F1000F91EA030F58BF994208BFB9
:100A300090422CBFD8176FEAE37040F00100704776
:100A40004FEA410C7FEA6C5C02D150EA013C07D1CD
:100A50004FEA430C7FEA6C5CD6D152EA033CD3D018
:100A60005DF8040B704700BF8446104662468C4612
:100A70001946634600E000BF01B5FFF7B7FF002845
:100A800048BF10F1000F01BD4DF808EDFFF7F4FF6E
:100A90000CBF012000205DF808FB00BF4DF808EDF9
:100AA000FFF7EAFF34BF012000205DF808FB00BF1C
:100AB0004DF808EDFFF7E0FF94BF012000205DF83E
:100AC00008FB00BF4DF808EDFFF7CEFF94BF0120F3
:100AD00000205DF808FB00BF4DF808EDFFF7C4FFEC
:100AE00034BF012000205DF808FB00BF4FEA410C35
:100AF0007FEA6C5C02D150EA013C0AD14FEA430C18
:100B00007FEA6C5C02D152EA033C02D14FF0000054
:100B100070474FF001007047F0B50568C6684FF0A8
:100B2000000C03E00CF1010C1FFA8CFCBCF10F0F60
:100B300018D84FF0010E0EFA0CFE1EEA030FF1D08A
:100B40004FEA4C044FF0030E0EFA04FE25EA0E05A0
:100B500001FA04F73D4326EA0E0E02FA04F444EAD1
:100B60000E06DFE70560C660F0BD10B5012906D0AE
:100B7000416821EA030141608468002105E0416881
:100B800019434160F8E7013189B20F2913D84FF0BA
:100B9000010C0CFA01FC1CEA030FF4D04FEA410CE3
:100BA0004FF0030E0EFA0CFE24EA0E0402FA0CFCBF
:100BB0004CEA0404E7E7846010BD30B5046A456A76
:100BC000002301E001339BB2072B13D84FF0010C37
:100BD0000CFA03FC1CEA020FF4D04FEA830E4FF02C
:100BE0000F0C0CFA0EFC24EA0C0401FA0EFE4EEA7D
:100BF0000404E7E7082301E001339BB20F2B15D86B
:100C00004FF0010C0CFA03FC1CEA020FF4D0A3F124
:100C1000080C4FEA8C0C4FF00F0E0EFA0CFE25EA72
:100C20000E0501FA0CFC4CEA0505E5E70462456295
:100C300030BD000070B505460C461646022000F097
:100C4000CBF82C4BA3FB00239B0C2B4A904219D2D0
:100C50001A46696821F03F011143696027498C42B7
:100C600019D801333B2B0FD93C232B626400B0FB16
:100C7000F4F0032800D80420EC69C0F30B002043F3
:100C8000E86170BD3C22E4E7022B02D802232B620C
:100C9000ECE72B62EAE71A4B9C42F2D84FF49673CA
:100CA00002FB03F3174AA2FB03239B0901332B62C8
:100CB000A6B904EB4404B0FBF4F0EB6923F48043E1
:100CC000EB61C0F30B030BB940F00100EB6943F497
:100CD0000043EB61EC692043E861D2E704EB840454
:100CE00004EB8404B0FBF4F0EB6943F48043EB6164
:100CF000E7E700BF83DE1B4300879303A086010064
:100D0000801A0600D34D621010B4046824F0020C5F
:100D10004CEA01010160C3F309031343836010BC73
:100D20007047036823F480630B43036070470368D4
:100D300023F400630B430360704712F1020F03D0EA
:100D400041F001010161704721F00101FAE70368F8
:100D500043F0010303607047036843F4807303604A
:100D60007047036843F40073036070470161704784
:100D70000069C0B270478B091B5801F01F0123FAAC
:100D800001F111F0010F01D00120704700207047E0
:100D900040F2015399420DD04FEA911C5CF80030AB
:100DA00001F01F01012202FA01F123EA01014CF8CE
:100DB00000107047436983697047830903F18043DA
:100DC00003F50E331A6800F01F00012101FA00F04C
:100DD000104318607047000010B588B08446344C4A
:100DE00094E80F000DF1200E0EE90F0002AB103455
:100DF00094E8030083E803006B4683E803002D4B6F
:100E0000D3F80838C3F38103012B1FD0022B1FD165
:100E1000284AD2F8044804F03F04D2F80418C1F379
:100E20008811D2F80408C0F3014001304300D2F821
:100E3000042812F4800F07D01F48B0FBF4F001FB28
:100E400000F0B0FBF3F004E01C48F6E71A4800E0BD
:100E50001A481849D1F80838C3F3031320336B44F8
:100E600013F8102C20FA02F2D1F80838C3F38223C9
:100E700020336B4413F8183C22FA03F4D1F80838F5
:100E8000C3F3423320336B4413F8203C22FA03F3BC
:100E9000BCF1030F03D8DFE80CF0050407090020BC
:100EA00000E0104608B010BD2046FBE71846F9E701
:100EB000F43E00080030024040787D010024F40038
:100EC000C1F30801416070478B091B5801F01F01F5
:100ED00023FA01F111F0010F01D001207047002029
:100EE00070470000364AD2F8003843F48033C2F825
:100EF000003800230133324AD2F8002812F4003FB0
:100F000003D14FF6FF729342F4D12D4BD3F8003842
:100F100013F4003F00D1FEE7294BD3F8402842F0FC
:100F20008052C3F8402827490A6842F440420A60C8
:100F3000D3F80828C3F80828D3F8082842F4004258
:100F4000C3F80828D3F8082842F4A052C3F80828A8
:100F50001D4AC3F80428D3F8002842F08072C3F871
:100F60000028174BD3F8003813F0007FF9D0154A4A
:100F7000136843F480331360124B5B6813F4803FB3
:100F8000FAD0104A136843F4003313600D4B5B68CA
:100F900013F4003FFAD00A4BD3F8082822F00302DA
:100FA000C3F80828D3F8082842F00202C3F808283A
:100FB000034BD3F8083813F0080FF9D0704700BF7F
:100FC00000300240007000401964400908B5FFF786
:100FD00089FF08BD00B583B0264BD3F8002842F046
:100FE0000102C3F80028D3F8082842F08002C3F8B1
:100FF00008280023019302E0019B01330193019A29
:101000004CF24F339A42F7D91A4AD2F8083843F0D3
:101010009003C2F808380023019302E0019B0133DA
:101020000193019A4CF24F339A42F7D9114BD3F8FE
:10103000082822F00302C3F80828D3F8002822F079
:10104000847222F48032C3F80028D3F8002822F4F6
:101050008022C3F800280022C3F80828D3F8081813
:101060000549C3F80418C3F80C28FFF7AFFF03B015
:101070005DF804FB003002401030002410B5044637
:1010800001460548FFF71CFF07210348FFF71CFF37
:101090000028F9D0204610BD0010014070B50C4664
:1010A0001646002504E014F8010BFFF7E7FF0135B1
:1010B000B542F8DB304670BD7047FEE7FEE7FEE75D
:1010C000FEE770477047704708B500F07FFD08BD28
:1010D00010B540F60140FFF770FE154C4FF48072DA
:1010E00004212046FFF769FD4FF4007204212046D9
:1010F000FFF763FD4FF48073012202212046FFF7C2
:101100000BFD4FF48073022201212046FFF72DFDD5
:101110004FF40073012202212046FFF7FDFC4FF43B
:101120000073022201212046FFF71FFD10BD00BF02
:101130000004024010B541F21500FFF73EFE0A4CD4
:1011400000220A492046FFF775FDA0230022114620
:101150002046FFF7D9FD2046FFF7F9FD4FF48061E7
:101160002046FFF7DEFD10BD00540040A0860100C0
:1011700010B540F60540FFF720FE124C0222042174
:101180002046FFF71AFD012204212046FFF715FD36
:1011900001231A4602212046FFF7BEFC012302224A
:1011A00019460948FFF7E1FC0223012219462046AF
:1011B000FFF7B2FC02231A4601212046FFF7D5FCB7
:1011C00010BD00BF00140240000C024010B541F2F7
:1011D0001600FFF7F2FD0A4C00220A492046FFF7ED
:1011E00029FDA023002211462046FFF78DFD204651
:1011F000FFF7ADFD4FF480612046FFF792FD10BD73
:1012000000580040A086010070B505460C4640F22B
:1012100001612846FFF7AFFD06460028F7D12846B2
:10122000FFF79AFD4FF4A0612846FFF7A4FD0028C0
:10123000F8D06FF0010221462846FFF77EFD00241A
:1012400040F201512846FFF796FD28B90134A4B2B7
:101250004EF660239C42F3D94EF660239C4200D8A0
:1012600001262846FFF77DFD2B6813F4007FFBD194
:10127000304670BD70B505460C46164640F2016119
:101280002846FFF778FD0028F8D12846FFF764FDCF
:101290004FF4A0612846FFF76EFD0028F8D06FF0EC
:1012A000010221462846FFF748FD002440F2015183
:1012B0002846FFF760FD48B90134A4B24EF660231A
:1012C0009C42F3D92846FFF74CFD1DE040F2015146
:1012D0002846FFF75DFD40F207512846FFF74BFD1A
:1012E0000128F8D131462846FFF740FD40F202516F
:1012F0002846FFF740FD0028F8D02846FFF731FDCB
:101300002B6813F4007FFBD170BDF8B505460C4681
:1013100017461E4640F201612846FFF72CFD0028C3
:10132000F8D12846FFF718FD4FF4A0612846FFF7D3
:1013300022FD0028F8D06FF0010221462846FFF771
:10134000FCFC002440F201512846FFF714FD48B987
:101350000134A4B24EF660208442F3D92846FFF748
:1013600000FD28E040F201512846FFF711FD40F250
:1013700007512846FFF7FFFC0128F8D139462846D7
:10138000FFF7F4FC40F202512846FFF7F4FC002876
:10139000F8D031462846FFF7E9FC40F202512846D2
:1013A000FFF7E9FC0028F8D02846FFF7DAFC2B68A5
:1013B00013F4007FFBD1F8BD2DE9F04704468946C0
:1013C00092469846BDF8206040F201612046FFF742
:1013D000D2FC0028F8D1022E21D02046FFF7BCFC19
:1013E0004FF4A0612046FFF7C6FC0028F8D06FF04C
:1013F000010249462046FFF7A0FC002540F20151BA
:101400002046FFF7B8FC074678B90135ADB24EF675
:1014100060239D42F2D92046FFF7A3FC7FE04FF402
:1014200000612046FFF783FCD7E740F201512046D8
:10143000FFF7AEFC40F207512046FFF79CFC074641
:101440000128F7D12046FFF782FC51462046FFF7DE
:101450008DFC40F202512046FFF78DFC0028F8D0A9
:101460002046FFF779FC4FF4A0612046FFF783FC8C
:101470000028F8D0012249462046FFF75EFC022EE4
:1014800011D940F201512046FFF775FC0028F8D031
:1014900040F201512046FFF77BFC012E1AD1204675
:1014A000FFF75FFC16E000212046FFF73AFCE8E773
:1014B00040F202512046FFF75EFC0028F8D00021E0
:1014C0002046FFF72EFC08E040F206512046FFF7C9
:1014D00052FC78B9B6B1032EEAD0022EF4D140F214
:1014E00002512046FFF747FC0028F8D02046FFF7BE
:1014F00038FCE9E72046FFF73BFC08F8010B013E0A
:10150000B6B2E7E7236813F4007FFBD14FF48061A4
:101510002046FFF706FC00212046FFF708FC38466E
:10152000BDE8F08738B504460D460023FA22FFF7E0
:10153000ECFE0023FB2229462046FFF7E6FE0023AF
:10154000FC2229462046FFF7E0FE0023FD22294623
:101550002046FFF7DAFE38BD38B50024032C11D839
:1015600004F160056D00EDB229463748FFF74CFEE7
:1015700010B90134E4B2F1E7344B334A5A601D72BA
:1015800001221A70314B1B78012B14D00024032C3C
:1015900011D804F160056D00EDB229462C48FFF723
:1015A00033FE10B90134E4B2F1E7284B284A5A60FF
:1015B0001D7201221A70254B1B7873B90024032C6D
:1015C0001DD804F174056D00EDB229461E48FFF7E1
:1015D0001BFE70B90134E4B2F1E71C4C00231A463B
:1015E000217A6068FFF791FE217A6068FFF79AFF21
:1015F000E4E7184B144A5A601D7201221A70154B09
:101600001B78012B14D00024032C11D804F174058D
:101610006D00EDB229460E48FFF7F6FD10B9013412
:10162000E4B2F1E70B4B0A4A5A601D7201221A70AC
:10163000084B1B7803B938BD064B2122197A58682C
:10164000FFF718FEF7E700BF0054004060080020D5
:10165000005800408408002038B50024032C11D81D
:1016600004F12C056D00EDB229461348FFF7CCFDBF
:1016700010B90134E4B2F1E7104B0F4A5A601D7201
:1016800001221A700D4B1B78012B14D00024032C5F
:1016900011D804F12C056D00EDB229460848FFF77A
:1016A000B3FD10B90134E4B2F1E7044B044A5A60C7
:1016B0001D7201221A7038BD005400406C080020D1
:1016C0000058004038B50025032D10DC05F17004EA
:1016D0006400E4B221461748FFF796FD08B90135CA
:1016E000F2E7154B134A5A601C7201221A70124B12
:1016F0001B78012B13D00025032D10DC05F170049D
:101700006400E4B221460D48FFF77EFD08B90135BB
:10171000F2E7094B094A5A601C7201221A70064B03
:101720001B7803B938BD044B2122197A5868FFF79A
:10173000A1FDF7E700540040780800200058004061
:1017400010B584B0104CAA230022217A6068FFF7FC
:10175000DCFD0023ADF80C300223009303AB012223
:10176000217A6068FFF728FE9DF80C301BB99DF8C0
:101770000D20012A05D09DF80D0000EB032004B0D8
:1017800010BD4FF0FF30FAE76C08002008B5034B9E
:101790008122197A5868FFF76DFD08BD780800208E
:1017A0002DE9F0410138032803D8DFE800F00A04EE
:1017B0000608002406E0042404E0062402E00824CD
:1017C00000E00224651C092923D8DFE811F00A0093
:1017D00024003D0056006F008800A100BA00D3002D
:1017E000EC007D4E776896F808807C4800F0F8F9A8
:1017F000C3B2224641463846FFF787FD7468367A01
:10180000774800F0EDF9C3B22A4631462046FFF78B
:101810007CFDBDE8F081704E776896F808807148CD
:1018200000F0DEF9C3B2224641463846FFF76DFDAF
:101830007468367A6C4800F0D3F9C3B22A46314650
:101840002046FFF762FDE4E7634E776896F808806C
:10185000664800F0C5F9C3B2224641463846FFF754
:1018600054FD7468367A624800F0BAF9C3B22A4669
:1018700031462046FFF749FDCBE7574E776896F88B
:1018800008805C4800F0ACF9C3B2224641463846B5
:10189000FFF73BFD7468367A554800F0A1F9C3B2F2
:1018A0002A4631462046FFF730FDB2E74A4E7768B8
:1018B00096F808804B4800F093F9C3B2224641469F
:1018C0003846FFF722FD7468367A4B4800F088F9F5
:1018D000C3B22A4631462046FFF717FD99E73E4E30
:1018E000776896F80880454800F07AF9C3B2224636
:1018F00041463846FFF709FD7468367A3E4800F0E5
:101900006FF9C3B22A4631462046FFF7FEFC80E756
:10191000314E776896F80880394800F061F9C3B213
:10192000224641463846FFF7F0FC7468367A324862
:1019300000F056F9C3B22A4631462046FFF7E5FCCF
:1019400067E7254E776896F808802E4800F048F93A
:10195000C3B2224641463846FFF7D7FC7468367A50
:10196000214800F03DF9C3B22A4631462046FFF730
:10197000CCFC4EE7184E776896F80880174800F0C0
:101980002FF9C3B2224641463846FFF7BEFC7468C1
:10199000367A194800F024F9C3B22A463146204667
:1019A000FFF7B3FC35E70C4E776896F808801148CE
:1019B00000F016F9C3B2224641463846FFF7A5FCAF
:1019C0007468367A0C4800F00BF9C3B22A463146E7
:1019D0002046FFF79AFC1CE778080020183F000813
:1019E000243F0008303F00083C3F0008483F000803
:1019F000543F0008603F00086C3F0008783F000833
:101A0000843F0008903F00082DE9F843013803287F
:101A100003D8DFE800F00A040608002606E00426E2
:101A200004E0062602E0082600E00226771C0E4CA1
:101A3000D4F8048094F808900C4D284600F0D0F8B3
:101A4000C3B2324649464046FFF75FFC6668247AD7
:101A5000284600F0C5F8C3B23A4621463046FFF7A3
:101A600054FCBDE8F88300BF780800203C3F000824
:101A700042F20F73984207D8F0B583B005460024B0
:101A80004FF0FF36012702E0704700270134032C96
:101A900011DCC4F10301284600F0A8F8C0B204F13B
:101AA00008030DEB030202F8040C0028EDD1002F0F
:101AB000ECD00136EAE7002408E004F108036B44A7
:101AC00013F8041C601CFFF76BFE0134032C05DCCB
:101AD000A642F2DB601CFFF797FFF6E7044B5B685A
:101AE000012B01D003B0F0BD312000F013F9F9E76C
:101AF0007808002030B585B0FFF7EAFAFFF71AFB47
:101B0000FFF736FBFFF762FBFFF726FDFFF7A4FDAB
:101B100000F032F8154B1B68ADF80C301B0C8DF83B
:101B20000E30134A6B4607CA83E80700FFF7CAFD69
:101B3000FFF72CFE16E0FFF703FE0544012000F03E
:101B40003BF80134B4F5967FF5DB0A4880FB05309D
:101B5000ED17C5EBA010FFF78BFFFFF717FE0A206C
:101B600000F02AF800242546ECE700BF9C3F00085F
:101B70000C3F0008F11976050C4B1B680C4AA2FBC0
:101B800003239B09013BB3F1807F0DD24FF0E0228C
:101B90005361084BF02183F8231000219161072045
:101BA000106183F823107047FEE700BF000000209B
:101BB000D34D621000ED00E0034B1860024B1B6830
:101BC000002BFBD1704700BF90080020034B1B681F
:101BD0001BB1024A1368013B136070479008002054
:101BE00008B50222002100F02DF908BD10B5044609
:101BF0000846FEF74FFC02460B460020084901F05C
:101C000019FAFEF7B1FC94FBF0F0064A82FB0032B1
:101C1000C317C3EBA20303EB8303A0EB430010BD88
:101C20000000244067666666002103E00A4B5B58AB
:101C30004350043109480A4B42189A42F6D3094AE4
:101C400002E0002342F8043B074B9A42F9D3FFF726
:101C5000C1F9FFF74FFF7047B440000800000020B3
:101C60004408002044080020E0080020FEE70000AF
:101C7000830730B548D0541E002A3FD0CAB203466D
:101C800001E0013C3AD303F8012B9D07F9D1032C65
:101C90002DD9CDB245EA05250F2C45EA054536D9A3
:101CA000A4F1100222F00F0C03F1200EE6444FEADB
:101CB000121C03F1100242E9045542E902551032A8
:101CC0007245F8D10CF1010214F00C0F03EB021273
:101CD00004F00F0C13D0ACF1040323F0030304331E
:101CE000134442F8045B9342FBD10CF003042CB183
:101CF000CAB21C4403F8012B9C42FBD130BD6446A0
:101D00001346002CF4D1F9E703461446BFE71A4600
:101D1000A446E0E7024B01461868826800F0DCB890
:101D2000040000202DE9F04F814645488E46754657
:101D30001EF801CB10F80C4014F00804F7D1BCF1E8
:101D40002D0FE34654D0BCF12B0F08BF9EF800B016
:101D50006FF0004808BF05F1020E1BB1102B4FD0E9
:101D60001F4604E0BBF1300F55D00A231F46002563
:101D7000B8FBF7F6284607FB168A07E0864215D31C
:101D800029D007FB00C001251EF801BBABF1300CC8
:101D9000BCF1090F06D9ABF1410CBCF1190F08D801
:101DA000ABF1370C63450DDD002DE7DA4FF0FF3561
:101DB000EAE7ABF1610CBCF1190F03D8ABF1570C9A
:101DC0006345F1DC002D0BDB04B140420AB195BB49
:101DD0001160BDE8F08FE245D3DA4FF0FF35D3E76D
:101DE0002223C9F800301AB30EF1FF314046EFE765
:101DF0009EF800B04FF0004805F1020E0124ACE758
:101E0000BBF1300FACD19EF8000000F0DF00582885
:101E100007D01F46ABE79EF8003003F0DF03582BD6
:101E20000BD110279EF801B03B460EF1020E9EE743
:101E30004046BDE8F08F8046D6E708231F4696E768
:101E4000A53F0008012A09D0242A134606D8074ACC
:101E5000844610680A466146FFF764BF10B500F07B
:101E600017F816230360002010BD00BF04000020F7
:101E7000024B13B1024800F005B8704700000000A3
:101E80009D1E0008002301461A46184600F020B99E
:101E9000014B1868704700BF0400002038B5084B9C
:101EA000084D5B1B9C1007D0043B1D44013C55F8BA
:101EB00004399847002CF9D1BDE8384002F014B835
:101EC000B4400008B0400008704700BF704700BF32
:101ED000704700BF704700BF70B50E4614460546F8
:101EE00008B1836BEBB1636ED80702D4A38999055F
:101EF00023D5A368013B002BA3601CDAA26993429F
:101F000012DBF0B20A280FD023685A1C2260054663
:101F10001E70636EDA0702D4A3899B0511D528468B
:101F200070BD00F0DFF9DEE728462246314600F0BA
:101F30000DF80546EDE7F0B2E6E7A06DFFF7C8FF44
:101F4000D7E7A06DFFF7C6FF284670BDF8B50D4670
:101F50001446064610B1836B002B43D0B4F90C2015
:101F6000A369A360170790B21BD52369CBB1EDB26B
:101F700081042F4622D522686169D31A994229DD4E
:101F80000133A1680139A160511C2160157062699B
:101F90009A422AD0A389DB0701D50A2D25D03846DD
:101FA000F8BD2146304600F029F820BBB4F90C20DA
:101FB000236990B2EDB281042F46DCD442F4005282
:101FC000A281626E616922F4005262662268D31AAD
:101FD0009942D5DC2146304600F050F958B92268C4
:101FE0000123CEE700F07EF9B8E72146304600F045
:101FF00045F90028D3D04FF0FF37D0E738B5334B41
:102000001B6805460C460BB19A6B12B3B4F90C3041
:1020100018079AB225D5216900292DD012F00100A8
:1020200007D00020A06060694042A06139B1002063
:1020300038BD950758BF6069A0600029F7D1120626
:1020400058BF0846F4D543F04003A3814FF0FF305A
:1020500038BD184600F046F9B4F90C3018079AB2AA
:10206000D9D4D1062AD5520714D4216943F00803E4
:10207000A3819AB20029D1D102F42070B0F5007F7B
:10208000CCD02146284600F039FBB4F90C30216948
:102090009AB2C3E7216B51B104F14002914204D0DE
:1020A000284600F001FAB4F90C30002222632169BD
:1020B0000022C4E9001223F02403D7E7092243F0E9
:1020C00040032A604FF0FF30A38138BD0400002098
:1020D0002DE9F047DFF87CA00646DAF800009846C4
:1020E0000F469146FFF7F4FE1B4B1B68D3F848419F
:1020F00024B365681F2D26DC5EB96B1C0235DAF847
:102100000000636044F82570FFF7E4FE0020BDE89E
:10211000F08704EB85010123C1F88890D4F8882169
:10212000AB401A43022EC4F88821C1F80881E4D1DB
:10213000D4F88C211343C4F88C31DEE703F5A67480
:10214000C3F84841D5E7DAF80000FFF7C3FE4FF0C7
:10215000FF30DCE730040020A03F0008B1F90C207C
:10216000F8B50C461107074642D4636842F4006292
:10217000002BA28159DDA56A002D54D000233E68B2
:102180003B6093B212F4805253D1E1690123384687
:10219000A847421C63D0A389A56A5B0705D563687D
:1021A000C01A236B0BB1E36BC01AE169024600232E
:1021B0003846A847411C3ED13B68002B3BD01D2B25
:1021C00001D0162B52D1A3892269226023F4006327
:1021D00000216160A381216B3E6021B304F14003C3
:1021E000994202D0384600F05FF900202063F8BD24
:1021F0002669C6B193B2256826609A070CBF636949
:102200000023AD1BA3600CE0D4F824C0E1692B4689
:1022100032463846E047B0F1000CA5EB0C056644A9
:1022200016DD002DF0DC0020F8BDE36B002BA2DCF6
:10223000F9E7206DB1E7B4F90C302269226023F48C
:102240000063A3810022DB046260C4D52065C2E77D
:10225000A38943F040034FF0FF30A381F8BD3B68F2
:10226000002B98D01D2B06D0162B04D0A38943F049
:102270004003A381F8BD3E60D5E700BF38B50C46EA
:10228000054608B1836BA3B1B4F90C00B8B1636E15
:10229000DB0701D4810515D528462146FFF75EFFEF
:1022A000636EDA07054602D4A3899B050ED528463E
:1022B00038BD00F017F8B4F90C000028E7D1054646
:1022C000284638BDA06DFFF703FEE5E7A06DFFF7D8
:1022D00001FE284638BD00BF014900F0EBB900BF40
:1022E000552E00082DE9F04782463948FFF7F0FDEA
:1022F000DAF83840002C66D1DAF80450354ACAF8CA
:102300003C200323CAE9B843DFF8CC90DFF8CC8047
:10231000334F344E04230AF53B72CAF8E8222146B3
:10232000C5E90243C5E90044C5E904446C660822D6
:10233000AC6105F15C00FFF79BFCC5E90759C5E9F5
:102340000987EE6205F15800FFF7BEFDDAF8085084
:10235000254BEB602146C5E90044C5E904446C66A1
:10236000AC60AC61082205F15C00FFF781FCC5E9B7
:102370000759C5E90987EE6205F15800FFF7A4FD8A
:10238000DAF80C50194BEB602146C5E90044C5E969
:1023900004446C66AC60AC61082205F15C00FFF798
:1023A00067FC05F15800C5E90759C5E90A76C5F883
:1023B0002480FFF789FD0123CAF838300448BDE8BE
:1023C000F047FFF787BDBDE8F0470148FFF782BD42
:1023D000A0080020D9220008792D00089D2D0008B2
:1023E000DD2D0008FD2D000809000100120002008B
:1023F0000148FFF76DBD00BF9C0800200148FFF7B2
:1024000069BD00BF9C080020F8B5244F0C46064665
:1024100000F094FCBA685568C4F57E630F3325F06C
:1024200003052B4423F47F6323F00F03A3F58054AB
:10243000B4F5805F07DB0021304600F08BFCBB6801
:102440002B44984204D0304600F07EFC0020F8BDBA
:102450006142304600F07EFC01300DD0104ABB686E
:102460002D1B45F001055D60136830461B1B136092
:1024700000F06AFC0120F8BD0021304600F06AFC43
:10248000BA68831A0F2BDEDD43F001035360054B5E
:1024900003491B68C01A0860D5E700BF3404002058
:1024A000A40800203C080020002961D0F8B50C46A3
:1024B000064600F043FC54F8042C7B4FA4F10805B9
:1024C00022F0010105EB010CB868DCF8043060452E
:1024D00023F0030300F08B80D207CCF8043032D411
:1024E00054F8082CAD1A1144AA6807F1080082427A
:1024F0006AD00CEB0304D4F804E0EC68D4601EF05E
:10250000010FA26000F0978041F001036B60CCF8EE
:102510000010B1F5007F35D27A68CB084809012157
:10252000013381401143796007EBC30257F8331040
:10253000083AC5E9021247F83350CD603046BDE88D
:10254000F84000F001BC0CEB03025268D00710D435
:10255000194407F10800DCF80830834273D0DCF836
:102560000C20DA60936041F001036B606950D0E7A2
:10257000704741F00103B1F5007F44F8043CCCF80A
:102580000010C9D3B1F5206F4FEA512348D28B090F
:1025900003F1390003F13802C300F818FB5808387A
:1025A000984259D05A6822F003028A4202D99B68A5
:1025B0009842F7D1D868C5E902308560DD603046C1
:1025C000BDE8F84000F0C0BB0CEB03025268D20734
:1025D00063D40B44DCE90212CA60916043F001024B
:1025E0006A603046EB50BDE8F84000F0ADBB0B44EC
:1025F000D10707D454F8082CAD1A1344D5E90212B8
:10260000CA60916043F001026A60284ABD601268A6
:102610009A4293D8264B30461968FFF7F5FE8DE7AE
:10262000142B0AD9542B1FD80B0B03F16F0003F1A5
:102630006E02C300B1E719448DE703F15C0003F1BA
:102640005B02C300A9E741F00103C7E90455C5E9EE
:1026500002006B60695071E779689210012404FAF6
:1026600002F20A437A60A6E7B3F5AA7F06D8CB0B3D
:1026700003F1780003F17702C3008EE740F2545271
:10268000934206D88B0C03F17D0003F17C02C3005A
:1026900083E74FF47E737E227FE741F001036B6096
:1026A000CCF800104AE700BF3404002040080020A6
:1026B000D40800202DE9F8430746884600F538760F
:1026C0004FF00009D6E90154013D11D4A389012B33
:1026D00005F1FF3508D9B4F90E300133214603D096
:1026E0003846C04749EA00096B1C04F16804EDD183
:1026F0003668002EE6D14846BDE8F8832DE9F04162
:102700008B890C46990796B008D504F14303012242
:10271000C4E90432236016B0BDE8F081B4F90E10AC
:102720000029064627DB6A4600F0FAFB002821DB79
:10273000019D05F47045A5F50055B5FA85F54FF4F2
:1027400080686D094FF400674146304600F046F856
:10275000B4F90C30F0B1204AF26343F08003C4F8BE
:102760001480A3812060206135BB3B43A38116B058
:10277000BDE8F081A38913F0800519D04FF040081F
:102780004146304600F02AF80025B4F90C302F46B7
:102790000028E0D19A05BED423F0030304F14302DC
:1027A00043F002030121C4E90421A3812260B2E7BE
:1027B0004FF480682F46C7E7B4F90E10304600F09A
:1027C000C5FB10B9B4F90C30CFE7A38923F003039C
:1027D00043F001031BB2C8E7D92200082DE9F04FEE
:1027E00001F10B06162E83B0044624D8102900F2FE
:1027F000BA8000F0A3FA102618220220B54F3A44FE
:10280000A2F1080153688B4200F0BA805A68D96877
:1028100022F003021A449D68E9608D60516841F01E
:1028200001012046516003F1080500F08DFA2846A9
:1028300003B0BDE8F08F36F0070600F19480B14296
:1028400000F2918000F07AFAB6F5FC7FC0F09A8130
:10285000730A00F08F80042B00F26F81B30903F13B
:10286000390003F1380CC3009A4F3B44A3F108052B
:102870005B689D4206D10CE0002980F22781DB686D
:102880009D4206D05A6822F00302911B0F29F3DD06
:1028900060463D69DFF840C265457CD06A6822F039
:1028A0000302931B0F2B00F37B81002BC7E904CCA1
:1028B00080F26C81B2F5007F80F01A81D3087968CC
:1028C00001334FEA521E012202FA0EF20A4357F870
:1028D00033E0C5F808E007EBC3010839E9607A6026
:1028E00047F83350CEF80C508310012199409142A3
:1028F00057D8114206D120F003004900114200F1DF
:102900000400FAD007EBC0094D468646D5F80C8086
:10291000454508D11DE1002B80F22481D8F80C80B8
:10292000454500F01681D8F8042022F00302931BDD
:102930000F2BF0DD2046D8E9025408EB060146F0E3
:102940000106C8F80460EC60A56043F00104C7E923
:102950000411C1E902CC4C6048F8023000F0F4F9EF
:1029600008F1080502E00C2323600025284603B087
:10297000BDE8F08F4FF4007340204FF03F0C73E739
:10298000D3689A4208BF02307FF440AF3D69DFF858
:1029900048C1654582D17A688310012199409142EE
:1029A000A7D9BD686B6823F003094E4503D8A9EB8E
:1029B00006030F2B7ADCDFF824B1494BDBF800204B
:1029C0001B680132334405EB090A00F0338103F53B
:1029D00080530F3323F47F6828F00F0841462046C8
:1029E00000F0B8F9411C024600F0F380824500F285
:1029F000EE803C4B196841441960084600F04E8156
:102A0000DBF80010019301311BBFA2EB0A0A50440E
:102A1000CBF80020186012F0070B00F01781CBF103
:102A200008010A44CBF5805190440831A1EB08011C
:102A3000C1F30B0A51462046009200F08BF9421C6C
:102A4000DDE9002300F04F81801A00EB0A081968C5
:102A5000BA6048F001005144BD425060196000F076
:102A60002981B9F10F0F40F227816868A9F10C0C98
:102A70002CF0070C00F0010040EA0C0068604FF0F9
:102A8000050E05EB0C00BCF10F0FC0E901EE00F2E2
:102A9000328150681546144B1A688A4238BF196053
:102AA000124B1A688A4238BF196094E0AA1943F0A1
:102AB000010346F001066E602046BA60536000F0E4
:102AC00043F90835284603B0BDE8F08FD9681A44A9
:102AD000A1E600BF340400203C0400203C08002094
:102AE000D4080020A4080020CC080020D008002032
:102AF000B2F5206F4FEA522363D3142B00F2B78054
:102B000003F15C01C9005B3307EB010E7958AEF1AC
:102B1000080E8E4500F091804B6823F0030393422A
:102B200002D989688E45F7D1D1F80CE07A68C5E9F9
:102B3000021ECEF80850CD60D6E6142B59D9542B7E
:102B400000F29D80330B03F16F0003F16E0CC300A4
:102B50008AE60EF1010E1EF0030F05F108057FF461
:102B6000D5AE51E0424445465368D8F80C1043F0C6
:102B70000103536055F8083F2046D9608B6000F090
:102B8000E3F8F3E6F00806F1080237E62A442046A7
:102B9000536843F001035360083500F0D5F8E5E6CB
:102BA000A919204646F0010643F001046E60C7E90A
:102BB0000411C1E902CC4C60AB5000F0C5F80835F7
:102BC000D4E6930903F13901C90038339CE7BD42CB
:102BD0005FD0BD68686820F003084645A8EB06038F
:102BE00002D80F2B3FF762AF204600F0ADF800256A
:102BF000BCE603F15C0003F15B0CC30034E659F85A
:102C000008394B4540F0968010F0030F00F1FF307B
:102C1000F5D17B6823EA01037B60490099423FF6C6
:102C2000C0AE19B9BDE649000EF1040E1942FAD042
:102C3000704667E603F11008D0E69A104FF00108DD
:102C40007B6808FA02F21A437A6070E702EB080127
:102C50004942C1F30B0A51462046009200F07AF82F
:102C6000431CDDE900237FF4EFAEDA46EFE6542B98
:102C700025D8130B03F16F01C9006E3344E7B3F598
:102C8000AA7F25D8F30B03F1780003F1770CC3007A
:102C9000EAE5294B186840441860B1E6CAF30B0C0A
:102CA000BCF1000F7FF4ACAEBD68C84448F0010031
:102CB0006860F0E61546EEE60123536094E7B3F54D
:102CC000AA7F23D8D30B03F17801C90077331BE720
:102CD00040F25452934223D8B30C03F17D0003F128
:102CE0007C0CC300C0E5ABF1080BD844A8EB02088C
:102CF0004FF0000AABE605F1080120460093FFF70C
:102D0000D3FBBD68009B68681968C4E640F2545163
:102D10008B420BD8930C03F17D01C9007C33F3E6A1
:102D20004FF47E737F204FF07E0C9DE54FF47E7153
:102D30007E23E9E67B6870E7A40800200148FFF7DE
:102D4000C7B800BF980800200148FFF7C3B800BF0C
:102D50009808002038B5074D0022044608462A602E
:102D600000F05AF9431C00D038BD2B68002BFBD073
:102D7000236038BDD808002010B50C46B1F90E10FC
:102D800000F00CF9002803DB236D0344236510BD1C
:102D9000A38923F48053A38110BD00BF2DE9F04126
:102DA0000C46B1F90C101F46CB05054616460BD450
:102DB00021F48051A1813B46B4F90E1032462846D9
:102DC000BDE8F04100F01EB8B4F90E100223002255
:102DD00000F0CEF8B4F90C10EAE700BF10B50C46CD
:102DE000B1F90E1000F0C4F8A389421C0EBF23F401
:102DF000805343F480532065A38110BDB1F90E10B8
:102E000000F016B838B50C46084D844611462046E9
:102E10001A4600232B606446FEF740F9431C00D09D
:102E200038BD2B68002BFBD0236038BDD8080020AC
:102E300038B5074D0022044608462A6000F0C4F861
:102E4000431C00D038BD2B68002BFBD0236038BD5D
:102E5000D808002070B500294BD006460C4610B1AA
:102E6000836B002B48D0636ED80734D5B4F90C308F
:102E7000002B3ED021463046FFF770F9E36A054645
:102E800033B1E169304698470028B8BF4FF0FF35AD
:102E9000A3891A063BD4216B41B104F14003994246
:102EA00002D03046FFF700FB00232363616C21B1A1
:102EB0003046FFF7F9FA00236364FFF799FA636E6F
:102EC0000022DB07A28127D5A06DFEF7FFFFFFF7E9
:102ED00095FA284670BDA3899905CBD4A06DFEF75D
:102EE000F7FFB4F90C30002BC4D1656E15F0010565
:102EF00008D00025284670BDFFF7F4F9636ED807A7
:102F0000B4D4E8E7A06DFEF7E5FF284670BD21695F
:102F10003046FFF7C9FABEE7A06DFEF7DBFFD3E747
:102F200070B50C46084D03460026204611461C4647
:102F30002E6000F051F8431C00D070BD2B68002BB0
:102F4000FBD0236070BD00BFD808002038B5074D06
:102F50000022044608462A6000F046F8431C00D0D0
:102F600038BD2B68002BFBD0236038BDD80800206B
:102F700038B50C46084D8446114620461A460023B3
:102F80002B60644600F038F8431C00D038BD2B6835
:102F9000002BFBD0236038BDD808002038B50C4684
:102FA000084D8446114620461A4600232B6064468D
:102FB00000F02AF8431C00D038BD2B68002BFBD052
:102FC000236038BDD8080020024B58221A604FF009
:102FD000FF307047D8080020024B58221A604FF08B
:102FE000FF307047D8080020024B58221A6000209A
:102FF000704700BFD8080020024B58221A604FF0DB
:10300000FF307047D8080020024B58221A604FF05A
:10301000FF307047D8080020044A05491368002B88
:1030200008BF0B461844106018467047DC080020A3
:10303000E00800202DE9F84314461D4680468946E5
:1030400000F066F8224606460F462B4620462946E3
:10305000FDF74CFD78B90022002340464946FDF7B4
:1030600013FDD8B10022002320462946FDF70CFDB0
:1030700028B1264F002630463946BDE8F883204661
:10308000294600F0ABFE0028F5D020462946002254
:103090000023FDF703FD0028EDD02CE03046394633
:1030A00000F09CFEA0B10022002330463946FDF717
:1030B000EBFC0028DFD04046494600F08FFE002898
:1030C000D9D02046294600F089FE0028D3D012E04E
:1030D0004046494600F082FE0028E4D020462946BA
:1030E00000F07CFE0028DED032463B4630463946B2
:1030F000FDF7FCFC20B9FEF7CBFE22230360BAE704
:10310000FEF7C6FE21230360B5E700BF0000F03FD5
:103110002DE9F04F23F0004B88465BEA020193B0A3
:1031200014461D46074611D1031888F4002275483D
:103130005241994270EB020320D238464146224662
:103140002B46FDF75BF813B0BDE8F08F10466E4AD2
:1031500028F0004991459A4646463B4615DD06F162
:10316000404606F580161E43E7D12319654985F4CC
:10317000002252419E4271EB0203DED3634C0023D6
:103180001846214613B0BDE8F08F3ED05E4A934505
:10319000E5DC00F08880002E69DB0022009278B91F
:1031A000594A934500F08380584A934500F0978030
:1031B000BAF1804F00F09584554A924500F0B583EE
:1031C00038464146029300F005FE029B4BB3009A3D
:1031D000F30F013B0A93134300F088804D4B9B454E
:1031E00040F39E8003F104739B454B4B40F30C84EA
:1031F000994540F38684BAF1000F40F3868400209D
:1032000013B0BDE8F04F00F0DFBD002F95D1BDE752
:1032100038464146009300F0DDFD009B002B65D150
:103220000093B9F1000F04D0384B26F040429A4287
:10323000CDD1BAF1000F05DA02460B460020334922
:10324000FDF7E4FA002EBFF67EAF009B09F140497E
:1032500009F5801959EA030340F0678402460B46DA
:10326000FCF7CAFF02460B46FDF7D0FA6BE72B4A84
:1032700093452EDCA2F1547293450FDD4FEA2B5299
:10328000A2F2FF32142A40F34284C2F1340220FA3F
:1032900002F101FA02F2824200F0708400220092F0
:1032A000002881D08CE700283FF475AF57E709F17B
:1032B000404202F5801213433FF460AF164B99452C
:1032C00040F36783BAF1000FC0F25D8320462946C0
:1032D00039E70222009200283FF462AF70E7BAF1AA
:1032E000000FC0F2F683384641462CE73A46434683
:1032F00038464146FCF780FF02460B46FDF786FA4A
:1033000021E700BF0000F0FF0000F07F0000F03F69
:103310000000E03F0000E041FFFFEF3FFFFF3F43C1
:10332000D54B334000222BB9D44BFDF745F96FF054
:10333000340289464FEA2953A3F2FF339A18D04B3F
:103340000B92C9F3130949F07F56994546F440168C
:1033500007DDCC4B994540F3F18301320B92A6F582
:10336000801600220023CDE90823CDE91023C64BA7
:103370000022CDE906230027DDE9062331468246F7
:10338000FCF73AFFB346DDE90623804689465046FE
:103390003146CDE90CABFCF731FF02460B4600206D
:1033A000B949FDF733FA0A460146CDE90E12134634
:1033B000494602464046FDF7FFF80A4683469446D2
:1033C000CDE902BC4FF0000CCDF808C07610DDE965
:1033D00002AB46F00056014606F50023CDE9041283
:1033E0000020D91906460F4602460B46504659465C
:1033F000FDF7E2F802460B4640464946FCF7FCFE64
:10340000DDE906238046894630463946FCF7F4FE5E
:1034100002460B46DDE90C01FCF7EEFE52465B4628
:10342000FDF7CAF802460B4640464946FCF7E4FE63
:10343000DDE90E23FDF7C0F8DDE90467CDE90601FB
:1034400032463B4630463946FDF7B6F878A3D3E915
:10345000002306460F46FDF7AFF877A3D3E9002314
:10346000FCF7CCFE32463B46FDF7A6F874A3D3E941
:103470000023FCF7C3FE32463B46FDF79DF872A3DE
:10348000D3E90023FCF7BAFE32463B46FDF794F839
:103490006FA3D3E90023FCF7B1FE32463B46FDF7AC
:1034A0008BF86DA3D3E90023FCF7A8FE32468046D3
:1034B00089463B4630463946FDF77EF802460B46C4
:1034C00040464946FDF778F8524606460F465B46A9
:1034D000DDE90401FCF792FEDDE90623FDF76CF857
:1034E00032463B46FCF78AFE5246804689465B469A
:1034F00050465946FDF760F802460B46CDE90C23CD
:10350000624B0022FCF77AFE42464B46FCF776FE01
:1035100000260F4632463B4650465946FDF74CF8CA
:103520005A4B82468B46002230463946FCF764FEF1
:10353000DDE90C23FCF760FE02460B464046494697
:10354000FCF75AFEDDE90423FDF736F832468046E3
:1035500089463B46DDE90601FDF72EF802460B469B
:1035600040464946FCF74AFE8046894602460B46DD
:1035700050465946FCF742FE002639A3D3E9002302
:1035800030460F46FDF718F852465B4682468B469A
:1035900030463946FCF730FE02460B464046494667
:1035A000FCF72AFE30A3D3E90023FDF705F830A38A
:1035B000D3E900238046894630463946FCF7FCFFB4
:1035C00002460B4640464946FCF718FEDDE910234B
:1035D000FCF714FE80460B988946FCF75BFF4246D9
:1035E00006460F464B4650465946CDE904ABFCF71C
:1035F00005FEDDE90823FCF701FE32463B46FCF7F9
:10360000FDFD4FF0000A32463B4650468B46FCF724
:10361000F3FDDDE90823FCF7EFFDDDE90423FCF70A
:10362000EBFD02460B4640464946FCF7E5FD2FE020
:10363000EF4E454A287ECA3F65DBC9934A86CD3F97
:1036400001411DA96074D13F4D268F515555D53F7D
:10365000FFAB6FDBB66DDB3F033333333333E33F15
:10366000000000E009C7EE3FFD033ADC09C7EE3F6A
:10367000F5015B14E02F3EBE0000F07F00004043E8
:103680008E98030079B60B000000F03F0000084060
:10369000CDE90201009B0A9A013B13430CBFD44BB6
:1036A000D44B0022CDE904230023CDE9004500934B
:1036B000DDE90089204642464B462946FCF79CFD41
:1036C00052465B46FCF778FF224606460F462B46DD
:1036D000DDE90201FCF770FF02460B463046394631
:1036E000FCF78CFD42464B4606460F46504659466F
:1036F000FCF762FF0B46024604460D46304639464B
:10370000FCF77CFDBC4B9942804689468A4640F3D3
:10371000168101F13F4303F5E003034340F02382A8
:10372000A1A3D3E9002330463946FCF767FD2246C2
:10373000CDE900012B4640464946FCF75DFD0246B7
:103740000B46DDE90001FDF7C7F9002840F00B82C8
:10375000CAF30A534FF48012A3F2FE3342FA03F382
:103760005344A649C3F30A52A2F2FF3241FA02FCC3
:10377000C3F31301C2F1140241F4801141FA02FEB5
:10378000002023EA0C01BAF1000FCDF808E0024650
:103790000B4602DA71464942029120462946FCF75F
:1037A0002BFD029B1B05009302460B4604460D466B
:1037B00030463946FCF722FD89464FF000087CA3CD
:1037C000D3E9002340464946FCF7F6FE22468246EE
:1037D0008B462B4640464946FCF70EFD02460B46FB
:1037E00030463946FCF708FD73A3D3E90023FCF704
:1037F000E3FE73A3D3E9002304460D464046494641
:10380000FCF7DAFE02460B4620462946FCF7F6FC9A
:1038100006460F4602460B4650465946FCF7EEFC5C
:1038200052465B4604460D46FCF7E6FC02460B4654
:1038300030463946FCF7E0FC224682468B462B4652
:1038400020462946FCF7B8FE5FA3D3E900230646CD
:103850000F46FCF7B1FE5EA3D3E90023FCF7CCFCD6
:1038600032463B46FCF7A8FE5BA3D3E90023FCF7F6
:10387000C5FC32463B46FCF79FFE59A3D3E9002323
:10388000FCF7BAFC32463B46FCF796FE56A3D3E95A
:103890000023FCF7B3FC32463B46FCF78DFE0246A4
:1038A0000B4620462946FCF7A7FC06460F46024673
:1038B0000B4620462946FCF77FFE002280468946BB
:1038C000304639464FF08043FCF796FC02460B46E3
:1038D00040464946FCF79AFF524606460F465B466D
:1038E00020462946FCF768FE52465B46FCF786FCFC
:1038F00002460B4630463946FCF77EFC22462B46F4
:10390000FCF77AFC02460B4600203A49FCF774FCAF
:10391000009D0C462C44B4F5801FC0F22081214646
:10392000DDE90423FCF748FE0DE4002EFFF648AC69
:103930003846414613B0BDE8F04F00F055B9DFF806
:10394000C0C021F00043634540F3D3802D4B0B44AE
:1039500003430AD122462B46FCF74EFC32463B4637
:10396000FDF7B0F800283FF4F3AEDDE904010022D2
:103970000023FDF793F8003818BF012013B0BDE80D
:10398000F04F00F01BBA0023002418462146FFF731
:10399000DABBBAF1000FF6DA05F10043204619460A
:1039A000FFF7D1BBAFF30080FE822B654715973C34
:1039B00000000000432EE63FEF39FAFE422EE63FBC
:1039C000396CA80C615C20BED0A4BE726937663E1B
:1039D000F16BD2C541BDBB3E2CDE25AF6A56113F0F
:1039E00093BDBE166CC1663F3E5555555555C53FF6
:1039F0000000F0BF0000F03FFFFF8F40FFFF0F000F
:103A0000FFCB904000346F3F99457ADB724B99456C
:103A10003FF7F1AB704B0022FCF7EEFB62A3D3E95A
:103A2000002306460F46FCF7C7FD61A3D3E9002338
:103A30008046894630463946FCF7BEFD674B8246D4
:103A40008B46002230463946FCF7B6FD02460B464F
:103A500059A1D1E90001FCF7CFFB32463B46FCF708
:103A6000ABFD02460B4600205D49FCF7C5FB324624
:103A7000CDE902013B4630463946FCF79DFD024642
:103A80000B46DDE90201FCF797FD4DA3D3E90023C6
:103A9000FCF792FD02460B4650465946FCF7ACFB3C
:103AA00002460B4606460F4640464946FCF7A6FB33
:103AB0004FF0000A42464B4650468B46FCF79CFBB3
:103AC00002460B4630463946FCF796FBCDE902012B
:103AD000E0E53A46434640490020FCF797FEFFF7F1
:103AE00032BB3A46384643464146FCF765FDFFF790
:103AF0002ABB3B4A934252DCDDE90023009202924A
:103B00005BE6BAF1000FFFF67AAB002036E700283B
:103B10007FF47EABC2F114024BFA02F101FA02F219
:103B20005A4535D00090FFF73FBB009B012B7FF437
:103B30000AAB01F100431946FFF705BB22A3D3E905
:103B40000023CDE9082322A3D3E90023CDE91023E4
:103B5000244B0022CDE906234FF480270CE4029A7F
:103B600000F042F9DCE6DDE9040100220023FCF765
:103B700095FF003818BF0120FFF742BB01F001019B
:103B8000C1F10202009200283FF40EABFFF718BB10
:103B900001F00101C1F102020092FFF705BB1B1504
:103BA000D8E500BFAFF30080000000604715F73F85
:103BB00044DF5DF80BAE543E555555555555D53F30
:103BC000FE822B654715F73F0000004003B8E23F37
:103BD00006D0CF43EBFD4C3E0000F03F0000D03F4D
:103BE0000000E03F0000F83F614A8A432DE9F843B6
:103BF00005460C4600F09E8000290B46844654DDA5
:103C0000091562D0C3F31303C807A1F2FF3743F4C9
:103C1000801304D45B0003EBDC734FEA4C0C4FEAD7
:103C2000DC72002602EB43037F104FEA4C0C4FF08E
:103C3000160E34464FF40012A118994202DC5B1AAA
:103C40008C1816445B00BEF1010E03EBDC734FEAE7
:103C500052024FEA4C0CEFD1754620204FF0004243
:103C60000AE043D04FEADC71013801EB43034FEA2D
:103C70004C0C4FEA520242D0A34202EB0E01F0DD9F
:103C8000002901EB020E0ADBA0461B1B614588BF21
:103C900003F1FF33ACEB010C15444446E2E7BEF1FF
:103CA000000FF1DB04F10108EFE721F000420243CD
:103CB00036D000294CD14FEADC22153913464FEAA1
:103CC0004C5C002AF7D0D6024CD400205B00DD0209
:103CD000044600F10100F9D51A4663460CFA00FCCF
:103CE000C0F12000C340091B13438BE76145B9D8DD
:103CF000002901EB020ED2DB98460023CAE753EA03
:103D00000C0311D16808731003F17F5303F50013FE
:103D1000F20748BF40F0004003EB075905464C4608
:103D200028462146BDE8F883691C16BF681C013689
:103D30004008E8E702460B46FCF73EFC2A462346CD
:103D4000FCF75CFA05460C4628462146BDE8F88398
:103D50000246FCF751FA02460B46FCF757FD0546B2
:103D60000C46DDE7634620204FF0FF34BAE700BF82
:103D70000000F07FD0B506460F461446FEF788F8DF
:103D80000346394630461C60D0BD00BF30B583B015
:103D900080B1144603F10045CDE9004510461946AF
:103DA000DDE90023FCF708FC222203B0BDE8304027
:103DB000FFF7E0BF14461D46EEE700BF00224FF0BC
:103DC0008053FFF7E3BF00BF00224FF0E043FFF74F
:103DD000DDBF00BF21F00041704700BF41F000404F
:103DE00000F58010C00F7047C1F30A5370B58C46C0
:103DF00004460D4616467BBB21F0004C03465CEAA8
:103E0000030328D0304B0022FCF7D6FB2F4B9E42F9
:103E100004460D461ADBC1F30A538C46363B334445
:103E200040F2FE72934220DC002B3CDC13F1350F94
:103E30002CDA4CF250339E4217DC05F0004343F07D
:103E4000D27141F4B731224841F01F011AA3D3E9DE
:103E50000023FCF7B1FB70BD40F2FF729342DED14C
:103E600002460B46FCF7CAF970BD05F0004343F06B
:103E7000FC4141F45F1141F4105111A3D3E9002337
:103E8000144841F03C01FCF797FB70BD2CF0FF4C4F
:103E900036332CF4E00C4CEA035120460E4B002242
:103EA000FCF78AFB70BD2CF0FF4C2CF4E00C204694
:103EB0004CEA035170BD00BF59F3F8C21F6EA50153
:103EC0009C7500883CE4377E00005043B03CFFFF07
:103ED00059F3F8C29C7500880000903CF8B500BF0B
:103EE000F8BC08BC9E467047F8B500BFF8BC08BCDB
:043EF0009E46704733
:103EF4000000000000000000010203040607080996
:103F040000000000010203040100000002000000A0
:103F14000200000031313131313030300000000016
:103F2400303030303030303100000000303031314A
:103F3400303030300000000030303030303030303D
:103F440000000000313130313130303000000000E9
:103F54003030303030303130000000003031313119
:103F6400313030300000000030303030303031310A
:103F740000000000303131303130303000000000BA
:103F840031313130313030300000000030303131E7
:103F940031303030000000003031320008000020A1
:103FA4000020202020202020202028282828282005
:103FB40020202020202020202020202020202020FD
:103FC4002088101010101010101010101010101065
:103FD4001004040404040404040404101010101055
:103FE400101041414141414101010101010101011F
:103FF4000101010101010101010101011010101071
:1040040010104242424242420202020202020202F0
:104014000202020202020202020202021010101044
:10402400200000000000000000000000000000006C
:10403400000000000000000000000000000000007C
:10404400000000000000000000000000000000006C
:10405400000000000000000000000000000000005C
:10406400000000000000000000000000000000004C
:10407400000000000000000000000000000000003C
:10408400000000000000000000000000000000002C
:10409400000000000000000000000000000000001C
:0440A4000000000018
:0840A800711E0008D50100089B
:0440B000B101000852
:1040B40000C2EB0B0800002000000000F402002006
:1040C4005C030020C4030020000000000000000086
:1040D40000000000000000000000000000000000DC
:1040E40000000000000000000000000000000000CC
:1040F40000000000000000000000000000000000BC
:1041040000000000000000000000000000000000AB
:10411400000000000000000000000000000000009B
:10412400000000000000000000000000000000008B
:10413400000000000000000000000000000000007B
:10414400000000000000000000000000000000006B
:10415400000000000000000000000000000000005B
:1041640001000000000000000E33CDAB34126DE6F8
:10417400ECDE05000B000000000000000000000061
:10418400000000000000000000000000000000002B
:10419400000000000000000000000000000000001B
:1041A400000000000000000000000000000000000B
:1041B40000000000000000000000000000000000FB
:1044E40094080020000000000000000034040020B4
:1044F400340400203C0400203C0400204404002038
:10450400440400204C0400204C04002054040020E7
:10451400540400205C0400205C0400206404002097
:10452400640400206C0400206C0400207404002047
:10453400740400207C0400207C04002084040020F7
:10454400840400208C0400208C04002094040020A7
:10455400940400209C0400209C040020A404002057
:10456400A4040020AC040020AC040020B404002007
:10457400B4040020BC040020BC040020C4040020B7
:10458400C4040020CC040020CC040020D404002067
:10459400D4040020DC040020DC040020E404002017
:1045A400E4040020EC040020EC040020F4040020C7
:1045B400F4040020FC040020FC0400200405002076
:1045C400040500200C0500200C0500201405002023
:1045D400140500201C0500201C05002024050020D3
:1045E400240500202C0500202C0500203405002083
:1045F400340500203C0500203C0500204405002033
:10460400440500204C0500204C05002054050020E2
:10461400540500205C0500205C0500206405002092
:10462400640500206C0500206C0500207405002042
:10463400740500207C0500207C05002084050020F2
:10464400840500208C0500208C05002094050020A2
:10465400940500209C0500209C050020A405002052
:10466400A4050020AC050020AC050020B405002002
:10467400B4050020BC050020BC050020C4050020B2
:10468400C4050020CC050020CC050020D405002062
:10469400D4050020DC050020DC050020E405002012
:1046A400E4050020EC050020EC050020F4050020C2
:1046B400F4050020FC050020FC0500200406002071
:1046C400040600200C0600200C060020140600201E
:1046D400140600201C0600201C06002024060020CE
:1046E400240600202C0600202C060020340600207E
:1046F400340600203C0600203C060020440600202E
:10470400440600204C0600204C06002054060020DD
:10471400540600205C0600205C060020640600208D
:10472400640600206C0600206C060020740600203D
:10473400740600207C0600207C06002084060020ED
:10474400840600208C0600208C060020940600209D
:10475400940600209C0600209C060020A40600204D
:10476400A4060020AC060020AC060020B4060020FD
:10477400B4060020BC060020BC060020C4060020AD
:10478400C4060020CC060020CC060020D40600205D
:10479400D4060020DC060020DC060020E40600200D
:1047A400E4060020EC060020EC060020F4060020BD
:1047B400F4060020FC060020FC060020040700206C
:1047C400040700200C0700200C0700201407002019
:1047D400140700201C0700201C07002024070020C9
:1047E400240700202C0700202C0700203407002079
:1047F400340700203C0700203C0700204407002029
:10480400440700204C0700204C07002054070020D8
:10481400540700205C0700205C0700206407002088
:10482400640700206C0700206C0700207407002038
:10483400740700207C0700207C07002084070020E8
:10484400840700208C0700208C0700209407002098
:10485400940700209C0700209C070020A407002048
:10486400A4070020AC070020AC070020B4070020F8
:10487400B4070020BC070020BC070020C4070020A8
:10488400C4070020CC070020CC070020D407002058
:10489400D4070020DC070020DC070020E407002008
:1048A400E4070020EC070020EC070020F4070020B8
:1048B400F4070020FC070020FC0700200408002067
:1048C400040800200C0800200C0800201408002014
:1048D400140800201C0800201C08002024080020C4
:1048E400240800202C0800202C080020FFFFFFFFD4
:0448F40000000200BE
:0400000508001C29AA
:00000001FF
